{
	"data": {
		"bytecode": {
			"linkReferences": {},
			"object": "608060405234801561001057600080fd5b50336000806101000a81548173ffffffffffffffffffffffffffffffffffffffff021916908373ffffffffffffffffffffffffffffffffffffffff160217905550615ad580620000616000396000f3fe6080604052600436106101b75760003560e01c80638da9ba84116100ec578063c10c35461161008a578063cda2df8f11610064578063cda2df8f14610663578063d9eaf1d6146106a0578063ee20f961146106de578063f6a2271a14610707576101b7565b8063c10c3546146105df578063c1e57ad314610608578063c384837c14610624576101b7565b8063a5fc8394116100c6578063a5fc839414610527578063a7ccabdf14610564578063a97c7ca91461058d578063b77fa8e5146105b6576101b7565b80638da9ba841461047057806391b0193c146104ad5780639e28f69e146104ea576101b7565b8063597677a411610159578063733fdcec11610133578063733fdcec1461038c578063743f462f146103c9578063820b606d146104085780638da5cb5b14610445576101b7565b8063597677a4146102e65780635b09c868146103235780636d2c885e14610360576101b7565b80633e812fd0116101955780633e812fd01461024d5780634d5b0f7714610276578063557ed1ba1461029f57806358b279ca146102ca576101b7565b806308f78b0f146101bc57806318b4bb38146101e75780633b078a7314610210575b600080fd5b3480156101c857600080fd5b506101d1610730565b6040516101de9190613598565b60405180910390f35b3480156101f357600080fd5b5061020e60048036038101906102099190613637565b610746565b005b34801561021c57600080fd5b50610237600480360381019061023291906137bd565b6109b3565b6040516102449190613844565b60405180910390f35b34801561025957600080fd5b50610274600480360381019061026f919061388b565b610a06565b005b34801561028257600080fd5b5061029d600480360381019061029891906138cb565b610c9b565b005b3480156102ab57600080fd5b506102b4610edb565b6040516102c19190613936565b60405180910390f35b6102e460048036038101906102df91906139b1565b610ee3565b005b3480156102f257600080fd5b5061030d60048036038101906103089190613a25565b6111ed565b60405161031a9190613a6d565b60405180910390f35b34801561032f57600080fd5b5061034a60048036038101906103459190613a88565b61120d565b6040516103579190613aea565b60405180910390f35b34801561036c57600080fd5b5061037561123b565b604051610383929190613c81565b60405180910390f35b34801561039857600080fd5b506103b360048036038101906103ae9190613a88565b611316565b6040516103c09190613d37565b60405180910390f35b3480156103d557600080fd5b506103f060048036038101906103eb9190613a25565b6113cc565b6040516103ff93929190613e65565b60405180910390f35b34801561041457600080fd5b5061042f600480360381019061042a9190613eb1565b6119f4565b60405161043c9190613f50565b60405180910390f35b34801561045157600080fd5b5061045a611b91565b6040516104679190613fb3565b60405180910390f35b34801561047c57600080fd5b5061049760048036038101906104929190613eb1565b611bb5565b6040516104a49190613936565b60405180910390f35b3480156104b957600080fd5b506104d460048036038101906104cf9190613eb1565b611bd9565b6040516104e19190613844565b60405180910390f35b3480156104f657600080fd5b50610511600480360381019061050c9190613eb1565b611c11565b60405161051e9190613aea565b60405180910390f35b34801561053357600080fd5b5061054e60048036038101906105499190613a88565b611cf6565b60405161055b9190613844565b60405180910390f35b34801561057057600080fd5b5061058b60048036038101906105869190613ffa565b611d2d565b005b34801561059957600080fd5b506105b460048036038101906105af9190613a25565b611dff565b005b3480156105c257600080fd5b506105dd60048036038101906105d89190614027565b6120e9565b005b3480156105eb57600080fd5b5061060660048036038101906106019190613ffa565b61220c565b005b610622600480360381019061061d91906140b2565b6122de565b005b34801561063057600080fd5b5061064b60048036038101906106469190613eb1565b612685565b60405161065a93929190614112565b60405180910390f35b34801561066f57600080fd5b5061068a60048036038101906106859190613a25565b612747565b6040516106979190614150565b60405180910390f35b3480156106ac57600080fd5b506106c760048036038101906106c29190613a25565b612b62565b6040516106d5929190614172565b60405180910390f35b3480156106ea57600080fd5b50610705600480360381019061070091906141a2565b612c9c565b005b34801561071357600080fd5b5061072e60048036038101906107299190614259565b612d26565b005b600760009054906101000a900463ffffffff1681565b60008054906101000a900473ffffffffffffffffffffffffffffffffffffffff1673ffffffffffffffffffffffffffffffffffffffff163373ffffffffffffffffffffffffffffffffffffffff16146107d4576040517f08c379a00000000000000000000000000000000000000000000000000000000081526004016107cb906142e5565b60405180910390fd5b600760049054906101000a900473ffffffffffffffffffffffffffffffffffffffff1673ffffffffffffffffffffffffffffffffffffffff1662923f9e836040518263ffffffff1660e01b815260040161082e9190613936565b602060405180830381865afa15801561084b573d6000803e3d6000fd5b505050506040513d601f19601f8201168201806040525081019061086f919061431a565b6108ae576040517f08c379a00000000000000000000000000000000000000000000000000000000081526004016108a590614393565b60405180910390fd5b80600a600084815260200190815260200160002060020160006101000a81548161ffff021916908361ffff1602179055507ff2a5aa2f415da3ff88f530a665e7477c0274dc41f3cdc118cd69f268e59e47de600a6000848152602001908152602001600020600101600d600a600086815260200190815260200160002060010160405161093b91906144b6565b90815260200160405180910390208360405161095993929190614551565b60405180910390a180600e600a600085815260200190815260200160002060010160405161098791906144b6565b908152602001604051809103902060006101000a81548161ffff021916908361ffff1602179055505050565b6000600f836040516109c591906145c7565b9081526020016040518091039020826040516109e191906145c7565b908152602001604051809103902060009054906101000a900461ffff16905092915050565b60008054906101000a900473ffffffffffffffffffffffffffffffffffffffff1673ffffffffffffffffffffffffffffffffffffffff163373ffffffffffffffffffffffffffffffffffffffff1614610a94576040517f08c379a0000000000000000000000000000000000000000000000000000000008152600401610a8b906142e5565b60405180910390fd5b6000610a9f83612747565b9050805167ffffffffffffffff811115610abc57610abb613692565b5b604051908082528060200260200182016040528015610aea5781602001602082028036833780820191505090505b5060029080519060200190610b009291906133f3565b50805167ffffffffffffffff811115610b1c57610b1b613692565b5b604051908082528060200260200182016040528015610b4a5781602001602082028036833780820191505090505b5060039080519060200190610b60929190613440565b506000805b8251811015610c4a576000838281518110610b8357610b826145de565b5b602002602001015190506000600a600083815260200190815260200160002060020160009054906101000a900461ffff1690508561ffff168161ffff1610610c3b578160028581548110610bda57610bd96145de565b5b90600052602060002001819055508060038581548110610bfd57610bfc6145de565b5b90600052602060002090601091828204019190066002026101000a81548161ffff021916908361ffff1602179055508380610c379061463c565b9450505b50508080600101915050610b65565b5080600252806003528363ffffffff167f9084f86f4be525f8f79ba26712fc72947c9600adc9449afab8eeb0226712901a60026003604051610c8d929190614e41565b60405180910390a250505050565b600760049054906101000a900473ffffffffffffffffffffffffffffffffffffffff1673ffffffffffffffffffffffffffffffffffffffff1662923f9e836040518263ffffffff1660e01b8152600401610cf59190613936565b602060405180830381865afa158015610d12573d6000803e3d6000fd5b505050506040513d601f19601f82011682018060405250810190610d36919061431a565b610d75576040517f08c379a0000000000000000000000000000000000000000000000000000000008152600401610d6c90614393565b60405180910390fd5b600a6000838152602001908152602001600020600080820160009055600182016000610da191906134ea565b6002820160006101000a81549061ffff02191690556002820160026101000a81549063ffffffff02191690555050600c81604051610ddf91906145c7565b908152602001604051809103902060009055600d81604051610e0191906145c7565b90815260200160405180910390206000610e1b91906134ea565b600e81604051610e2b91906145c7565b908152602001604051809103902060006101000a81549061ffff0219169055600760049054906101000a900473ffffffffffffffffffffffffffffffffffffffff1673ffffffffffffffffffffffffffffffffffffffff166342966c68836040518263ffffffff1660e01b8152600401610ea59190613936565b600060405180830381600087803b158015610ebf57600080fd5b505af1158015610ed3573d6000803e3d6000fd5b505050505050565b600042905090565b60008054906101000a900473ffffffffffffffffffffffffffffffffffffffff1673ffffffffffffffffffffffffffffffffffffffff163373ffffffffffffffffffffffffffffffffffffffff1614610f71576040517f08c379a0000000000000000000000000000000000000000000000000000000008152600401610f68906142e5565b60405180910390fd5b60004290506000610f8185612e69565b610f89610edb565b610f939190614e78565b9050610fe284848080601f016020809104026020016040519081016040528093929190818152602001838380828437600081840152601f19601f82011690508083019250505050505050612fbb565b15611022576040517f08c379a000000000000000000000000000000000000000000000000000000000815260040161101990614f1e565b60405180910390fd5b61102d866001612d26565b6110378484613049565b6004600201908161104891906150d5565b5060405180606001604052808763ffffffff16815260200182815260200185858080601f016020809104026020016040519081016040528093929190818152602001838380828437600081840152601f19601f82011690508083019250505050505050815250600b60008863ffffffff16815260200190815260200160002060008201518160000160006101000a81548163ffffffff021916908363ffffffff16021790555060208201518160010155604082015181600201908161110d91906150d5565b509050506007600081819054906101000a900463ffffffff1680929190611133906151a7565b91906101000a81548163ffffffff021916908363ffffffff1602179055505083836040516111629291906151f8565b60405180910390207f7d6547a0bcb6462f778bc0de278e8c3a2390b46cac557ab976a242bfa37a2ea760405160405180910390a260006111ab83426131c990919063ffffffff16565b90507ff9da9f410abecad36ac458072c4c6251fb6ad3e007f71bb1b15280aa7aa7acc0816040516111dc9190613936565b60405180910390a150505050505050565b60096020528060005260406000206000915054906101000a900460ff1681565b600c818051602081018201805184825260208301602085012081835280955050505050506000915090505481565b606080600260038180548060200260200160405190810160405280929190818152602001828054801561128d57602002820191906000526020600020905b815481526020019060010190808311611279575b505050505091508080548060200260200160405190810160405280929190818152602001828054801561130757602002820191906000526020600020906000905b82829054906101000a900461ffff1661ffff16815260200190600201906020826001010492830192600103820291508084116112ce5790505b50505050509050915091509091565b600d81805160208101820180518482526020830160208501208183528095505050505050600091509050805461134b906143e2565b80601f0160208091040260200160405190810160405280929190818152602001828054611377906143e2565b80156113c45780601f10611399576101008083540402835291602001916113c4565b820191906000526020600020905b8154815290600101906020018083116113a757829003601f168201915b505050505081565b606080606060008054906101000a900473ffffffffffffffffffffffffffffffffffffffff1673ffffffffffffffffffffffffffffffffffffffff163373ffffffffffffffffffffffffffffffffffffffff161461145f576040517f08c379a0000000000000000000000000000000000000000000000000000000008152600401611456906142e5565b60405180910390fd5b6000600760049054906101000a900473ffffffffffffffffffffffffffffffffffffffff1673ffffffffffffffffffffffffffffffffffffffff166318160ddd6040518163ffffffff1660e01b8152600401602060405180830381865afa1580156114ce573d6000803e3d6000fd5b505050506040513d601f19601f820116820180604052508101906114f29190615226565b905060008167ffffffffffffffff8111156115105761150f613692565b5b60405190808252806020026020018201604052801561153e5781602001602082028036833780820191505090505b50905060008267ffffffffffffffff81111561155d5761155c613692565b5b60405190808252806020026020018201604052801561159057816020015b606081526020019060019003908161157b5790505b50905060008367ffffffffffffffff8111156115af576115ae613692565b5b6040519080825280602002602001820160405280156115e257816020015b60608152602001906001900390816115cd5790505b5090506000805b858110156119de576000600760049054906101000a900473ffffffffffffffffffffffffffffffffffffffff1673ffffffffffffffffffffffffffffffffffffffff16634f6ccce7836040518263ffffffff1660e01b815260040161164e9190613936565b602060405180830381865afa15801561166b573d6000803e3d6000fd5b505050506040513d601f19601f8201168201806040525081019061168f9190615226565b9050600760049054906101000a900473ffffffffffffffffffffffffffffffffffffffff1673ffffffffffffffffffffffffffffffffffffffff1662923f9e826040518263ffffffff1660e01b81526004016116eb9190613936565b602060405180830381865afa158015611708573d6000803e3d6000fd5b505050506040513d601f19601f8201168201806040525081019061172c919061431a565b61176b576040517f08c379a000000000000000000000000000000000000000000000000000000000815260040161176290614393565b60405180910390fd5b8a63ffffffff16600a600083815260200190815260200160002060020160029054906101000a900463ffffffff1663ffffffff16036119d0576000600a600083815260200190815260200160002060010180546117c7906143e2565b80601f01602080910402602001604051908101604052809291908181526020018280546117f3906143e2565b80156118405780601f1061181557610100808354040283529160200191611840565b820191906000526020600020905b81548152906001019060200180831161182357829003601f168201915b505050505090506000600d8260405161185991906145c7565b90815260200160405180910390208054611872906143e2565b80601f016020809104026020016040519081016040528092919081815260200182805461189e906143e2565b80156118eb5780601f106118c0576101008083540402835291602001916118eb565b820191906000526020600020905b8154815290600101906020018083116118ce57829003601f168201915b505050505090506000600e8360405161190491906145c7565b908152602001604051809103902060009054906101000a900461ffff1690507fcdebf4628cf2bdf62fe4427d8619cd411668aa87a3c00cf46186c77cbb48a704848484846040516119589493929190615253565b60405180910390a183898781518110611974576119736145de565b5b60200260200101818152505082888781518110611994576119936145de565b5b6020026020010181905250818787815181106119b3576119b26145de565b5b602002602001018190525085806119c99061463c565b9650505050505b5080806001019150506115e9565b5083838397509750975050505050509193909250565b6119fc61352a565b60008054906101000a900473ffffffffffffffffffffffffffffffffffffffff1673ffffffffffffffffffffffffffffffffffffffff163373ffffffffffffffffffffffffffffffffffffffff1614611a8a576040517f08c379a0000000000000000000000000000000000000000000000000000000008152600401611a81906142e5565b60405180910390fd5b600a600083815260200190815260200160002060405180608001604052908160008201548152602001600182018054611ac2906143e2565b80601f0160208091040260200160405190810160405280929190818152602001828054611aee906143e2565b8015611b3b5780601f10611b1057610100808354040283529160200191611b3b565b820191906000526020600020905b815481529060010190602001808311611b1e57829003601f168201915b505050505081526020016002820160009054906101000a900461ffff1661ffff1661ffff1681526020016002820160029054906101000a900463ffffffff1663ffffffff1663ffffffff16815250509050919050565b60008054906101000a900473ffffffffffffffffffffffffffffffffffffffff1681565b60028181548110611bc557600080fd5b906000526020600020016000915090505481565b60038181548110611be957600080fd5b9060005260206000209060109182820401919006600202915054906101000a900461ffff1681565b6000600760049054906101000a900473ffffffffffffffffffffffffffffffffffffffff1673ffffffffffffffffffffffffffffffffffffffff1662923f9e836040518263ffffffff1660e01b8152600401611c6d9190613936565b602060405180830381865afa158015611c8a573d6000803e3d6000fd5b505050506040513d601f19601f82011682018060405250810190611cae919061431a565b611ced576040517f08c379a0000000000000000000000000000000000000000000000000000000008152600401611ce490614393565b60405180910390fd5b81409050919050565b600e818051602081018201805184825260208301602085012081835280955050505050506000915054906101000a900461ffff1681565b60008054906101000a900473ffffffffffffffffffffffffffffffffffffffff1673ffffffffffffffffffffffffffffffffffffffff163373ffffffffffffffffffffffffffffffffffffffff1614611dbb576040517f08c379a0000000000000000000000000000000000000000000000000000000008152600401611db2906142e5565b60405180910390fd5b80600760046101000a81548173ffffffffffffffffffffffffffffffffffffffff021916908373ffffffffffffffffffffffffffffffffffffffff16021790555050565b60008054906101000a900473ffffffffffffffffffffffffffffffffffffffff1673ffffffffffffffffffffffffffffffffffffffff163373ffffffffffffffffffffffffffffffffffffffff1614611e8d576040517f08c379a0000000000000000000000000000000000000000000000000000000008152600401611e84906142e5565b60405180910390fd5b600073ffffffffffffffffffffffffffffffffffffffff16600860009054906101000a900473ffffffffffffffffffffffffffffffffffffffff1673ffffffffffffffffffffffffffffffffffffffff1603611f1e576040517f08c379a0000000000000000000000000000000000000000000000000000000008152600401611f15906152f2565b60405180910390fd5b600b60008263ffffffff168152602001908152602001600020600101544211611f7c576040517f08c379a0000000000000000000000000000000000000000000000000000000008152600401611f7390615384565b60405180910390fd5b6000611f8782612747565b905060005b81518110156120e4576000828281518110611faa57611fa96145de565b5b602002602001015190506000600c600a6000848152602001908152602001600020600101604051611fdb91906144b6565b90815260200160405180910390205490506000600860009054906101000a900473ffffffffffffffffffffffffffffffffffffffff1673ffffffffffffffffffffffffffffffffffffffff1663841fb503836040518263ffffffff1660e01b81526004016120499190613aea565b6000604051808303816000875af1158015612068573d6000803e3d6000fd5b505050506040513d6000823e3d601f19601f820116820180604052508101906120919190615414565b905080600d600a60008681526020019081526020016000206001016040516120b991906144b6565b908152602001604051809103902090816120d391906150d5565b505050508080600101915050611f8c565b505050565b60008054906101000a900473ffffffffffffffffffffffffffffffffffffffff1673ffffffffffffffffffffffffffffffffffffffff163373ffffffffffffffffffffffffffffffffffffffff1614612177576040517f08c379a000000000000000000000000000000000000000000000000000000000815260040161216e906142e5565b60405180910390fd5b80600f8460405161218891906145c7565b9081526020016040518091039020836040516121a491906145c7565b908152602001604051809103902060006101000a81548161ffff021916908361ffff1602179055507fb72368e5c4f4ed385a10588b376a9c14980884bf93b05506b000a33cb5596a7e8383836040516121ff9392919061545d565b60405180910390a1505050565b60008054906101000a900473ffffffffffffffffffffffffffffffffffffffff1673ffffffffffffffffffffffffffffffffffffffff163373ffffffffffffffffffffffffffffffffffffffff161461229a576040517f08c379a0000000000000000000000000000000000000000000000000000000008152600401612291906142e5565b60405180910390fd5b80600860006101000a81548173ffffffffffffffffffffffffffffffffffffffff021916908373ffffffffffffffffffffffffffffffffffffffff16021790555050565b82600960008263ffffffff1663ffffffff16815260200190815260200160002060009054906101000a900460ff1661234b576040517f08c379a000000000000000000000000000000000000000000000000000000000815260040161234290615514565b60405180910390fd5b8363ffffffff16600b60008663ffffffff16815260200190815260200160002060000160009054906101000a900463ffffffff1663ffffffff16146123c5576040517f08c379a00000000000000000000000000000000000000000000000000000000081526004016123bc90615580565b60405180910390fd5b600b60008563ffffffff16815260200190815260200160002060010154421115612424576040517f08c379a000000000000000000000000000000000000000000000000000000000815260040161241b90615612565b60405180910390fd5b6000600760049054906101000a900473ffffffffffffffffffffffffffffffffffffffff1673ffffffffffffffffffffffffffffffffffffffff1663d0def52160008054906101000a900473ffffffffffffffffffffffffffffffffffffffff1686866040518463ffffffff1660e01b81526004016124a59392919061565f565b6020604051808303816000875af11580156124c4573d6000803e3d6000fd5b505050506040513d601f19601f820116820180604052508101906124e89190615226565b9050604051806080016040528082815260200185858080601f016020809104026020016040519081016040528093929190818152602001838380828437600081840152601f19601f820116905080830192505050505050508152602001600061ffff1681526020018663ffffffff16815250600a600083815260200190815260200160002060008201518160000155602082015181600101908161258c91906150d5565b5060408201518160020160006101000a81548161ffff021916908361ffff16021790555060608201518160020160026101000a81548163ffffffff021916908363ffffffff16021790555090505060006125e582611c11565b905080600c86866040516125fa9291906151f8565b90815260200160405180910390208190555060008054906101000a900473ffffffffffffffffffffffffffffffffffffffff1673ffffffffffffffffffffffffffffffffffffffff16827f39397d2e688938acaca7eaa3e682119de68481651f15c791de35581976ded52b8787604051612675929190615691565b60405180910390a3505050505050565b600b6020528060005260406000206000915090508060000160009054906101000a900463ffffffff16908060010154908060020180546126c4906143e2565b80601f01602080910402602001604051908101604052809291908181526020018280546126f0906143e2565b801561273d5780601f106127125761010080835404028352916020019161273d565b820191906000526020600020905b81548152906001019060200180831161272057829003601f168201915b5050505050905083565b606060008054906101000a900473ffffffffffffffffffffffffffffffffffffffff1673ffffffffffffffffffffffffffffffffffffffff163373ffffffffffffffffffffffffffffffffffffffff16146127d7576040517f08c379a00000000000000000000000000000000000000000000000000000000081526004016127ce906142e5565b60405180910390fd5b6000600760049054906101000a900473ffffffffffffffffffffffffffffffffffffffff1673ffffffffffffffffffffffffffffffffffffffff166318160ddd6040518163ffffffff1660e01b8152600401602060405180830381865afa158015612846573d6000803e3d6000fd5b505050506040513d601f19601f8201168201806040525081019061286a9190615226565b905060008167ffffffffffffffff81111561288857612887613692565b5b6040519080825280602002602001820160405280156128b65781602001602082028036833780820191505090505b5090506000805b83811015612ab5576000600760049054906101000a900473ffffffffffffffffffffffffffffffffffffffff1673ffffffffffffffffffffffffffffffffffffffff16634f6ccce7836040518263ffffffff1660e01b81526004016129229190613936565b602060405180830381865afa15801561293f573d6000803e3d6000fd5b505050506040513d601f19601f820116820180604052508101906129639190615226565b9050600760049054906101000a900473ffffffffffffffffffffffffffffffffffffffff1673ffffffffffffffffffffffffffffffffffffffff1662923f9e826040518263ffffffff1660e01b81526004016129bf9190613936565b602060405180830381865afa1580156129dc573d6000803e3d6000fd5b505050506040513d601f19601f82011682018060405250810190612a00919061431a565b612a3f576040517f08c379a0000000000000000000000000000000000000000000000000000000008152600401612a3690614393565b60405180910390fd5b8663ffffffff16600a600083815260200190815260200160002060020160029054906101000a900463ffffffff1663ffffffff1603612aa75780848481518110612a8c57612a8b6145de565b5b6020026020010181815250508280612aa39061463c565b9350505b5080806001019150506128bd565b5060008167ffffffffffffffff811115612ad257612ad1613692565b5b604051908082528060200260200182016040528015612b005781602001602082028036833780820191505090505b50905060005b82811015612b5557838181518110612b2157612b206145de565b5b6020026020010151828281518110612b3c57612b3b6145de565b5b6020026020010181815250508080600101915050612b06565b5080945050505050919050565b600060608263ffffffff16600b60008563ffffffff16815260200190815260200160002060000160009054906101000a900463ffffffff1663ffffffff1614612be0576040517f08c379a0000000000000000000000000000000000000000000000000000000008152600401612bd790615580565b60405180910390fd5b6000600b60008563ffffffff1681526020019081526020016000209050806001015481600201808054612c12906143e2565b80601f0160208091040260200160405190810160405280929190818152602001828054612c3e906143e2565b8015612c8b5780601f10612c6057610100808354040283529160200191612c8b565b820191906000526020600020905b815481529060010190602001808311612c6e57829003601f168201915b505050505090509250925050915091565b7f3936be753933ba8498f7f2c358f25a3ff46983a6abe2d32294b2f6c6ad6203e3838383600f86604051612cd091906145c7565b908152602001604051809103902085604051612cec91906145c7565b908152602001604051809103902060009054906101000a900461ffff16604051612d199493929190615253565b60405180910390a1505050565b60008054906101000a900473ffffffffffffffffffffffffffffffffffffffff1673ffffffffffffffffffffffffffffffffffffffff163373ffffffffffffffffffffffffffffffffffffffff1614612db4576040517f08c379a0000000000000000000000000000000000000000000000000000000008152600401612dab906142e5565b60405180910390fd5b8163ffffffff16600b60008463ffffffff16815260200190815260200160002060000160009054906101000a900463ffffffff1663ffffffff1614612e2e576040517f08c379a0000000000000000000000000000000000000000000000000000000008152600401612e2590615580565b60405180910390fd5b80600960008463ffffffff1663ffffffff16815260200190815260200160002060006101000a81548160ff0219169083151502179055505050565b60008061271083612e7a91906156e4565b9050600060648085612e8c91906156e4565b612e969190615715565b90506000606485612ea79190615715565b90506107b28361ffff161015612ef2576040517f08c379a0000000000000000000000000000000000000000000000000000000008152600401612ee9906157b8565b60405180910390fd5b60018260ff1610158015612f0a5750600c8260ff1611155b612f49576040517f08c379a0000000000000000000000000000000000000000000000000000000008152600401612f4090615824565b60405180910390fd5b60018160ff1610158015612f615750601f8160ff1611155b612fa0576040517f08c379a0000000000000000000000000000000000000000000000000000000008152600401612f9790615890565b60405180910390fd5b6000612fad8484846131df565b905080945050505050919050565b600080600090505b600760009054906101000a900463ffffffff1663ffffffff168163ffffffff16101561303e578280519060200120600b60008363ffffffff16815260200190815260200160002060020160405161301a9190615953565b604051809103902003613031576001915050613044565b8080600101915050612fc3565b50600090505b919050565b606060008054906101000a900473ffffffffffffffffffffffffffffffffffffffff1673ffffffffffffffffffffffffffffffffffffffff163373ffffffffffffffffffffffffffffffffffffffff16146130d9576040517f08c379a00000000000000000000000000000000000000000000000000000000081526004016130d0906142e5565b60405180910390fd5b600760049054906101000a900473ffffffffffffffffffffffffffffffffffffffff1673ffffffffffffffffffffffffffffffffffffffff1663d0def5213385856040518463ffffffff1660e01b81526004016131389392919061565f565b6020604051808303816000875af1158015613157573d6000803e3d6000fd5b505050506040513d601f19601f8201168201806040525081019061317b9190615226565b5082828080601f016020809104026020016040519081016040528093929190818152602001838380828437600081840152601f19601f82011690508083019250505050505050905092915050565b600081836131d7919061596a565b905092915050565b6000806301e133806107b28661ffff166131f9919061596a565b613203919061599e565b90506000600190505b8460ff168160ff1610156132885760028160ff161480156132325750613231866132bf565b5b1561324d5762263b80826132469190614e78565b915061327b565b6201518061325b8288613314565b60ff1661326891906159ef565b62ffffff16826132789190614e78565b91505b808060010191505061320c565b506201518060018460ff1661329d919061596a565b6132a7919061599e565b816132b29190614e78565b9050809150509392505050565b6000806004836132cf9190615a2c565b61ffff1614801561330d575060006064836132ea9190615a2c565b61ffff1614158061330c57506000610190836133069190615a2c565b61ffff16145b5b9050919050565b600060028360ff1614801561332e575061332d826132bf565b5b1561333c57601d90506133ed565b6000604051806101800160405280601f60ff168152602001601c60ff168152602001601f60ff168152602001601e60ff168152602001601f60ff168152602001601e60ff168152602001601f60ff168152602001601f60ff168152602001601e60ff168152602001601f60ff168152602001601e60ff168152602001601f60ff168152509050806001856133d09190615a6a565b60ff16600c81106133e4576133e36145de565b5b60200201519150505b92915050565b82805482825590600052602060002090810192821561342f579160200282015b8281111561342e578251825591602001919060010190613413565b5b50905061343c919061355c565b5090565b82805482825590600052602060002090600f016010900481019282156134d95791602002820160005b838211156134a957835183826101000a81548161ffff021916908361ffff1602179055509260200192600201602081600101049283019260010302613469565b80156134d75782816101000a81549061ffff02191690556002016020816001010492830192600103026134a9565b505b5090506134e6919061355c565b5090565b5080546134f6906143e2565b6000825580601f106135085750613527565b601f016020900490600052602060002090810190613526919061355c565b5b50565b60405180608001604052806000815260200160608152602001600061ffff168152602001600063ffffffff1681525090565b5b8082111561357557600081600090555060010161355d565b5090565b600063ffffffff82169050919050565b61359281613579565b82525050565b60006020820190506135ad6000830184613589565b92915050565b6000604051905090565b600080fd5b600080fd5b6000819050919050565b6135da816135c7565b81146135e557600080fd5b50565b6000813590506135f7816135d1565b92915050565b600061ffff82169050919050565b613614816135fd565b811461361f57600080fd5b50565b6000813590506136318161360b565b92915050565b6000806040838503121561364e5761364d6135bd565b5b600061365c858286016135e8565b925050602061366d85828601613622565b9150509250929050565b600080fd5b600080fd5b6000601f19601f8301169050919050565b7f4e487b7100000000000000000000000000000000000000000000000000000000600052604160045260246000fd5b6136ca82613681565b810181811067ffffffffffffffff821117156136e9576136e8613692565b5b80604052505050565b60006136fc6135b3565b905061370882826136c1565b919050565b600067ffffffffffffffff82111561372857613727613692565b5b61373182613681565b9050602081019050919050565b82818337600083830152505050565b600061376061375b8461370d565b6136f2565b90508281526020810184848401111561377c5761377b61367c565b5b61378784828561373e565b509392505050565b600082601f8301126137a4576137a3613677565b5b81356137b484826020860161374d565b91505092915050565b600080604083850312156137d4576137d36135bd565b5b600083013567ffffffffffffffff8111156137f2576137f16135c2565b5b6137fe8582860161378f565b925050602083013567ffffffffffffffff81111561381f5761381e6135c2565b5b61382b8582860161378f565b9150509250929050565b61383e816135fd565b82525050565b60006020820190506138596000830184613835565b92915050565b61386881613579565b811461387357600080fd5b50565b6000813590506138858161385f565b92915050565b600080604083850312156138a2576138a16135bd565b5b60006138b085828601613876565b92505060206138c185828601613622565b9150509250929050565b600080604083850312156138e2576138e16135bd565b5b60006138f0858286016135e8565b925050602083013567ffffffffffffffff811115613911576139106135c2565b5b61391d8582860161378f565b9150509250929050565b613930816135c7565b82525050565b600060208201905061394b6000830184613927565b92915050565b600080fd5b600080fd5b60008083601f84011261397157613970613677565b5b8235905067ffffffffffffffff81111561398e5761398d613951565b5b6020830191508360018202830111156139aa576139a9613956565b5b9250929050565b600080600080606085870312156139cb576139ca6135bd565b5b60006139d987828801613876565b94505060206139ea87828801613876565b935050604085013567ffffffffffffffff811115613a0b57613a0a6135c2565b5b613a178782880161395b565b925092505092959194509250565b600060208284031215613a3b57613a3a6135bd565b5b6000613a4984828501613876565b91505092915050565b60008115159050919050565b613a6781613a52565b82525050565b6000602082019050613a826000830184613a5e565b92915050565b600060208284031215613a9e57613a9d6135bd565b5b600082013567ffffffffffffffff811115613abc57613abb6135c2565b5b613ac88482850161378f565b91505092915050565b6000819050919050565b613ae481613ad1565b82525050565b6000602082019050613aff6000830184613adb565b92915050565b600081519050919050565b600082825260208201905092915050565b6000819050602082019050919050565b613b3a816135c7565b82525050565b6000613b4c8383613b31565b60208301905092915050565b6000602082019050919050565b6000613b7082613b05565b613b7a8185613b10565b9350613b8583613b21565b8060005b83811015613bb6578151613b9d8882613b40565b9750613ba883613b58565b925050600181019050613b89565b5085935050505092915050565b600081519050919050565b600082825260208201905092915050565b6000819050602082019050919050565b613bf8816135fd565b82525050565b6000613c0a8383613bef565b60208301905092915050565b6000602082019050919050565b6000613c2e82613bc3565b613c388185613bce565b9350613c4383613bdf565b8060005b83811015613c74578151613c5b8882613bfe565b9750613c6683613c16565b925050600181019050613c47565b5085935050505092915050565b60006040820190508181036000830152613c9b8185613b65565b90508181036020830152613caf8184613c23565b90509392505050565b600081519050919050565b600082825260208201905092915050565b60005b83811015613cf2578082015181840152602081019050613cd7565b60008484015250505050565b6000613d0982613cb8565b613d138185613cc3565b9350613d23818560208601613cd4565b613d2c81613681565b840191505092915050565b60006020820190508181036000830152613d518184613cfe565b905092915050565b600081519050919050565b600082825260208201905092915050565b6000819050602082019050919050565b600082825260208201905092915050565b6000613da182613cb8565b613dab8185613d85565b9350613dbb818560208601613cd4565b613dc481613681565b840191505092915050565b6000613ddb8383613d96565b905092915050565b6000602082019050919050565b6000613dfb82613d59565b613e058185613d64565b935083602082028501613e1785613d75565b8060005b85811015613e535784840389528151613e348582613dcf565b9450613e3f83613de3565b925060208a01995050600181019050613e1b565b50829750879550505050505092915050565b60006060820190508181036000830152613e7f8186613b65565b90508181036020830152613e938185613df0565b90508181036040830152613ea78184613df0565b9050949350505050565b600060208284031215613ec757613ec66135bd565b5b6000613ed5848285016135e8565b91505092915050565b613ee781613579565b82525050565b6000608083016000830151613f056000860182613b31565b5060208301518482036020860152613f1d8282613d96565b9150506040830151613f326040860182613bef565b506060830151613f456060860182613ede565b508091505092915050565b60006020820190508181036000830152613f6a8184613eed565b905092915050565b600073ffffffffffffffffffffffffffffffffffffffff82169050919050565b6000613f9d82613f72565b9050919050565b613fad81613f92565b82525050565b6000602082019050613fc86000830184613fa4565b92915050565b613fd781613f92565b8114613fe257600080fd5b50565b600081359050613ff481613fce565b92915050565b6000602082840312156140105761400f6135bd565b5b600061401e84828501613fe5565b91505092915050565b6000806000606084860312156140405761403f6135bd565b5b600084013567ffffffffffffffff81111561405e5761405d6135c2565b5b61406a8682870161378f565b935050602084013567ffffffffffffffff81111561408b5761408a6135c2565b5b6140978682870161378f565b92505060406140a886828701613622565b9150509250925092565b6000806000604084860312156140cb576140ca6135bd565b5b60006140d986828701613876565b935050602084013567ffffffffffffffff8111156140fa576140f96135c2565b5b6141068682870161395b565b92509250509250925092565b60006060820190506141276000830186613589565b6141346020830185613927565b81810360408301526141468184613cfe565b9050949350505050565b6000602082019050818103600083015261416a8184613b65565b905092915050565b60006040820190506141876000830185613927565b81810360208301526141998184613cfe565b90509392505050565b6000806000606084860312156141bb576141ba6135bd565b5b60006141c9868287016135e8565b935050602084013567ffffffffffffffff8111156141ea576141e96135c2565b5b6141f68682870161378f565b925050604084013567ffffffffffffffff811115614217576142166135c2565b5b6142238682870161378f565b9150509250925092565b61423681613a52565b811461424157600080fd5b50565b6000813590506142538161422d565b92915050565b600080604083850312156142705761426f6135bd565b5b600061427e85828601613876565b925050602061428f85828601614244565b9150509250929050565b7f43616c6c6572206973206e6f7420746865206f776e6572000000000000000000600082015250565b60006142cf601783613cc3565b91506142da82614299565b602082019050919050565b600060208201905081810360008301526142fe816142c2565b9050919050565b6000815190506143148161422d565b92915050565b6000602082840312156143305761432f6135bd565b5b600061433e84828501614305565b91505092915050565b7f546f6b656e20646f6573206e6f74206578697374000000000000000000000000600082015250565b600061437d601483613cc3565b915061438882614347565b602082019050919050565b600060208201905081810360008301526143ac81614370565b9050919050565b7f4e487b7100000000000000000000000000000000000000000000000000000000600052602260045260246000fd5b600060028204905060018216806143fa57607f821691505b60208210810361440d5761440c6143b3565b5b50919050565b600081905092915050565b60008190508160005260206000209050919050565b60008154614440816143e2565b61444a8186614413565b94506001821660008114614465576001811461447a576144ad565b60ff19831686528115158202860193506144ad565b6144838561441e565b60005b838110156144a557815481890152600182019150602081019050614486565b838801955050505b50505092915050565b60006144c28284614433565b915081905092915050565b600081546144da816143e2565b6144e48186613cc3565b945060018216600081146144ff576001811461451557614548565b60ff198316865281151560200286019350614548565b61451e8561441e565b60005b8381101561454057815481890152600182019150602081019050614521565b808801955050505b50505092915050565b6000606082019050818103600083015261456b81866144cd565b9050818103602083015261457f81856144cd565b905061458e6040830184613835565b949350505050565b60006145a182613cb8565b6145ab8185614413565b93506145bb818560208601613cd4565b80840191505092915050565b60006145d38284614596565b915081905092915050565b7f4e487b7100000000000000000000000000000000000000000000000000000000600052603260045260246000fd5b7f4e487b7100000000000000000000000000000000000000000000000000000000600052601160045260246000fd5b6000614647826135c7565b91507fffffffffffffffffffffffffffffffffffffffffffffffffffffffffffffffff82036146795761467861460d565b5b600182019050919050565b600081549050919050565b60008190508160005260206000209050919050565b60008160001c9050919050565b6000819050919050565b60006146ce6146c9836146a4565b6146b1565b9050919050565b60006146e182546146bb565b9050919050565b6000600182019050919050565b600061470082614684565b61470a8185613b10565b93506147158361468f565b8060005b8381101561474d5761472a826146d5565b6147348882613b40565b975061473f836146e8565b925050600181019050614719565b5085935050505092915050565b600081549050919050565b60008190508160005260206000209050919050565b600061ffff82169050919050565b600061479b614796836146a4565b61477a565b9050919050565b60008160101c9050919050565b60006147c26147bd836147a2565b61477a565b9050919050565b60008160201c9050919050565b60006147e96147e4836147c9565b61477a565b9050919050565b60008160301c9050919050565b600061481061480b836147f0565b61477a565b9050919050565b60008160401c9050919050565b600061483761483283614817565b61477a565b9050919050565b60008160501c9050919050565b600061485e6148598361483e565b61477a565b9050919050565b60008160601c9050919050565b600061488561488083614865565b61477a565b9050919050565b60008160701c9050919050565b60006148ac6148a78361488c565b61477a565b9050919050565b60008160801c9050919050565b60006148d36148ce836148b3565b61477a565b9050919050565b60008160901c9050919050565b60006148fa6148f5836148da565b61477a565b9050919050565b60008160a01c9050919050565b600061492161491c83614901565b61477a565b9050919050565b60008160b01c9050919050565b600061494861494383614928565b61477a565b9050919050565b60008160c01c9050919050565b600061496f61496a8361494f565b61477a565b9050919050565b60008160d01c9050919050565b600061499661499183614976565b61477a565b9050919050565b60008160e01c9050919050565b60006149bd6149b88361499d565b61477a565b9050919050565b60008160f01c9050919050565b60006149e46149df836149c4565b61477a565b9050919050565b60006149f68261475a565b614a008185613bce565b935083614a0c84614765565b6000600115614bb9575b83600160100382011015614bb8578154614a3888614a3383614788565b613bef565b602088019750614a5088614a4b836147af565b613bef565b602088019750614a6888614a63836147d6565b613bef565b602088019750614a8088614a7b836147fd565b613bef565b602088019750614a9888614a9383614824565b613bef565b602088019750614ab088614aab8361484b565b613bef565b602088019750614ac888614ac383614872565b613bef565b602088019750614ae088614adb83614899565b613bef565b602088019750614af888614af3836148c0565b613bef565b602088019750614b1088614b0b836148e7565b613bef565b602088019750614b2888614b238361490e565b613bef565b602088019750614b4088614b3b83614935565b613bef565b602088019750614b5888614b538361495c565b613bef565b602088019750614b7088614b6b83614983565b613bef565b602088019750614b8888614b83836149aa565b613bef565b602088019750614ba088614b9b836149d1565b613bef565b60208801975060018301925050601081019050614a16565b5b600115614e3457815484821015614be957614bdc88614bd783614788565b613bef565b6020880197506001820191505b84821015614c1057614c0388614bfe836147af565b613bef565b6020880197506001820191505b84821015614c3757614c2a88614c25836147d6565b613bef565b6020880197506001820191505b84821015614c5e57614c5188614c4c836147fd565b613bef565b6020880197506001820191505b84821015614c8557614c7888614c7383614824565b613bef565b6020880197506001820191505b84821015614cac57614c9f88614c9a8361484b565b613bef565b6020880197506001820191505b84821015614cd357614cc688614cc183614872565b613bef565b6020880197506001820191505b84821015614cfa57614ced88614ce883614899565b613bef565b6020880197506001820191505b84821015614d2157614d1488614d0f836148c0565b613bef565b6020880197506001820191505b84821015614d4857614d3b88614d36836148e7565b613bef565b6020880197506001820191505b84821015614d6f57614d6288614d5d8361490e565b613bef565b6020880197506001820191505b84821015614d9657614d8988614d8483614935565b613bef565b6020880197506001820191505b84821015614dbd57614db088614dab8361495c565b613bef565b6020880197506001820191505b84821015614de457614dd788614dd283614983565b613bef565b6020880197506001820191505b84821015614e0b57614dfe88614df9836149aa565b613bef565b6020880197506001820191505b84821015614e3257614e2588614e20836149d1565b613bef565b6020880197506001820191505b505b8694505050505092915050565b60006040820190508181036000830152614e5b81856146f5565b90508181036020830152614e6f81846149eb565b90509392505050565b6000614e83826135c7565b9150614e8e836135c7565b9250828201905080821115614ea657614ea561460d565b5b92915050565b7f49504653206c696e6b20616c72656164792065786973747320666f7220616e6f60008201527f7468657220616476657274000000000000000000000000000000000000000000602082015250565b6000614f08602b83613cc3565b9150614f1382614eac565b604082019050919050565b60006020820190508181036000830152614f3781614efb565b9050919050565b60006020601f8301049050919050565b600082821b905092915050565b600060088302614f8b7fffffffffffffffffffffffffffffffffffffffffffffffffffffffffffffffff82614f4e565b614f958683614f4e565b95508019841693508086168417925050509392505050565b6000819050919050565b6000614fd2614fcd614fc8846135c7565b614fad565b6135c7565b9050919050565b6000819050919050565b614fec83614fb7565b615000614ff882614fd9565b848454614f5b565b825550505050565b600090565b615015615008565b615020818484614fe3565b505050565b5b818110156150445761503960008261500d565b600181019050615026565b5050565b601f8211156150895761505a8161441e565b61506384614f3e565b81016020851015615072578190505b61508661507e85614f3e565b830182615025565b50505b505050565b600082821c905092915050565b60006150ac6000198460080261508e565b1980831691505092915050565b60006150c5838361509b565b9150826002028217905092915050565b6150de82613cb8565b67ffffffffffffffff8111156150f7576150f6613692565b5b61510182546143e2565b61510c828285615048565b600060209050601f83116001811461513f576000841561512d578287015190505b61513785826150b9565b86555061519f565b601f19841661514d8661441e565b60005b8281101561517557848901518255600182019150602085019450602081019050615150565b86831015615192578489015161518e601f89168261509b565b8355505b6001600288020188555050505b505050505050565b60006151b282613579565b915063ffffffff82036151c8576151c761460d565b5b600182019050919050565b60006151df8385614413565b93506151ec83858461373e565b82840190509392505050565b60006152058284866151d3565b91508190509392505050565b600081519050615220816135d1565b92915050565b60006020828403121561523c5761523b6135bd565b5b600061524a84828501615211565b91505092915050565b60006080820190506152686000830187613927565b818103602083015261527a8186613cfe565b9050818103604083015261528e8185613cfe565b905061529d6060830184613835565b95945050505050565b7f457363726f772061646472657373206e6f742073657400000000000000000000600082015250565b60006152dc601683613cc3565b91506152e7826152a6565b602082019050919050565b6000602082019050818103600083015261530b816152cf565b9050919050565b7f4e4654207375626d697373696f6e20646561646c696e6520686173206e6f742060008201527f7061737365642079657400000000000000000000000000000000000000000000602082015250565b600061536e602a83613cc3565b915061537982615312565b604082019050919050565b6000602082019050818103600083015261539d81615361565b9050919050565b60006153b76153b28461370d565b6136f2565b9050828152602081018484840111156153d3576153d261367c565b5b6153de848285613cd4565b509392505050565b600082601f8301126153fb576153fa613677565b5b815161540b8482602086016153a4565b91505092915050565b60006020828403121561542a576154296135bd565b5b600082015167ffffffffffffffff811115615448576154476135c2565b5b615454848285016153e6565b91505092915050565b600060608201905081810360008301526154778186613cfe565b9050818103602083015261548b8185613cfe565b905061549a6040830184613835565b949350505050565b7f4e4654207375626d697373696f6e206973206e6f7420616c6c6f77656420666f60008201527f7220746869732061647665727400000000000000000000000000000000000000602082015250565b60006154fe602d83613cc3565b9150615509826154a2565b604082019050919050565b6000602082019050818103600083015261552d816154f1565b9050919050565b7f41647665727420646f6573206e6f742065786973740000000000000000000000600082015250565b600061556a601583613cc3565b915061557582615534565b602082019050919050565b600060208201905081810360008301526155998161555d565b9050919050565b7f5375626d697373696f6e732061726520636c6f73656420666f7220746869732060008201527f6164766572740000000000000000000000000000000000000000000000000000602082015250565b60006155fc602683613cc3565b9150615607826155a0565b604082019050919050565b6000602082019050818103600083015261562b816155ef565b9050919050565b600061563e8385613cc3565b935061564b83858461373e565b61565483613681565b840190509392505050565b60006040820190506156746000830186613fa4565b8181036020830152615687818486615632565b9050949350505050565b600060208201905081810360008301526156ac818486615632565b90509392505050565b7f4e487b7100000000000000000000000000000000000000000000000000000000600052601260045260246000fd5b60006156ef82613579565b91506156fa83613579565b92508261570a576157096156b5565b5b828204905092915050565b600061572082613579565b915061572b83613579565b92508261573b5761573a6156b5565b5b828206905092915050565b7f59656172206d7573742062652067726561746572207468616e206f722065717560008201527f616c20746f203139373000000000000000000000000000000000000000000000602082015250565b60006157a2602a83613cc3565b91506157ad82615746565b604082019050919050565b600060208201905081810360008301526157d181615795565b9050919050565b7f4d6f6e7468206d757374206265206265747765656e203120616e642031320000600082015250565b600061580e601e83613cc3565b9150615819826157d8565b602082019050919050565b6000602082019050818103600083015261583d81615801565b9050919050565b7f446179206d757374206265206265747765656e203120616e6420333100000000600082015250565b600061587a601c83613cc3565b915061588582615844565b602082019050919050565b600060208201905081810360008301526158a98161586d565b9050919050565b600081905092915050565b60008190508160005260206000209050919050565b600081546158dd816143e2565b6158e781866158b0565b9450600182166000811461590257600181146159175761594a565b60ff198316865281151582028601935061594a565b615920856158bb565b60005b8381101561594257815481890152600182019150602081019050615923565b838801955050505b50505092915050565b600061595f82846158d0565b915081905092915050565b6000615975826135c7565b9150615980836135c7565b92508282039050818111156159985761599761460d565b5b92915050565b60006159a9826135c7565b91506159b4836135c7565b92508282026159c2816135c7565b915082820484148315176159d9576159d861460d565b5b5092915050565b600062ffffff82169050919050565b60006159fa826159e0565b9150615a05836159e0565b9250828202615a13816159e0565b9150808214615a2557615a2461460d565b5b5092915050565b6000615a37826135fd565b9150615a42836135fd565b925082615a5257615a516156b5565b5b828206905092915050565b600060ff82169050919050565b6000615a7582615a5d565b9150615a8083615a5d565b9250828203905060ff811115615a9957615a9861460d565b5b9291505056fea2646970667358221220e785654d5beb079fc90ef044822df51b214a3ebae172f61fce8dccdc86f6eed264736f6c63430008180033",
			"opcodes": "PUSH1 0x80 PUSH1 0x40 MSTORE CALLVALUE DUP1 ISZERO PUSH2 0x10 JUMPI PUSH1 0x0 DUP1 REVERT JUMPDEST POP CALLER PUSH1 0x0 DUP1 PUSH2 0x100 EXP DUP2 SLOAD DUP2 PUSH20 0xFFFFFFFFFFFFFFFFFFFFFFFFFFFFFFFFFFFFFFFF MUL NOT AND SWAP1 DUP4 PUSH20 0xFFFFFFFFFFFFFFFFFFFFFFFFFFFFFFFFFFFFFFFF AND MUL OR SWAP1 SSTORE POP PUSH2 0x5AD5 DUP1 PUSH3 0x61 PUSH1 0x0 CODECOPY PUSH1 0x0 RETURN INVALID PUSH1 0x80 PUSH1 0x40 MSTORE PUSH1 0x4 CALLDATASIZE LT PUSH2 0x1B7 JUMPI PUSH1 0x0 CALLDATALOAD PUSH1 0xE0 SHR DUP1 PUSH4 0x8DA9BA84 GT PUSH2 0xEC JUMPI DUP1 PUSH4 0xC10C3546 GT PUSH2 0x8A JUMPI DUP1 PUSH4 0xCDA2DF8F GT PUSH2 0x64 JUMPI DUP1 PUSH4 0xCDA2DF8F EQ PUSH2 0x663 JUMPI DUP1 PUSH4 0xD9EAF1D6 EQ PUSH2 0x6A0 JUMPI DUP1 PUSH4 0xEE20F961 EQ PUSH2 0x6DE JUMPI DUP1 PUSH4 0xF6A2271A EQ PUSH2 0x707 JUMPI PUSH2 0x1B7 JUMP JUMPDEST DUP1 PUSH4 0xC10C3546 EQ PUSH2 0x5DF JUMPI DUP1 PUSH4 0xC1E57AD3 EQ PUSH2 0x608 JUMPI DUP1 PUSH4 0xC384837C EQ PUSH2 0x624 JUMPI PUSH2 0x1B7 JUMP JUMPDEST DUP1 PUSH4 0xA5FC8394 GT PUSH2 0xC6 JUMPI DUP1 PUSH4 0xA5FC8394 EQ PUSH2 0x527 JUMPI DUP1 PUSH4 0xA7CCABDF EQ PUSH2 0x564 JUMPI DUP1 PUSH4 0xA97C7CA9 EQ PUSH2 0x58D JUMPI DUP1 PUSH4 0xB77FA8E5 EQ PUSH2 0x5B6 JUMPI PUSH2 0x1B7 JUMP JUMPDEST DUP1 PUSH4 0x8DA9BA84 EQ PUSH2 0x470 JUMPI DUP1 PUSH4 0x91B0193C EQ PUSH2 0x4AD JUMPI DUP1 PUSH4 0x9E28F69E EQ PUSH2 0x4EA JUMPI PUSH2 0x1B7 JUMP JUMPDEST DUP1 PUSH4 0x597677A4 GT PUSH2 0x159 JUMPI DUP1 PUSH4 0x733FDCEC GT PUSH2 0x133 JUMPI DUP1 PUSH4 0x733FDCEC EQ PUSH2 0x38C JUMPI DUP1 PUSH4 0x743F462F EQ PUSH2 0x3C9 JUMPI DUP1 PUSH4 0x820B606D EQ PUSH2 0x408 JUMPI DUP1 PUSH4 0x8DA5CB5B EQ PUSH2 0x445 JUMPI PUSH2 0x1B7 JUMP JUMPDEST DUP1 PUSH4 0x597677A4 EQ PUSH2 0x2E6 JUMPI DUP1 PUSH4 0x5B09C868 EQ PUSH2 0x323 JUMPI DUP1 PUSH4 0x6D2C885E EQ PUSH2 0x360 JUMPI PUSH2 0x1B7 JUMP JUMPDEST DUP1 PUSH4 0x3E812FD0 GT PUSH2 0x195 JUMPI DUP1 PUSH4 0x3E812FD0 EQ PUSH2 0x24D JUMPI DUP1 PUSH4 0x4D5B0F77 EQ PUSH2 0x276 JUMPI DUP1 PUSH4 0x557ED1BA EQ PUSH2 0x29F JUMPI DUP1 PUSH4 0x58B279CA EQ PUSH2 0x2CA JUMPI PUSH2 0x1B7 JUMP JUMPDEST DUP1 PUSH4 0x8F78B0F EQ PUSH2 0x1BC JUMPI DUP1 PUSH4 0x18B4BB38 EQ PUSH2 0x1E7 JUMPI DUP1 PUSH4 0x3B078A73 EQ PUSH2 0x210 JUMPI JUMPDEST PUSH1 0x0 DUP1 REVERT JUMPDEST CALLVALUE DUP1 ISZERO PUSH2 0x1C8 JUMPI PUSH1 0x0 DUP1 REVERT JUMPDEST POP PUSH2 0x1D1 PUSH2 0x730 JUMP JUMPDEST PUSH1 0x40 MLOAD PUSH2 0x1DE SWAP2 SWAP1 PUSH2 0x3598 JUMP JUMPDEST PUSH1 0x40 MLOAD DUP1 SWAP2 SUB SWAP1 RETURN JUMPDEST CALLVALUE DUP1 ISZERO PUSH2 0x1F3 JUMPI PUSH1 0x0 DUP1 REVERT JUMPDEST POP PUSH2 0x20E PUSH1 0x4 DUP1 CALLDATASIZE SUB DUP2 ADD SWAP1 PUSH2 0x209 SWAP2 SWAP1 PUSH2 0x3637 JUMP JUMPDEST PUSH2 0x746 JUMP JUMPDEST STOP JUMPDEST CALLVALUE DUP1 ISZERO PUSH2 0x21C JUMPI PUSH1 0x0 DUP1 REVERT JUMPDEST POP PUSH2 0x237 PUSH1 0x4 DUP1 CALLDATASIZE SUB DUP2 ADD SWAP1 PUSH2 0x232 SWAP2 SWAP1 PUSH2 0x37BD JUMP JUMPDEST PUSH2 0x9B3 JUMP JUMPDEST PUSH1 0x40 MLOAD PUSH2 0x244 SWAP2 SWAP1 PUSH2 0x3844 JUMP JUMPDEST PUSH1 0x40 MLOAD DUP1 SWAP2 SUB SWAP1 RETURN JUMPDEST CALLVALUE DUP1 ISZERO PUSH2 0x259 JUMPI PUSH1 0x0 DUP1 REVERT JUMPDEST POP PUSH2 0x274 PUSH1 0x4 DUP1 CALLDATASIZE SUB DUP2 ADD SWAP1 PUSH2 0x26F SWAP2 SWAP1 PUSH2 0x388B JUMP JUMPDEST PUSH2 0xA06 JUMP JUMPDEST STOP JUMPDEST CALLVALUE DUP1 ISZERO PUSH2 0x282 JUMPI PUSH1 0x0 DUP1 REVERT JUMPDEST POP PUSH2 0x29D PUSH1 0x4 DUP1 CALLDATASIZE SUB DUP2 ADD SWAP1 PUSH2 0x298 SWAP2 SWAP1 PUSH2 0x38CB JUMP JUMPDEST PUSH2 0xC9B JUMP JUMPDEST STOP JUMPDEST CALLVALUE DUP1 ISZERO PUSH2 0x2AB JUMPI PUSH1 0x0 DUP1 REVERT JUMPDEST POP PUSH2 0x2B4 PUSH2 0xEDB JUMP JUMPDEST PUSH1 0x40 MLOAD PUSH2 0x2C1 SWAP2 SWAP1 PUSH2 0x3936 JUMP JUMPDEST PUSH1 0x40 MLOAD DUP1 SWAP2 SUB SWAP1 RETURN JUMPDEST PUSH2 0x2E4 PUSH1 0x4 DUP1 CALLDATASIZE SUB DUP2 ADD SWAP1 PUSH2 0x2DF SWAP2 SWAP1 PUSH2 0x39B1 JUMP JUMPDEST PUSH2 0xEE3 JUMP JUMPDEST STOP JUMPDEST CALLVALUE DUP1 ISZERO PUSH2 0x2F2 JUMPI PUSH1 0x0 DUP1 REVERT JUMPDEST POP PUSH2 0x30D PUSH1 0x4 DUP1 CALLDATASIZE SUB DUP2 ADD SWAP1 PUSH2 0x308 SWAP2 SWAP1 PUSH2 0x3A25 JUMP JUMPDEST PUSH2 0x11ED JUMP JUMPDEST PUSH1 0x40 MLOAD PUSH2 0x31A SWAP2 SWAP1 PUSH2 0x3A6D JUMP JUMPDEST PUSH1 0x40 MLOAD DUP1 SWAP2 SUB SWAP1 RETURN JUMPDEST CALLVALUE DUP1 ISZERO PUSH2 0x32F JUMPI PUSH1 0x0 DUP1 REVERT JUMPDEST POP PUSH2 0x34A PUSH1 0x4 DUP1 CALLDATASIZE SUB DUP2 ADD SWAP1 PUSH2 0x345 SWAP2 SWAP1 PUSH2 0x3A88 JUMP JUMPDEST PUSH2 0x120D JUMP JUMPDEST PUSH1 0x40 MLOAD PUSH2 0x357 SWAP2 SWAP1 PUSH2 0x3AEA JUMP JUMPDEST PUSH1 0x40 MLOAD DUP1 SWAP2 SUB SWAP1 RETURN JUMPDEST CALLVALUE DUP1 ISZERO PUSH2 0x36C JUMPI PUSH1 0x0 DUP1 REVERT JUMPDEST POP PUSH2 0x375 PUSH2 0x123B JUMP JUMPDEST PUSH1 0x40 MLOAD PUSH2 0x383 SWAP3 SWAP2 SWAP1 PUSH2 0x3C81 JUMP JUMPDEST PUSH1 0x40 MLOAD DUP1 SWAP2 SUB SWAP1 RETURN JUMPDEST CALLVALUE DUP1 ISZERO PUSH2 0x398 JUMPI PUSH1 0x0 DUP1 REVERT JUMPDEST POP PUSH2 0x3B3 PUSH1 0x4 DUP1 CALLDATASIZE SUB DUP2 ADD SWAP1 PUSH2 0x3AE SWAP2 SWAP1 PUSH2 0x3A88 JUMP JUMPDEST PUSH2 0x1316 JUMP JUMPDEST PUSH1 0x40 MLOAD PUSH2 0x3C0 SWAP2 SWAP1 PUSH2 0x3D37 JUMP JUMPDEST PUSH1 0x40 MLOAD DUP1 SWAP2 SUB SWAP1 RETURN JUMPDEST CALLVALUE DUP1 ISZERO PUSH2 0x3D5 JUMPI PUSH1 0x0 DUP1 REVERT JUMPDEST POP PUSH2 0x3F0 PUSH1 0x4 DUP1 CALLDATASIZE SUB DUP2 ADD SWAP1 PUSH2 0x3EB SWAP2 SWAP1 PUSH2 0x3A25 JUMP JUMPDEST PUSH2 0x13CC JUMP JUMPDEST PUSH1 0x40 MLOAD PUSH2 0x3FF SWAP4 SWAP3 SWAP2 SWAP1 PUSH2 0x3E65 JUMP JUMPDEST PUSH1 0x40 MLOAD DUP1 SWAP2 SUB SWAP1 RETURN JUMPDEST CALLVALUE DUP1 ISZERO PUSH2 0x414 JUMPI PUSH1 0x0 DUP1 REVERT JUMPDEST POP PUSH2 0x42F PUSH1 0x4 DUP1 CALLDATASIZE SUB DUP2 ADD SWAP1 PUSH2 0x42A SWAP2 SWAP1 PUSH2 0x3EB1 JUMP JUMPDEST PUSH2 0x19F4 JUMP JUMPDEST PUSH1 0x40 MLOAD PUSH2 0x43C SWAP2 SWAP1 PUSH2 0x3F50 JUMP JUMPDEST PUSH1 0x40 MLOAD DUP1 SWAP2 SUB SWAP1 RETURN JUMPDEST CALLVALUE DUP1 ISZERO PUSH2 0x451 JUMPI PUSH1 0x0 DUP1 REVERT JUMPDEST POP PUSH2 0x45A PUSH2 0x1B91 JUMP JUMPDEST PUSH1 0x40 MLOAD PUSH2 0x467 SWAP2 SWAP1 PUSH2 0x3FB3 JUMP JUMPDEST PUSH1 0x40 MLOAD DUP1 SWAP2 SUB SWAP1 RETURN JUMPDEST CALLVALUE DUP1 ISZERO PUSH2 0x47C JUMPI PUSH1 0x0 DUP1 REVERT JUMPDEST POP PUSH2 0x497 PUSH1 0x4 DUP1 CALLDATASIZE SUB DUP2 ADD SWAP1 PUSH2 0x492 SWAP2 SWAP1 PUSH2 0x3EB1 JUMP JUMPDEST PUSH2 0x1BB5 JUMP JUMPDEST PUSH1 0x40 MLOAD PUSH2 0x4A4 SWAP2 SWAP1 PUSH2 0x3936 JUMP JUMPDEST PUSH1 0x40 MLOAD DUP1 SWAP2 SUB SWAP1 RETURN JUMPDEST CALLVALUE DUP1 ISZERO PUSH2 0x4B9 JUMPI PUSH1 0x0 DUP1 REVERT JUMPDEST POP PUSH2 0x4D4 PUSH1 0x4 DUP1 CALLDATASIZE SUB DUP2 ADD SWAP1 PUSH2 0x4CF SWAP2 SWAP1 PUSH2 0x3EB1 JUMP JUMPDEST PUSH2 0x1BD9 JUMP JUMPDEST PUSH1 0x40 MLOAD PUSH2 0x4E1 SWAP2 SWAP1 PUSH2 0x3844 JUMP JUMPDEST PUSH1 0x40 MLOAD DUP1 SWAP2 SUB SWAP1 RETURN JUMPDEST CALLVALUE DUP1 ISZERO PUSH2 0x4F6 JUMPI PUSH1 0x0 DUP1 REVERT JUMPDEST POP PUSH2 0x511 PUSH1 0x4 DUP1 CALLDATASIZE SUB DUP2 ADD SWAP1 PUSH2 0x50C SWAP2 SWAP1 PUSH2 0x3EB1 JUMP JUMPDEST PUSH2 0x1C11 JUMP JUMPDEST PUSH1 0x40 MLOAD PUSH2 0x51E SWAP2 SWAP1 PUSH2 0x3AEA JUMP JUMPDEST PUSH1 0x40 MLOAD DUP1 SWAP2 SUB SWAP1 RETURN JUMPDEST CALLVALUE DUP1 ISZERO PUSH2 0x533 JUMPI PUSH1 0x0 DUP1 REVERT JUMPDEST POP PUSH2 0x54E PUSH1 0x4 DUP1 CALLDATASIZE SUB DUP2 ADD SWAP1 PUSH2 0x549 SWAP2 SWAP1 PUSH2 0x3A88 JUMP JUMPDEST PUSH2 0x1CF6 JUMP JUMPDEST PUSH1 0x40 MLOAD PUSH2 0x55B SWAP2 SWAP1 PUSH2 0x3844 JUMP JUMPDEST PUSH1 0x40 MLOAD DUP1 SWAP2 SUB SWAP1 RETURN JUMPDEST CALLVALUE DUP1 ISZERO PUSH2 0x570 JUMPI PUSH1 0x0 DUP1 REVERT JUMPDEST POP PUSH2 0x58B PUSH1 0x4 DUP1 CALLDATASIZE SUB DUP2 ADD SWAP1 PUSH2 0x586 SWAP2 SWAP1 PUSH2 0x3FFA JUMP JUMPDEST PUSH2 0x1D2D JUMP JUMPDEST STOP JUMPDEST CALLVALUE DUP1 ISZERO PUSH2 0x599 JUMPI PUSH1 0x0 DUP1 REVERT JUMPDEST POP PUSH2 0x5B4 PUSH1 0x4 DUP1 CALLDATASIZE SUB DUP2 ADD SWAP1 PUSH2 0x5AF SWAP2 SWAP1 PUSH2 0x3A25 JUMP JUMPDEST PUSH2 0x1DFF JUMP JUMPDEST STOP JUMPDEST CALLVALUE DUP1 ISZERO PUSH2 0x5C2 JUMPI PUSH1 0x0 DUP1 REVERT JUMPDEST POP PUSH2 0x5DD PUSH1 0x4 DUP1 CALLDATASIZE SUB DUP2 ADD SWAP1 PUSH2 0x5D8 SWAP2 SWAP1 PUSH2 0x4027 JUMP JUMPDEST PUSH2 0x20E9 JUMP JUMPDEST STOP JUMPDEST CALLVALUE DUP1 ISZERO PUSH2 0x5EB JUMPI PUSH1 0x0 DUP1 REVERT JUMPDEST POP PUSH2 0x606 PUSH1 0x4 DUP1 CALLDATASIZE SUB DUP2 ADD SWAP1 PUSH2 0x601 SWAP2 SWAP1 PUSH2 0x3FFA JUMP JUMPDEST PUSH2 0x220C JUMP JUMPDEST STOP JUMPDEST PUSH2 0x622 PUSH1 0x4 DUP1 CALLDATASIZE SUB DUP2 ADD SWAP1 PUSH2 0x61D SWAP2 SWAP1 PUSH2 0x40B2 JUMP JUMPDEST PUSH2 0x22DE JUMP JUMPDEST STOP JUMPDEST CALLVALUE DUP1 ISZERO PUSH2 0x630 JUMPI PUSH1 0x0 DUP1 REVERT JUMPDEST POP PUSH2 0x64B PUSH1 0x4 DUP1 CALLDATASIZE SUB DUP2 ADD SWAP1 PUSH2 0x646 SWAP2 SWAP1 PUSH2 0x3EB1 JUMP JUMPDEST PUSH2 0x2685 JUMP JUMPDEST PUSH1 0x40 MLOAD PUSH2 0x65A SWAP4 SWAP3 SWAP2 SWAP1 PUSH2 0x4112 JUMP JUMPDEST PUSH1 0x40 MLOAD DUP1 SWAP2 SUB SWAP1 RETURN JUMPDEST CALLVALUE DUP1 ISZERO PUSH2 0x66F JUMPI PUSH1 0x0 DUP1 REVERT JUMPDEST POP PUSH2 0x68A PUSH1 0x4 DUP1 CALLDATASIZE SUB DUP2 ADD SWAP1 PUSH2 0x685 SWAP2 SWAP1 PUSH2 0x3A25 JUMP JUMPDEST PUSH2 0x2747 JUMP JUMPDEST PUSH1 0x40 MLOAD PUSH2 0x697 SWAP2 SWAP1 PUSH2 0x4150 JUMP JUMPDEST PUSH1 0x40 MLOAD DUP1 SWAP2 SUB SWAP1 RETURN JUMPDEST CALLVALUE DUP1 ISZERO PUSH2 0x6AC JUMPI PUSH1 0x0 DUP1 REVERT JUMPDEST POP PUSH2 0x6C7 PUSH1 0x4 DUP1 CALLDATASIZE SUB DUP2 ADD SWAP1 PUSH2 0x6C2 SWAP2 SWAP1 PUSH2 0x3A25 JUMP JUMPDEST PUSH2 0x2B62 JUMP JUMPDEST PUSH1 0x40 MLOAD PUSH2 0x6D5 SWAP3 SWAP2 SWAP1 PUSH2 0x4172 JUMP JUMPDEST PUSH1 0x40 MLOAD DUP1 SWAP2 SUB SWAP1 RETURN JUMPDEST CALLVALUE DUP1 ISZERO PUSH2 0x6EA JUMPI PUSH1 0x0 DUP1 REVERT JUMPDEST POP PUSH2 0x705 PUSH1 0x4 DUP1 CALLDATASIZE SUB DUP2 ADD SWAP1 PUSH2 0x700 SWAP2 SWAP1 PUSH2 0x41A2 JUMP JUMPDEST PUSH2 0x2C9C JUMP JUMPDEST STOP JUMPDEST CALLVALUE DUP1 ISZERO PUSH2 0x713 JUMPI PUSH1 0x0 DUP1 REVERT JUMPDEST POP PUSH2 0x72E PUSH1 0x4 DUP1 CALLDATASIZE SUB DUP2 ADD SWAP1 PUSH2 0x729 SWAP2 SWAP1 PUSH2 0x4259 JUMP JUMPDEST PUSH2 0x2D26 JUMP JUMPDEST STOP JUMPDEST PUSH1 0x7 PUSH1 0x0 SWAP1 SLOAD SWAP1 PUSH2 0x100 EXP SWAP1 DIV PUSH4 0xFFFFFFFF AND DUP2 JUMP JUMPDEST PUSH1 0x0 DUP1 SLOAD SWAP1 PUSH2 0x100 EXP SWAP1 DIV PUSH20 0xFFFFFFFFFFFFFFFFFFFFFFFFFFFFFFFFFFFFFFFF AND PUSH20 0xFFFFFFFFFFFFFFFFFFFFFFFFFFFFFFFFFFFFFFFF AND CALLER PUSH20 0xFFFFFFFFFFFFFFFFFFFFFFFFFFFFFFFFFFFFFFFF AND EQ PUSH2 0x7D4 JUMPI PUSH1 0x40 MLOAD PUSH32 0x8C379A000000000000000000000000000000000000000000000000000000000 DUP2 MSTORE PUSH1 0x4 ADD PUSH2 0x7CB SWAP1 PUSH2 0x42E5 JUMP JUMPDEST PUSH1 0x40 MLOAD DUP1 SWAP2 SUB SWAP1 REVERT JUMPDEST PUSH1 0x7 PUSH1 0x4 SWAP1 SLOAD SWAP1 PUSH2 0x100 EXP SWAP1 DIV PUSH20 0xFFFFFFFFFFFFFFFFFFFFFFFFFFFFFFFFFFFFFFFF AND PUSH20 0xFFFFFFFFFFFFFFFFFFFFFFFFFFFFFFFFFFFFFFFF AND PUSH3 0x923F9E DUP4 PUSH1 0x40 MLOAD DUP3 PUSH4 0xFFFFFFFF AND PUSH1 0xE0 SHL DUP2 MSTORE PUSH1 0x4 ADD PUSH2 0x82E SWAP2 SWAP1 PUSH2 0x3936 JUMP JUMPDEST PUSH1 0x20 PUSH1 0x40 MLOAD DUP1 DUP4 SUB DUP2 DUP7 GAS STATICCALL ISZERO DUP1 ISZERO PUSH2 0x84B JUMPI RETURNDATASIZE PUSH1 0x0 DUP1 RETURNDATACOPY RETURNDATASIZE PUSH1 0x0 REVERT JUMPDEST POP POP POP POP PUSH1 0x40 MLOAD RETURNDATASIZE PUSH1 0x1F NOT PUSH1 0x1F DUP3 ADD AND DUP3 ADD DUP1 PUSH1 0x40 MSTORE POP DUP2 ADD SWAP1 PUSH2 0x86F SWAP2 SWAP1 PUSH2 0x431A JUMP JUMPDEST PUSH2 0x8AE JUMPI PUSH1 0x40 MLOAD PUSH32 0x8C379A000000000000000000000000000000000000000000000000000000000 DUP2 MSTORE PUSH1 0x4 ADD PUSH2 0x8A5 SWAP1 PUSH2 0x4393 JUMP JUMPDEST PUSH1 0x40 MLOAD DUP1 SWAP2 SUB SWAP1 REVERT JUMPDEST DUP1 PUSH1 0xA PUSH1 0x0 DUP5 DUP2 MSTORE PUSH1 0x20 ADD SWAP1 DUP2 MSTORE PUSH1 0x20 ADD PUSH1 0x0 KECCAK256 PUSH1 0x2 ADD PUSH1 0x0 PUSH2 0x100 EXP DUP2 SLOAD DUP2 PUSH2 0xFFFF MUL NOT AND SWAP1 DUP4 PUSH2 0xFFFF AND MUL OR SWAP1 SSTORE POP PUSH32 0xF2A5AA2F415DA3FF88F530A665E7477C0274DC41F3CDC118CD69F268E59E47DE PUSH1 0xA PUSH1 0x0 DUP5 DUP2 MSTORE PUSH1 0x20 ADD SWAP1 DUP2 MSTORE PUSH1 0x20 ADD PUSH1 0x0 KECCAK256 PUSH1 0x1 ADD PUSH1 0xD PUSH1 0xA PUSH1 0x0 DUP7 DUP2 MSTORE PUSH1 0x20 ADD SWAP1 DUP2 MSTORE PUSH1 0x20 ADD PUSH1 0x0 KECCAK256 PUSH1 0x1 ADD PUSH1 0x40 MLOAD PUSH2 0x93B SWAP2 SWAP1 PUSH2 0x44B6 JUMP JUMPDEST SWAP1 DUP2 MSTORE PUSH1 0x20 ADD PUSH1 0x40 MLOAD DUP1 SWAP2 SUB SWAP1 KECCAK256 DUP4 PUSH1 0x40 MLOAD PUSH2 0x959 SWAP4 SWAP3 SWAP2 SWAP1 PUSH2 0x4551 JUMP JUMPDEST PUSH1 0x40 MLOAD DUP1 SWAP2 SUB SWAP1 LOG1 DUP1 PUSH1 0xE PUSH1 0xA PUSH1 0x0 DUP6 DUP2 MSTORE PUSH1 0x20 ADD SWAP1 DUP2 MSTORE PUSH1 0x20 ADD PUSH1 0x0 KECCAK256 PUSH1 0x1 ADD PUSH1 0x40 MLOAD PUSH2 0x987 SWAP2 SWAP1 PUSH2 0x44B6 JUMP JUMPDEST SWAP1 DUP2 MSTORE PUSH1 0x20 ADD PUSH1 0x40 MLOAD DUP1 SWAP2 SUB SWAP1 KECCAK256 PUSH1 0x0 PUSH2 0x100 EXP DUP2 SLOAD DUP2 PUSH2 0xFFFF MUL NOT AND SWAP1 DUP4 PUSH2 0xFFFF AND MUL OR SWAP1 SSTORE POP POP POP JUMP JUMPDEST PUSH1 0x0 PUSH1 0xF DUP4 PUSH1 0x40 MLOAD PUSH2 0x9C5 SWAP2 SWAP1 PUSH2 0x45C7 JUMP JUMPDEST SWAP1 DUP2 MSTORE PUSH1 0x20 ADD PUSH1 0x40 MLOAD DUP1 SWAP2 SUB SWAP1 KECCAK256 DUP3 PUSH1 0x40 MLOAD PUSH2 0x9E1 SWAP2 SWAP1 PUSH2 0x45C7 JUMP JUMPDEST SWAP1 DUP2 MSTORE PUSH1 0x20 ADD PUSH1 0x40 MLOAD DUP1 SWAP2 SUB SWAP1 KECCAK256 PUSH1 0x0 SWAP1 SLOAD SWAP1 PUSH2 0x100 EXP SWAP1 DIV PUSH2 0xFFFF AND SWAP1 POP SWAP3 SWAP2 POP POP JUMP JUMPDEST PUSH1 0x0 DUP1 SLOAD SWAP1 PUSH2 0x100 EXP SWAP1 DIV PUSH20 0xFFFFFFFFFFFFFFFFFFFFFFFFFFFFFFFFFFFFFFFF AND PUSH20 0xFFFFFFFFFFFFFFFFFFFFFFFFFFFFFFFFFFFFFFFF AND CALLER PUSH20 0xFFFFFFFFFFFFFFFFFFFFFFFFFFFFFFFFFFFFFFFF AND EQ PUSH2 0xA94 JUMPI PUSH1 0x40 MLOAD PUSH32 0x8C379A000000000000000000000000000000000000000000000000000000000 DUP2 MSTORE PUSH1 0x4 ADD PUSH2 0xA8B SWAP1 PUSH2 0x42E5 JUMP JUMPDEST PUSH1 0x40 MLOAD DUP1 SWAP2 SUB SWAP1 REVERT JUMPDEST PUSH1 0x0 PUSH2 0xA9F DUP4 PUSH2 0x2747 JUMP JUMPDEST SWAP1 POP DUP1 MLOAD PUSH8 0xFFFFFFFFFFFFFFFF DUP2 GT ISZERO PUSH2 0xABC JUMPI PUSH2 0xABB PUSH2 0x3692 JUMP JUMPDEST JUMPDEST PUSH1 0x40 MLOAD SWAP1 DUP1 DUP3 MSTORE DUP1 PUSH1 0x20 MUL PUSH1 0x20 ADD DUP3 ADD PUSH1 0x40 MSTORE DUP1 ISZERO PUSH2 0xAEA JUMPI DUP2 PUSH1 0x20 ADD PUSH1 0x20 DUP3 MUL DUP1 CALLDATASIZE DUP4 CALLDATACOPY DUP1 DUP3 ADD SWAP2 POP POP SWAP1 POP JUMPDEST POP PUSH1 0x2 SWAP1 DUP1 MLOAD SWAP1 PUSH1 0x20 ADD SWAP1 PUSH2 0xB00 SWAP3 SWAP2 SWAP1 PUSH2 0x33F3 JUMP JUMPDEST POP DUP1 MLOAD PUSH8 0xFFFFFFFFFFFFFFFF DUP2 GT ISZERO PUSH2 0xB1C JUMPI PUSH2 0xB1B PUSH2 0x3692 JUMP JUMPDEST JUMPDEST PUSH1 0x40 MLOAD SWAP1 DUP1 DUP3 MSTORE DUP1 PUSH1 0x20 MUL PUSH1 0x20 ADD DUP3 ADD PUSH1 0x40 MSTORE DUP1 ISZERO PUSH2 0xB4A JUMPI DUP2 PUSH1 0x20 ADD PUSH1 0x20 DUP3 MUL DUP1 CALLDATASIZE DUP4 CALLDATACOPY DUP1 DUP3 ADD SWAP2 POP POP SWAP1 POP JUMPDEST POP PUSH1 0x3 SWAP1 DUP1 MLOAD SWAP1 PUSH1 0x20 ADD SWAP1 PUSH2 0xB60 SWAP3 SWAP2 SWAP1 PUSH2 0x3440 JUMP JUMPDEST POP PUSH1 0x0 DUP1 JUMPDEST DUP3 MLOAD DUP2 LT ISZERO PUSH2 0xC4A JUMPI PUSH1 0x0 DUP4 DUP3 DUP2 MLOAD DUP2 LT PUSH2 0xB83 JUMPI PUSH2 0xB82 PUSH2 0x45DE JUMP JUMPDEST JUMPDEST PUSH1 0x20 MUL PUSH1 0x20 ADD ADD MLOAD SWAP1 POP PUSH1 0x0 PUSH1 0xA PUSH1 0x0 DUP4 DUP2 MSTORE PUSH1 0x20 ADD SWAP1 DUP2 MSTORE PUSH1 0x20 ADD PUSH1 0x0 KECCAK256 PUSH1 0x2 ADD PUSH1 0x0 SWAP1 SLOAD SWAP1 PUSH2 0x100 EXP SWAP1 DIV PUSH2 0xFFFF AND SWAP1 POP DUP6 PUSH2 0xFFFF AND DUP2 PUSH2 0xFFFF AND LT PUSH2 0xC3B JUMPI DUP2 PUSH1 0x2 DUP6 DUP2 SLOAD DUP2 LT PUSH2 0xBDA JUMPI PUSH2 0xBD9 PUSH2 0x45DE JUMP JUMPDEST JUMPDEST SWAP1 PUSH1 0x0 MSTORE PUSH1 0x20 PUSH1 0x0 KECCAK256 ADD DUP2 SWAP1 SSTORE POP DUP1 PUSH1 0x3 DUP6 DUP2 SLOAD DUP2 LT PUSH2 0xBFD JUMPI PUSH2 0xBFC PUSH2 0x45DE JUMP JUMPDEST JUMPDEST SWAP1 PUSH1 0x0 MSTORE PUSH1 0x20 PUSH1 0x0 KECCAK256 SWAP1 PUSH1 0x10 SWAP2 DUP3 DUP3 DIV ADD SWAP2 SWAP1 MOD PUSH1 0x2 MUL PUSH2 0x100 EXP DUP2 SLOAD DUP2 PUSH2 0xFFFF MUL NOT AND SWAP1 DUP4 PUSH2 0xFFFF AND MUL OR SWAP1 SSTORE POP DUP4 DUP1 PUSH2 0xC37 SWAP1 PUSH2 0x463C JUMP JUMPDEST SWAP5 POP POP JUMPDEST POP POP DUP1 DUP1 PUSH1 0x1 ADD SWAP2 POP POP PUSH2 0xB65 JUMP JUMPDEST POP DUP1 PUSH1 0x2 MSTORE DUP1 PUSH1 0x3 MSTORE DUP4 PUSH4 0xFFFFFFFF AND PUSH32 0x9084F86F4BE525F8F79BA26712FC72947C9600ADC9449AFAB8EEB0226712901A PUSH1 0x2 PUSH1 0x3 PUSH1 0x40 MLOAD PUSH2 0xC8D SWAP3 SWAP2 SWAP1 PUSH2 0x4E41 JUMP JUMPDEST PUSH1 0x40 MLOAD DUP1 SWAP2 SUB SWAP1 LOG2 POP POP POP POP JUMP JUMPDEST PUSH1 0x7 PUSH1 0x4 SWAP1 SLOAD SWAP1 PUSH2 0x100 EXP SWAP1 DIV PUSH20 0xFFFFFFFFFFFFFFFFFFFFFFFFFFFFFFFFFFFFFFFF AND PUSH20 0xFFFFFFFFFFFFFFFFFFFFFFFFFFFFFFFFFFFFFFFF AND PUSH3 0x923F9E DUP4 PUSH1 0x40 MLOAD DUP3 PUSH4 0xFFFFFFFF AND PUSH1 0xE0 SHL DUP2 MSTORE PUSH1 0x4 ADD PUSH2 0xCF5 SWAP2 SWAP1 PUSH2 0x3936 JUMP JUMPDEST PUSH1 0x20 PUSH1 0x40 MLOAD DUP1 DUP4 SUB DUP2 DUP7 GAS STATICCALL ISZERO DUP1 ISZERO PUSH2 0xD12 JUMPI RETURNDATASIZE PUSH1 0x0 DUP1 RETURNDATACOPY RETURNDATASIZE PUSH1 0x0 REVERT JUMPDEST POP POP POP POP PUSH1 0x40 MLOAD RETURNDATASIZE PUSH1 0x1F NOT PUSH1 0x1F DUP3 ADD AND DUP3 ADD DUP1 PUSH1 0x40 MSTORE POP DUP2 ADD SWAP1 PUSH2 0xD36 SWAP2 SWAP1 PUSH2 0x431A JUMP JUMPDEST PUSH2 0xD75 JUMPI PUSH1 0x40 MLOAD PUSH32 0x8C379A000000000000000000000000000000000000000000000000000000000 DUP2 MSTORE PUSH1 0x4 ADD PUSH2 0xD6C SWAP1 PUSH2 0x4393 JUMP JUMPDEST PUSH1 0x40 MLOAD DUP1 SWAP2 SUB SWAP1 REVERT JUMPDEST PUSH1 0xA PUSH1 0x0 DUP4 DUP2 MSTORE PUSH1 0x20 ADD SWAP1 DUP2 MSTORE PUSH1 0x20 ADD PUSH1 0x0 KECCAK256 PUSH1 0x0 DUP1 DUP3 ADD PUSH1 0x0 SWAP1 SSTORE PUSH1 0x1 DUP3 ADD PUSH1 0x0 PUSH2 0xDA1 SWAP2 SWAP1 PUSH2 0x34EA JUMP JUMPDEST PUSH1 0x2 DUP3 ADD PUSH1 0x0 PUSH2 0x100 EXP DUP2 SLOAD SWAP1 PUSH2 0xFFFF MUL NOT AND SWAP1 SSTORE PUSH1 0x2 DUP3 ADD PUSH1 0x2 PUSH2 0x100 EXP DUP2 SLOAD SWAP1 PUSH4 0xFFFFFFFF MUL NOT AND SWAP1 SSTORE POP POP PUSH1 0xC DUP2 PUSH1 0x40 MLOAD PUSH2 0xDDF SWAP2 SWAP1 PUSH2 0x45C7 JUMP JUMPDEST SWAP1 DUP2 MSTORE PUSH1 0x20 ADD PUSH1 0x40 MLOAD DUP1 SWAP2 SUB SWAP1 KECCAK256 PUSH1 0x0 SWAP1 SSTORE PUSH1 0xD DUP2 PUSH1 0x40 MLOAD PUSH2 0xE01 SWAP2 SWAP1 PUSH2 0x45C7 JUMP JUMPDEST SWAP1 DUP2 MSTORE PUSH1 0x20 ADD PUSH1 0x40 MLOAD DUP1 SWAP2 SUB SWAP1 KECCAK256 PUSH1 0x0 PUSH2 0xE1B SWAP2 SWAP1 PUSH2 0x34EA JUMP JUMPDEST PUSH1 0xE DUP2 PUSH1 0x40 MLOAD PUSH2 0xE2B SWAP2 SWAP1 PUSH2 0x45C7 JUMP JUMPDEST SWAP1 DUP2 MSTORE PUSH1 0x20 ADD PUSH1 0x40 MLOAD DUP1 SWAP2 SUB SWAP1 KECCAK256 PUSH1 0x0 PUSH2 0x100 EXP DUP2 SLOAD SWAP1 PUSH2 0xFFFF MUL NOT AND SWAP1 SSTORE PUSH1 0x7 PUSH1 0x4 SWAP1 SLOAD SWAP1 PUSH2 0x100 EXP SWAP1 DIV PUSH20 0xFFFFFFFFFFFFFFFFFFFFFFFFFFFFFFFFFFFFFFFF AND PUSH20 0xFFFFFFFFFFFFFFFFFFFFFFFFFFFFFFFFFFFFFFFF AND PUSH4 0x42966C68 DUP4 PUSH1 0x40 MLOAD DUP3 PUSH4 0xFFFFFFFF AND PUSH1 0xE0 SHL DUP2 MSTORE PUSH1 0x4 ADD PUSH2 0xEA5 SWAP2 SWAP1 PUSH2 0x3936 JUMP JUMPDEST PUSH1 0x0 PUSH1 0x40 MLOAD DUP1 DUP4 SUB DUP2 PUSH1 0x0 DUP8 DUP1 EXTCODESIZE ISZERO DUP1 ISZERO PUSH2 0xEBF JUMPI PUSH1 0x0 DUP1 REVERT JUMPDEST POP GAS CALL ISZERO DUP1 ISZERO PUSH2 0xED3 JUMPI RETURNDATASIZE PUSH1 0x0 DUP1 RETURNDATACOPY RETURNDATASIZE PUSH1 0x0 REVERT JUMPDEST POP POP POP POP POP POP JUMP JUMPDEST PUSH1 0x0 TIMESTAMP SWAP1 POP SWAP1 JUMP JUMPDEST PUSH1 0x0 DUP1 SLOAD SWAP1 PUSH2 0x100 EXP SWAP1 DIV PUSH20 0xFFFFFFFFFFFFFFFFFFFFFFFFFFFFFFFFFFFFFFFF AND PUSH20 0xFFFFFFFFFFFFFFFFFFFFFFFFFFFFFFFFFFFFFFFF AND CALLER PUSH20 0xFFFFFFFFFFFFFFFFFFFFFFFFFFFFFFFFFFFFFFFF AND EQ PUSH2 0xF71 JUMPI PUSH1 0x40 MLOAD PUSH32 0x8C379A000000000000000000000000000000000000000000000000000000000 DUP2 MSTORE PUSH1 0x4 ADD PUSH2 0xF68 SWAP1 PUSH2 0x42E5 JUMP JUMPDEST PUSH1 0x40 MLOAD DUP1 SWAP2 SUB SWAP1 REVERT JUMPDEST PUSH1 0x0 TIMESTAMP SWAP1 POP PUSH1 0x0 PUSH2 0xF81 DUP6 PUSH2 0x2E69 JUMP JUMPDEST PUSH2 0xF89 PUSH2 0xEDB JUMP JUMPDEST PUSH2 0xF93 SWAP2 SWAP1 PUSH2 0x4E78 JUMP JUMPDEST SWAP1 POP PUSH2 0xFE2 DUP5 DUP5 DUP1 DUP1 PUSH1 0x1F ADD PUSH1 0x20 DUP1 SWAP2 DIV MUL PUSH1 0x20 ADD PUSH1 0x40 MLOAD SWAP1 DUP2 ADD PUSH1 0x40 MSTORE DUP1 SWAP4 SWAP3 SWAP2 SWAP1 DUP2 DUP2 MSTORE PUSH1 0x20 ADD DUP4 DUP4 DUP1 DUP3 DUP5 CALLDATACOPY PUSH1 0x0 DUP2 DUP5 ADD MSTORE PUSH1 0x1F NOT PUSH1 0x1F DUP3 ADD AND SWAP1 POP DUP1 DUP4 ADD SWAP3 POP POP POP POP POP POP POP PUSH2 0x2FBB JUMP JUMPDEST ISZERO PUSH2 0x1022 JUMPI PUSH1 0x40 MLOAD PUSH32 0x8C379A000000000000000000000000000000000000000000000000000000000 DUP2 MSTORE PUSH1 0x4 ADD PUSH2 0x1019 SWAP1 PUSH2 0x4F1E JUMP JUMPDEST PUSH1 0x40 MLOAD DUP1 SWAP2 SUB SWAP1 REVERT JUMPDEST PUSH2 0x102D DUP7 PUSH1 0x1 PUSH2 0x2D26 JUMP JUMPDEST PUSH2 0x1037 DUP5 DUP5 PUSH2 0x3049 JUMP JUMPDEST PUSH1 0x4 PUSH1 0x2 ADD SWAP1 DUP2 PUSH2 0x1048 SWAP2 SWAP1 PUSH2 0x50D5 JUMP JUMPDEST POP PUSH1 0x40 MLOAD DUP1 PUSH1 0x60 ADD PUSH1 0x40 MSTORE DUP1 DUP8 PUSH4 0xFFFFFFFF AND DUP2 MSTORE PUSH1 0x20 ADD DUP3 DUP2 MSTORE PUSH1 0x20 ADD DUP6 DUP6 DUP1 DUP1 PUSH1 0x1F ADD PUSH1 0x20 DUP1 SWAP2 DIV MUL PUSH1 0x20 ADD PUSH1 0x40 MLOAD SWAP1 DUP2 ADD PUSH1 0x40 MSTORE DUP1 SWAP4 SWAP3 SWAP2 SWAP1 DUP2 DUP2 MSTORE PUSH1 0x20 ADD DUP4 DUP4 DUP1 DUP3 DUP5 CALLDATACOPY PUSH1 0x0 DUP2 DUP5 ADD MSTORE PUSH1 0x1F NOT PUSH1 0x1F DUP3 ADD AND SWAP1 POP DUP1 DUP4 ADD SWAP3 POP POP POP POP POP POP POP DUP2 MSTORE POP PUSH1 0xB PUSH1 0x0 DUP9 PUSH4 0xFFFFFFFF AND DUP2 MSTORE PUSH1 0x20 ADD SWAP1 DUP2 MSTORE PUSH1 0x20 ADD PUSH1 0x0 KECCAK256 PUSH1 0x0 DUP3 ADD MLOAD DUP2 PUSH1 0x0 ADD PUSH1 0x0 PUSH2 0x100 EXP DUP2 SLOAD DUP2 PUSH4 0xFFFFFFFF MUL NOT AND SWAP1 DUP4 PUSH4 0xFFFFFFFF AND MUL OR SWAP1 SSTORE POP PUSH1 0x20 DUP3 ADD MLOAD DUP2 PUSH1 0x1 ADD SSTORE PUSH1 0x40 DUP3 ADD MLOAD DUP2 PUSH1 0x2 ADD SWAP1 DUP2 PUSH2 0x110D SWAP2 SWAP1 PUSH2 0x50D5 JUMP JUMPDEST POP SWAP1 POP POP PUSH1 0x7 PUSH1 0x0 DUP2 DUP2 SWAP1 SLOAD SWAP1 PUSH2 0x100 EXP SWAP1 DIV PUSH4 0xFFFFFFFF AND DUP1 SWAP3 SWAP2 SWAP1 PUSH2 0x1133 SWAP1 PUSH2 0x51A7 JUMP JUMPDEST SWAP2 SWAP1 PUSH2 0x100 EXP DUP2 SLOAD DUP2 PUSH4 0xFFFFFFFF MUL NOT AND SWAP1 DUP4 PUSH4 0xFFFFFFFF AND MUL OR SWAP1 SSTORE POP POP DUP4 DUP4 PUSH1 0x40 MLOAD PUSH2 0x1162 SWAP3 SWAP2 SWAP1 PUSH2 0x51F8 JUMP JUMPDEST PUSH1 0x40 MLOAD DUP1 SWAP2 SUB SWAP1 KECCAK256 PUSH32 0x7D6547A0BCB6462F778BC0DE278E8C3A2390B46CAC557AB976A242BFA37A2EA7 PUSH1 0x40 MLOAD PUSH1 0x40 MLOAD DUP1 SWAP2 SUB SWAP1 LOG2 PUSH1 0x0 PUSH2 0x11AB DUP4 TIMESTAMP PUSH2 0x31C9 SWAP1 SWAP2 SWAP1 PUSH4 0xFFFFFFFF AND JUMP JUMPDEST SWAP1 POP PUSH32 0xF9DA9F410ABECAD36AC458072C4C6251FB6AD3E007F71BB1B15280AA7AA7ACC0 DUP2 PUSH1 0x40 MLOAD PUSH2 0x11DC SWAP2 SWAP1 PUSH2 0x3936 JUMP JUMPDEST PUSH1 0x40 MLOAD DUP1 SWAP2 SUB SWAP1 LOG1 POP POP POP POP POP POP POP JUMP JUMPDEST PUSH1 0x9 PUSH1 0x20 MSTORE DUP1 PUSH1 0x0 MSTORE PUSH1 0x40 PUSH1 0x0 KECCAK256 PUSH1 0x0 SWAP2 POP SLOAD SWAP1 PUSH2 0x100 EXP SWAP1 DIV PUSH1 0xFF AND DUP2 JUMP JUMPDEST PUSH1 0xC DUP2 DUP1 MLOAD PUSH1 0x20 DUP2 ADD DUP3 ADD DUP1 MLOAD DUP5 DUP3 MSTORE PUSH1 0x20 DUP4 ADD PUSH1 0x20 DUP6 ADD KECCAK256 DUP2 DUP4 MSTORE DUP1 SWAP6 POP POP POP POP POP POP PUSH1 0x0 SWAP2 POP SWAP1 POP SLOAD DUP2 JUMP JUMPDEST PUSH1 0x60 DUP1 PUSH1 0x2 PUSH1 0x3 DUP2 DUP1 SLOAD DUP1 PUSH1 0x20 MUL PUSH1 0x20 ADD PUSH1 0x40 MLOAD SWAP1 DUP2 ADD PUSH1 0x40 MSTORE DUP1 SWAP3 SWAP2 SWAP1 DUP2 DUP2 MSTORE PUSH1 0x20 ADD DUP3 DUP1 SLOAD DUP1 ISZERO PUSH2 0x128D JUMPI PUSH1 0x20 MUL DUP3 ADD SWAP2 SWAP1 PUSH1 0x0 MSTORE PUSH1 0x20 PUSH1 0x0 KECCAK256 SWAP1 JUMPDEST DUP2 SLOAD DUP2 MSTORE PUSH1 0x20 ADD SWAP1 PUSH1 0x1 ADD SWAP1 DUP1 DUP4 GT PUSH2 0x1279 JUMPI JUMPDEST POP POP POP POP POP SWAP2 POP DUP1 DUP1 SLOAD DUP1 PUSH1 0x20 MUL PUSH1 0x20 ADD PUSH1 0x40 MLOAD SWAP1 DUP2 ADD PUSH1 0x40 MSTORE DUP1 SWAP3 SWAP2 SWAP1 DUP2 DUP2 MSTORE PUSH1 0x20 ADD DUP3 DUP1 SLOAD DUP1 ISZERO PUSH2 0x1307 JUMPI PUSH1 0x20 MUL DUP3 ADD SWAP2 SWAP1 PUSH1 0x0 MSTORE PUSH1 0x20 PUSH1 0x0 KECCAK256 SWAP1 PUSH1 0x0 SWAP1 JUMPDEST DUP3 DUP3 SWAP1 SLOAD SWAP1 PUSH2 0x100 EXP SWAP1 DIV PUSH2 0xFFFF AND PUSH2 0xFFFF AND DUP2 MSTORE PUSH1 0x20 ADD SWAP1 PUSH1 0x2 ADD SWAP1 PUSH1 0x20 DUP3 PUSH1 0x1 ADD DIV SWAP3 DUP4 ADD SWAP3 PUSH1 0x1 SUB DUP3 MUL SWAP2 POP DUP1 DUP5 GT PUSH2 0x12CE JUMPI SWAP1 POP JUMPDEST POP POP POP POP POP SWAP1 POP SWAP2 POP SWAP2 POP SWAP1 SWAP2 JUMP JUMPDEST PUSH1 0xD DUP2 DUP1 MLOAD PUSH1 0x20 DUP2 ADD DUP3 ADD DUP1 MLOAD DUP5 DUP3 MSTORE PUSH1 0x20 DUP4 ADD PUSH1 0x20 DUP6 ADD KECCAK256 DUP2 DUP4 MSTORE DUP1 SWAP6 POP POP POP POP POP POP PUSH1 0x0 SWAP2 POP SWAP1 POP DUP1 SLOAD PUSH2 0x134B SWAP1 PUSH2 0x43E2 JUMP JUMPDEST DUP1 PUSH1 0x1F ADD PUSH1 0x20 DUP1 SWAP2 DIV MUL PUSH1 0x20 ADD PUSH1 0x40 MLOAD SWAP1 DUP2 ADD PUSH1 0x40 MSTORE DUP1 SWAP3 SWAP2 SWAP1 DUP2 DUP2 MSTORE PUSH1 0x20 ADD DUP3 DUP1 SLOAD PUSH2 0x1377 SWAP1 PUSH2 0x43E2 JUMP JUMPDEST DUP1 ISZERO PUSH2 0x13C4 JUMPI DUP1 PUSH1 0x1F LT PUSH2 0x1399 JUMPI PUSH2 0x100 DUP1 DUP4 SLOAD DIV MUL DUP4 MSTORE SWAP2 PUSH1 0x20 ADD SWAP2 PUSH2 0x13C4 JUMP JUMPDEST DUP3 ADD SWAP2 SWAP1 PUSH1 0x0 MSTORE PUSH1 0x20 PUSH1 0x0 KECCAK256 SWAP1 JUMPDEST DUP2 SLOAD DUP2 MSTORE SWAP1 PUSH1 0x1 ADD SWAP1 PUSH1 0x20 ADD DUP1 DUP4 GT PUSH2 0x13A7 JUMPI DUP3 SWAP1 SUB PUSH1 0x1F AND DUP3 ADD SWAP2 JUMPDEST POP POP POP POP POP DUP2 JUMP JUMPDEST PUSH1 0x60 DUP1 PUSH1 0x60 PUSH1 0x0 DUP1 SLOAD SWAP1 PUSH2 0x100 EXP SWAP1 DIV PUSH20 0xFFFFFFFFFFFFFFFFFFFFFFFFFFFFFFFFFFFFFFFF AND PUSH20 0xFFFFFFFFFFFFFFFFFFFFFFFFFFFFFFFFFFFFFFFF AND CALLER PUSH20 0xFFFFFFFFFFFFFFFFFFFFFFFFFFFFFFFFFFFFFFFF AND EQ PUSH2 0x145F JUMPI PUSH1 0x40 MLOAD PUSH32 0x8C379A000000000000000000000000000000000000000000000000000000000 DUP2 MSTORE PUSH1 0x4 ADD PUSH2 0x1456 SWAP1 PUSH2 0x42E5 JUMP JUMPDEST PUSH1 0x40 MLOAD DUP1 SWAP2 SUB SWAP1 REVERT JUMPDEST PUSH1 0x0 PUSH1 0x7 PUSH1 0x4 SWAP1 SLOAD SWAP1 PUSH2 0x100 EXP SWAP1 DIV PUSH20 0xFFFFFFFFFFFFFFFFFFFFFFFFFFFFFFFFFFFFFFFF AND PUSH20 0xFFFFFFFFFFFFFFFFFFFFFFFFFFFFFFFFFFFFFFFF AND PUSH4 0x18160DDD PUSH1 0x40 MLOAD DUP2 PUSH4 0xFFFFFFFF AND PUSH1 0xE0 SHL DUP2 MSTORE PUSH1 0x4 ADD PUSH1 0x20 PUSH1 0x40 MLOAD DUP1 DUP4 SUB DUP2 DUP7 GAS STATICCALL ISZERO DUP1 ISZERO PUSH2 0x14CE JUMPI RETURNDATASIZE PUSH1 0x0 DUP1 RETURNDATACOPY RETURNDATASIZE PUSH1 0x0 REVERT JUMPDEST POP POP POP POP PUSH1 0x40 MLOAD RETURNDATASIZE PUSH1 0x1F NOT PUSH1 0x1F DUP3 ADD AND DUP3 ADD DUP1 PUSH1 0x40 MSTORE POP DUP2 ADD SWAP1 PUSH2 0x14F2 SWAP2 SWAP1 PUSH2 0x5226 JUMP JUMPDEST SWAP1 POP PUSH1 0x0 DUP2 PUSH8 0xFFFFFFFFFFFFFFFF DUP2 GT ISZERO PUSH2 0x1510 JUMPI PUSH2 0x150F PUSH2 0x3692 JUMP JUMPDEST JUMPDEST PUSH1 0x40 MLOAD SWAP1 DUP1 DUP3 MSTORE DUP1 PUSH1 0x20 MUL PUSH1 0x20 ADD DUP3 ADD PUSH1 0x40 MSTORE DUP1 ISZERO PUSH2 0x153E JUMPI DUP2 PUSH1 0x20 ADD PUSH1 0x20 DUP3 MUL DUP1 CALLDATASIZE DUP4 CALLDATACOPY DUP1 DUP3 ADD SWAP2 POP POP SWAP1 POP JUMPDEST POP SWAP1 POP PUSH1 0x0 DUP3 PUSH8 0xFFFFFFFFFFFFFFFF DUP2 GT ISZERO PUSH2 0x155D JUMPI PUSH2 0x155C PUSH2 0x3692 JUMP JUMPDEST JUMPDEST PUSH1 0x40 MLOAD SWAP1 DUP1 DUP3 MSTORE DUP1 PUSH1 0x20 MUL PUSH1 0x20 ADD DUP3 ADD PUSH1 0x40 MSTORE DUP1 ISZERO PUSH2 0x1590 JUMPI DUP2 PUSH1 0x20 ADD JUMPDEST PUSH1 0x60 DUP2 MSTORE PUSH1 0x20 ADD SWAP1 PUSH1 0x1 SWAP1 SUB SWAP1 DUP2 PUSH2 0x157B JUMPI SWAP1 POP JUMPDEST POP SWAP1 POP PUSH1 0x0 DUP4 PUSH8 0xFFFFFFFFFFFFFFFF DUP2 GT ISZERO PUSH2 0x15AF JUMPI PUSH2 0x15AE PUSH2 0x3692 JUMP JUMPDEST JUMPDEST PUSH1 0x40 MLOAD SWAP1 DUP1 DUP3 MSTORE DUP1 PUSH1 0x20 MUL PUSH1 0x20 ADD DUP3 ADD PUSH1 0x40 MSTORE DUP1 ISZERO PUSH2 0x15E2 JUMPI DUP2 PUSH1 0x20 ADD JUMPDEST PUSH1 0x60 DUP2 MSTORE PUSH1 0x20 ADD SWAP1 PUSH1 0x1 SWAP1 SUB SWAP1 DUP2 PUSH2 0x15CD JUMPI SWAP1 POP JUMPDEST POP SWAP1 POP PUSH1 0x0 DUP1 JUMPDEST DUP6 DUP2 LT ISZERO PUSH2 0x19DE JUMPI PUSH1 0x0 PUSH1 0x7 PUSH1 0x4 SWAP1 SLOAD SWAP1 PUSH2 0x100 EXP SWAP1 DIV PUSH20 0xFFFFFFFFFFFFFFFFFFFFFFFFFFFFFFFFFFFFFFFF AND PUSH20 0xFFFFFFFFFFFFFFFFFFFFFFFFFFFFFFFFFFFFFFFF AND PUSH4 0x4F6CCCE7 DUP4 PUSH1 0x40 MLOAD DUP3 PUSH4 0xFFFFFFFF AND PUSH1 0xE0 SHL DUP2 MSTORE PUSH1 0x4 ADD PUSH2 0x164E SWAP2 SWAP1 PUSH2 0x3936 JUMP JUMPDEST PUSH1 0x20 PUSH1 0x40 MLOAD DUP1 DUP4 SUB DUP2 DUP7 GAS STATICCALL ISZERO DUP1 ISZERO PUSH2 0x166B JUMPI RETURNDATASIZE PUSH1 0x0 DUP1 RETURNDATACOPY RETURNDATASIZE PUSH1 0x0 REVERT JUMPDEST POP POP POP POP PUSH1 0x40 MLOAD RETURNDATASIZE PUSH1 0x1F NOT PUSH1 0x1F DUP3 ADD AND DUP3 ADD DUP1 PUSH1 0x40 MSTORE POP DUP2 ADD SWAP1 PUSH2 0x168F SWAP2 SWAP1 PUSH2 0x5226 JUMP JUMPDEST SWAP1 POP PUSH1 0x7 PUSH1 0x4 SWAP1 SLOAD SWAP1 PUSH2 0x100 EXP SWAP1 DIV PUSH20 0xFFFFFFFFFFFFFFFFFFFFFFFFFFFFFFFFFFFFFFFF AND PUSH20 0xFFFFFFFFFFFFFFFFFFFFFFFFFFFFFFFFFFFFFFFF AND PUSH3 0x923F9E DUP3 PUSH1 0x40 MLOAD DUP3 PUSH4 0xFFFFFFFF AND PUSH1 0xE0 SHL DUP2 MSTORE PUSH1 0x4 ADD PUSH2 0x16EB SWAP2 SWAP1 PUSH2 0x3936 JUMP JUMPDEST PUSH1 0x20 PUSH1 0x40 MLOAD DUP1 DUP4 SUB DUP2 DUP7 GAS STATICCALL ISZERO DUP1 ISZERO PUSH2 0x1708 JUMPI RETURNDATASIZE PUSH1 0x0 DUP1 RETURNDATACOPY RETURNDATASIZE PUSH1 0x0 REVERT JUMPDEST POP POP POP POP PUSH1 0x40 MLOAD RETURNDATASIZE PUSH1 0x1F NOT PUSH1 0x1F DUP3 ADD AND DUP3 ADD DUP1 PUSH1 0x40 MSTORE POP DUP2 ADD SWAP1 PUSH2 0x172C SWAP2 SWAP1 PUSH2 0x431A JUMP JUMPDEST PUSH2 0x176B JUMPI PUSH1 0x40 MLOAD PUSH32 0x8C379A000000000000000000000000000000000000000000000000000000000 DUP2 MSTORE PUSH1 0x4 ADD PUSH2 0x1762 SWAP1 PUSH2 0x4393 JUMP JUMPDEST PUSH1 0x40 MLOAD DUP1 SWAP2 SUB SWAP1 REVERT JUMPDEST DUP11 PUSH4 0xFFFFFFFF AND PUSH1 0xA PUSH1 0x0 DUP4 DUP2 MSTORE PUSH1 0x20 ADD SWAP1 DUP2 MSTORE PUSH1 0x20 ADD PUSH1 0x0 KECCAK256 PUSH1 0x2 ADD PUSH1 0x2 SWAP1 SLOAD SWAP1 PUSH2 0x100 EXP SWAP1 DIV PUSH4 0xFFFFFFFF AND PUSH4 0xFFFFFFFF AND SUB PUSH2 0x19D0 JUMPI PUSH1 0x0 PUSH1 0xA PUSH1 0x0 DUP4 DUP2 MSTORE PUSH1 0x20 ADD SWAP1 DUP2 MSTORE PUSH1 0x20 ADD PUSH1 0x0 KECCAK256 PUSH1 0x1 ADD DUP1 SLOAD PUSH2 0x17C7 SWAP1 PUSH2 0x43E2 JUMP JUMPDEST DUP1 PUSH1 0x1F ADD PUSH1 0x20 DUP1 SWAP2 DIV MUL PUSH1 0x20 ADD PUSH1 0x40 MLOAD SWAP1 DUP2 ADD PUSH1 0x40 MSTORE DUP1 SWAP3 SWAP2 SWAP1 DUP2 DUP2 MSTORE PUSH1 0x20 ADD DUP3 DUP1 SLOAD PUSH2 0x17F3 SWAP1 PUSH2 0x43E2 JUMP JUMPDEST DUP1 ISZERO PUSH2 0x1840 JUMPI DUP1 PUSH1 0x1F LT PUSH2 0x1815 JUMPI PUSH2 0x100 DUP1 DUP4 SLOAD DIV MUL DUP4 MSTORE SWAP2 PUSH1 0x20 ADD SWAP2 PUSH2 0x1840 JUMP JUMPDEST DUP3 ADD SWAP2 SWAP1 PUSH1 0x0 MSTORE PUSH1 0x20 PUSH1 0x0 KECCAK256 SWAP1 JUMPDEST DUP2 SLOAD DUP2 MSTORE SWAP1 PUSH1 0x1 ADD SWAP1 PUSH1 0x20 ADD DUP1 DUP4 GT PUSH2 0x1823 JUMPI DUP3 SWAP1 SUB PUSH1 0x1F AND DUP3 ADD SWAP2 JUMPDEST POP POP POP POP POP SWAP1 POP PUSH1 0x0 PUSH1 0xD DUP3 PUSH1 0x40 MLOAD PUSH2 0x1859 SWAP2 SWAP1 PUSH2 0x45C7 JUMP JUMPDEST SWAP1 DUP2 MSTORE PUSH1 0x20 ADD PUSH1 0x40 MLOAD DUP1 SWAP2 SUB SWAP1 KECCAK256 DUP1 SLOAD PUSH2 0x1872 SWAP1 PUSH2 0x43E2 JUMP JUMPDEST DUP1 PUSH1 0x1F ADD PUSH1 0x20 DUP1 SWAP2 DIV MUL PUSH1 0x20 ADD PUSH1 0x40 MLOAD SWAP1 DUP2 ADD PUSH1 0x40 MSTORE DUP1 SWAP3 SWAP2 SWAP1 DUP2 DUP2 MSTORE PUSH1 0x20 ADD DUP3 DUP1 SLOAD PUSH2 0x189E SWAP1 PUSH2 0x43E2 JUMP JUMPDEST DUP1 ISZERO PUSH2 0x18EB JUMPI DUP1 PUSH1 0x1F LT PUSH2 0x18C0 JUMPI PUSH2 0x100 DUP1 DUP4 SLOAD DIV MUL DUP4 MSTORE SWAP2 PUSH1 0x20 ADD SWAP2 PUSH2 0x18EB JUMP JUMPDEST DUP3 ADD SWAP2 SWAP1 PUSH1 0x0 MSTORE PUSH1 0x20 PUSH1 0x0 KECCAK256 SWAP1 JUMPDEST DUP2 SLOAD DUP2 MSTORE SWAP1 PUSH1 0x1 ADD SWAP1 PUSH1 0x20 ADD DUP1 DUP4 GT PUSH2 0x18CE JUMPI DUP3 SWAP1 SUB PUSH1 0x1F AND DUP3 ADD SWAP2 JUMPDEST POP POP POP POP POP SWAP1 POP PUSH1 0x0 PUSH1 0xE DUP4 PUSH1 0x40 MLOAD PUSH2 0x1904 SWAP2 SWAP1 PUSH2 0x45C7 JUMP JUMPDEST SWAP1 DUP2 MSTORE PUSH1 0x20 ADD PUSH1 0x40 MLOAD DUP1 SWAP2 SUB SWAP1 KECCAK256 PUSH1 0x0 SWAP1 SLOAD SWAP1 PUSH2 0x100 EXP SWAP1 DIV PUSH2 0xFFFF AND SWAP1 POP PUSH32 0xCDEBF4628CF2BDF62FE4427D8619CD411668AA87A3C00CF46186C77CBB48A704 DUP5 DUP5 DUP5 DUP5 PUSH1 0x40 MLOAD PUSH2 0x1958 SWAP5 SWAP4 SWAP3 SWAP2 SWAP1 PUSH2 0x5253 JUMP JUMPDEST PUSH1 0x40 MLOAD DUP1 SWAP2 SUB SWAP1 LOG1 DUP4 DUP10 DUP8 DUP2 MLOAD DUP2 LT PUSH2 0x1974 JUMPI PUSH2 0x1973 PUSH2 0x45DE JUMP JUMPDEST JUMPDEST PUSH1 0x20 MUL PUSH1 0x20 ADD ADD DUP2 DUP2 MSTORE POP POP DUP3 DUP9 DUP8 DUP2 MLOAD DUP2 LT PUSH2 0x1994 JUMPI PUSH2 0x1993 PUSH2 0x45DE JUMP JUMPDEST JUMPDEST PUSH1 0x20 MUL PUSH1 0x20 ADD ADD DUP2 SWAP1 MSTORE POP DUP2 DUP8 DUP8 DUP2 MLOAD DUP2 LT PUSH2 0x19B3 JUMPI PUSH2 0x19B2 PUSH2 0x45DE JUMP JUMPDEST JUMPDEST PUSH1 0x20 MUL PUSH1 0x20 ADD ADD DUP2 SWAP1 MSTORE POP DUP6 DUP1 PUSH2 0x19C9 SWAP1 PUSH2 0x463C JUMP JUMPDEST SWAP7 POP POP POP POP POP JUMPDEST POP DUP1 DUP1 PUSH1 0x1 ADD SWAP2 POP POP PUSH2 0x15E9 JUMP JUMPDEST POP DUP4 DUP4 DUP4 SWAP8 POP SWAP8 POP SWAP8 POP POP POP POP POP POP SWAP2 SWAP4 SWAP1 SWAP3 POP JUMP JUMPDEST PUSH2 0x19FC PUSH2 0x352A JUMP JUMPDEST PUSH1 0x0 DUP1 SLOAD SWAP1 PUSH2 0x100 EXP SWAP1 DIV PUSH20 0xFFFFFFFFFFFFFFFFFFFFFFFFFFFFFFFFFFFFFFFF AND PUSH20 0xFFFFFFFFFFFFFFFFFFFFFFFFFFFFFFFFFFFFFFFF AND CALLER PUSH20 0xFFFFFFFFFFFFFFFFFFFFFFFFFFFFFFFFFFFFFFFF AND EQ PUSH2 0x1A8A JUMPI PUSH1 0x40 MLOAD PUSH32 0x8C379A000000000000000000000000000000000000000000000000000000000 DUP2 MSTORE PUSH1 0x4 ADD PUSH2 0x1A81 SWAP1 PUSH2 0x42E5 JUMP JUMPDEST PUSH1 0x40 MLOAD DUP1 SWAP2 SUB SWAP1 REVERT JUMPDEST PUSH1 0xA PUSH1 0x0 DUP4 DUP2 MSTORE PUSH1 0x20 ADD SWAP1 DUP2 MSTORE PUSH1 0x20 ADD PUSH1 0x0 KECCAK256 PUSH1 0x40 MLOAD DUP1 PUSH1 0x80 ADD PUSH1 0x40 MSTORE SWAP1 DUP2 PUSH1 0x0 DUP3 ADD SLOAD DUP2 MSTORE PUSH1 0x20 ADD PUSH1 0x1 DUP3 ADD DUP1 SLOAD PUSH2 0x1AC2 SWAP1 PUSH2 0x43E2 JUMP JUMPDEST DUP1 PUSH1 0x1F ADD PUSH1 0x20 DUP1 SWAP2 DIV MUL PUSH1 0x20 ADD PUSH1 0x40 MLOAD SWAP1 DUP2 ADD PUSH1 0x40 MSTORE DUP1 SWAP3 SWAP2 SWAP1 DUP2 DUP2 MSTORE PUSH1 0x20 ADD DUP3 DUP1 SLOAD PUSH2 0x1AEE SWAP1 PUSH2 0x43E2 JUMP JUMPDEST DUP1 ISZERO PUSH2 0x1B3B JUMPI DUP1 PUSH1 0x1F LT PUSH2 0x1B10 JUMPI PUSH2 0x100 DUP1 DUP4 SLOAD DIV MUL DUP4 MSTORE SWAP2 PUSH1 0x20 ADD SWAP2 PUSH2 0x1B3B JUMP JUMPDEST DUP3 ADD SWAP2 SWAP1 PUSH1 0x0 MSTORE PUSH1 0x20 PUSH1 0x0 KECCAK256 SWAP1 JUMPDEST DUP2 SLOAD DUP2 MSTORE SWAP1 PUSH1 0x1 ADD SWAP1 PUSH1 0x20 ADD DUP1 DUP4 GT PUSH2 0x1B1E JUMPI DUP3 SWAP1 SUB PUSH1 0x1F AND DUP3 ADD SWAP2 JUMPDEST POP POP POP POP POP DUP2 MSTORE PUSH1 0x20 ADD PUSH1 0x2 DUP3 ADD PUSH1 0x0 SWAP1 SLOAD SWAP1 PUSH2 0x100 EXP SWAP1 DIV PUSH2 0xFFFF AND PUSH2 0xFFFF AND PUSH2 0xFFFF AND DUP2 MSTORE PUSH1 0x20 ADD PUSH1 0x2 DUP3 ADD PUSH1 0x2 SWAP1 SLOAD SWAP1 PUSH2 0x100 EXP SWAP1 DIV PUSH4 0xFFFFFFFF AND PUSH4 0xFFFFFFFF AND PUSH4 0xFFFFFFFF AND DUP2 MSTORE POP POP SWAP1 POP SWAP2 SWAP1 POP JUMP JUMPDEST PUSH1 0x0 DUP1 SLOAD SWAP1 PUSH2 0x100 EXP SWAP1 DIV PUSH20 0xFFFFFFFFFFFFFFFFFFFFFFFFFFFFFFFFFFFFFFFF AND DUP2 JUMP JUMPDEST PUSH1 0x2 DUP2 DUP2 SLOAD DUP2 LT PUSH2 0x1BC5 JUMPI PUSH1 0x0 DUP1 REVERT JUMPDEST SWAP1 PUSH1 0x0 MSTORE PUSH1 0x20 PUSH1 0x0 KECCAK256 ADD PUSH1 0x0 SWAP2 POP SWAP1 POP SLOAD DUP2 JUMP JUMPDEST PUSH1 0x3 DUP2 DUP2 SLOAD DUP2 LT PUSH2 0x1BE9 JUMPI PUSH1 0x0 DUP1 REVERT JUMPDEST SWAP1 PUSH1 0x0 MSTORE PUSH1 0x20 PUSH1 0x0 KECCAK256 SWAP1 PUSH1 0x10 SWAP2 DUP3 DUP3 DIV ADD SWAP2 SWAP1 MOD PUSH1 0x2 MUL SWAP2 POP SLOAD SWAP1 PUSH2 0x100 EXP SWAP1 DIV PUSH2 0xFFFF AND DUP2 JUMP JUMPDEST PUSH1 0x0 PUSH1 0x7 PUSH1 0x4 SWAP1 SLOAD SWAP1 PUSH2 0x100 EXP SWAP1 DIV PUSH20 0xFFFFFFFFFFFFFFFFFFFFFFFFFFFFFFFFFFFFFFFF AND PUSH20 0xFFFFFFFFFFFFFFFFFFFFFFFFFFFFFFFFFFFFFFFF AND PUSH3 0x923F9E DUP4 PUSH1 0x40 MLOAD DUP3 PUSH4 0xFFFFFFFF AND PUSH1 0xE0 SHL DUP2 MSTORE PUSH1 0x4 ADD PUSH2 0x1C6D SWAP2 SWAP1 PUSH2 0x3936 JUMP JUMPDEST PUSH1 0x20 PUSH1 0x40 MLOAD DUP1 DUP4 SUB DUP2 DUP7 GAS STATICCALL ISZERO DUP1 ISZERO PUSH2 0x1C8A JUMPI RETURNDATASIZE PUSH1 0x0 DUP1 RETURNDATACOPY RETURNDATASIZE PUSH1 0x0 REVERT JUMPDEST POP POP POP POP PUSH1 0x40 MLOAD RETURNDATASIZE PUSH1 0x1F NOT PUSH1 0x1F DUP3 ADD AND DUP3 ADD DUP1 PUSH1 0x40 MSTORE POP DUP2 ADD SWAP1 PUSH2 0x1CAE SWAP2 SWAP1 PUSH2 0x431A JUMP JUMPDEST PUSH2 0x1CED JUMPI PUSH1 0x40 MLOAD PUSH32 0x8C379A000000000000000000000000000000000000000000000000000000000 DUP2 MSTORE PUSH1 0x4 ADD PUSH2 0x1CE4 SWAP1 PUSH2 0x4393 JUMP JUMPDEST PUSH1 0x40 MLOAD DUP1 SWAP2 SUB SWAP1 REVERT JUMPDEST DUP2 BLOCKHASH SWAP1 POP SWAP2 SWAP1 POP JUMP JUMPDEST PUSH1 0xE DUP2 DUP1 MLOAD PUSH1 0x20 DUP2 ADD DUP3 ADD DUP1 MLOAD DUP5 DUP3 MSTORE PUSH1 0x20 DUP4 ADD PUSH1 0x20 DUP6 ADD KECCAK256 DUP2 DUP4 MSTORE DUP1 SWAP6 POP POP POP POP POP POP PUSH1 0x0 SWAP2 POP SLOAD SWAP1 PUSH2 0x100 EXP SWAP1 DIV PUSH2 0xFFFF AND DUP2 JUMP JUMPDEST PUSH1 0x0 DUP1 SLOAD SWAP1 PUSH2 0x100 EXP SWAP1 DIV PUSH20 0xFFFFFFFFFFFFFFFFFFFFFFFFFFFFFFFFFFFFFFFF AND PUSH20 0xFFFFFFFFFFFFFFFFFFFFFFFFFFFFFFFFFFFFFFFF AND CALLER PUSH20 0xFFFFFFFFFFFFFFFFFFFFFFFFFFFFFFFFFFFFFFFF AND EQ PUSH2 0x1DBB JUMPI PUSH1 0x40 MLOAD PUSH32 0x8C379A000000000000000000000000000000000000000000000000000000000 DUP2 MSTORE PUSH1 0x4 ADD PUSH2 0x1DB2 SWAP1 PUSH2 0x42E5 JUMP JUMPDEST PUSH1 0x40 MLOAD DUP1 SWAP2 SUB SWAP1 REVERT JUMPDEST DUP1 PUSH1 0x7 PUSH1 0x4 PUSH2 0x100 EXP DUP2 SLOAD DUP2 PUSH20 0xFFFFFFFFFFFFFFFFFFFFFFFFFFFFFFFFFFFFFFFF MUL NOT AND SWAP1 DUP4 PUSH20 0xFFFFFFFFFFFFFFFFFFFFFFFFFFFFFFFFFFFFFFFF AND MUL OR SWAP1 SSTORE POP POP JUMP JUMPDEST PUSH1 0x0 DUP1 SLOAD SWAP1 PUSH2 0x100 EXP SWAP1 DIV PUSH20 0xFFFFFFFFFFFFFFFFFFFFFFFFFFFFFFFFFFFFFFFF AND PUSH20 0xFFFFFFFFFFFFFFFFFFFFFFFFFFFFFFFFFFFFFFFF AND CALLER PUSH20 0xFFFFFFFFFFFFFFFFFFFFFFFFFFFFFFFFFFFFFFFF AND EQ PUSH2 0x1E8D JUMPI PUSH1 0x40 MLOAD PUSH32 0x8C379A000000000000000000000000000000000000000000000000000000000 DUP2 MSTORE PUSH1 0x4 ADD PUSH2 0x1E84 SWAP1 PUSH2 0x42E5 JUMP JUMPDEST PUSH1 0x40 MLOAD DUP1 SWAP2 SUB SWAP1 REVERT JUMPDEST PUSH1 0x0 PUSH20 0xFFFFFFFFFFFFFFFFFFFFFFFFFFFFFFFFFFFFFFFF AND PUSH1 0x8 PUSH1 0x0 SWAP1 SLOAD SWAP1 PUSH2 0x100 EXP SWAP1 DIV PUSH20 0xFFFFFFFFFFFFFFFFFFFFFFFFFFFFFFFFFFFFFFFF AND PUSH20 0xFFFFFFFFFFFFFFFFFFFFFFFFFFFFFFFFFFFFFFFF AND SUB PUSH2 0x1F1E JUMPI PUSH1 0x40 MLOAD PUSH32 0x8C379A000000000000000000000000000000000000000000000000000000000 DUP2 MSTORE PUSH1 0x4 ADD PUSH2 0x1F15 SWAP1 PUSH2 0x52F2 JUMP JUMPDEST PUSH1 0x40 MLOAD DUP1 SWAP2 SUB SWAP1 REVERT JUMPDEST PUSH1 0xB PUSH1 0x0 DUP3 PUSH4 0xFFFFFFFF AND DUP2 MSTORE PUSH1 0x20 ADD SWAP1 DUP2 MSTORE PUSH1 0x20 ADD PUSH1 0x0 KECCAK256 PUSH1 0x1 ADD SLOAD TIMESTAMP GT PUSH2 0x1F7C JUMPI PUSH1 0x40 MLOAD PUSH32 0x8C379A000000000000000000000000000000000000000000000000000000000 DUP2 MSTORE PUSH1 0x4 ADD PUSH2 0x1F73 SWAP1 PUSH2 0x5384 JUMP JUMPDEST PUSH1 0x40 MLOAD DUP1 SWAP2 SUB SWAP1 REVERT JUMPDEST PUSH1 0x0 PUSH2 0x1F87 DUP3 PUSH2 0x2747 JUMP JUMPDEST SWAP1 POP PUSH1 0x0 JUMPDEST DUP2 MLOAD DUP2 LT ISZERO PUSH2 0x20E4 JUMPI PUSH1 0x0 DUP3 DUP3 DUP2 MLOAD DUP2 LT PUSH2 0x1FAA JUMPI PUSH2 0x1FA9 PUSH2 0x45DE JUMP JUMPDEST JUMPDEST PUSH1 0x20 MUL PUSH1 0x20 ADD ADD MLOAD SWAP1 POP PUSH1 0x0 PUSH1 0xC PUSH1 0xA PUSH1 0x0 DUP5 DUP2 MSTORE PUSH1 0x20 ADD SWAP1 DUP2 MSTORE PUSH1 0x20 ADD PUSH1 0x0 KECCAK256 PUSH1 0x1 ADD PUSH1 0x40 MLOAD PUSH2 0x1FDB SWAP2 SWAP1 PUSH2 0x44B6 JUMP JUMPDEST SWAP1 DUP2 MSTORE PUSH1 0x20 ADD PUSH1 0x40 MLOAD DUP1 SWAP2 SUB SWAP1 KECCAK256 SLOAD SWAP1 POP PUSH1 0x0 PUSH1 0x8 PUSH1 0x0 SWAP1 SLOAD SWAP1 PUSH2 0x100 EXP SWAP1 DIV PUSH20 0xFFFFFFFFFFFFFFFFFFFFFFFFFFFFFFFFFFFFFFFF AND PUSH20 0xFFFFFFFFFFFFFFFFFFFFFFFFFFFFFFFFFFFFFFFF AND PUSH4 0x841FB503 DUP4 PUSH1 0x40 MLOAD DUP3 PUSH4 0xFFFFFFFF AND PUSH1 0xE0 SHL DUP2 MSTORE PUSH1 0x4 ADD PUSH2 0x2049 SWAP2 SWAP1 PUSH2 0x3AEA JUMP JUMPDEST PUSH1 0x0 PUSH1 0x40 MLOAD DUP1 DUP4 SUB DUP2 PUSH1 0x0 DUP8 GAS CALL ISZERO DUP1 ISZERO PUSH2 0x2068 JUMPI RETURNDATASIZE PUSH1 0x0 DUP1 RETURNDATACOPY RETURNDATASIZE PUSH1 0x0 REVERT JUMPDEST POP POP POP POP PUSH1 0x40 MLOAD RETURNDATASIZE PUSH1 0x0 DUP3 RETURNDATACOPY RETURNDATASIZE PUSH1 0x1F NOT PUSH1 0x1F DUP3 ADD AND DUP3 ADD DUP1 PUSH1 0x40 MSTORE POP DUP2 ADD SWAP1 PUSH2 0x2091 SWAP2 SWAP1 PUSH2 0x5414 JUMP JUMPDEST SWAP1 POP DUP1 PUSH1 0xD PUSH1 0xA PUSH1 0x0 DUP7 DUP2 MSTORE PUSH1 0x20 ADD SWAP1 DUP2 MSTORE PUSH1 0x20 ADD PUSH1 0x0 KECCAK256 PUSH1 0x1 ADD PUSH1 0x40 MLOAD PUSH2 0x20B9 SWAP2 SWAP1 PUSH2 0x44B6 JUMP JUMPDEST SWAP1 DUP2 MSTORE PUSH1 0x20 ADD PUSH1 0x40 MLOAD DUP1 SWAP2 SUB SWAP1 KECCAK256 SWAP1 DUP2 PUSH2 0x20D3 SWAP2 SWAP1 PUSH2 0x50D5 JUMP JUMPDEST POP POP POP POP DUP1 DUP1 PUSH1 0x1 ADD SWAP2 POP POP PUSH2 0x1F8C JUMP JUMPDEST POP POP POP JUMP JUMPDEST PUSH1 0x0 DUP1 SLOAD SWAP1 PUSH2 0x100 EXP SWAP1 DIV PUSH20 0xFFFFFFFFFFFFFFFFFFFFFFFFFFFFFFFFFFFFFFFF AND PUSH20 0xFFFFFFFFFFFFFFFFFFFFFFFFFFFFFFFFFFFFFFFF AND CALLER PUSH20 0xFFFFFFFFFFFFFFFFFFFFFFFFFFFFFFFFFFFFFFFF AND EQ PUSH2 0x2177 JUMPI PUSH1 0x40 MLOAD PUSH32 0x8C379A000000000000000000000000000000000000000000000000000000000 DUP2 MSTORE PUSH1 0x4 ADD PUSH2 0x216E SWAP1 PUSH2 0x42E5 JUMP JUMPDEST PUSH1 0x40 MLOAD DUP1 SWAP2 SUB SWAP1 REVERT JUMPDEST DUP1 PUSH1 0xF DUP5 PUSH1 0x40 MLOAD PUSH2 0x2188 SWAP2 SWAP1 PUSH2 0x45C7 JUMP JUMPDEST SWAP1 DUP2 MSTORE PUSH1 0x20 ADD PUSH1 0x40 MLOAD DUP1 SWAP2 SUB SWAP1 KECCAK256 DUP4 PUSH1 0x40 MLOAD PUSH2 0x21A4 SWAP2 SWAP1 PUSH2 0x45C7 JUMP JUMPDEST SWAP1 DUP2 MSTORE PUSH1 0x20 ADD PUSH1 0x40 MLOAD DUP1 SWAP2 SUB SWAP1 KECCAK256 PUSH1 0x0 PUSH2 0x100 EXP DUP2 SLOAD DUP2 PUSH2 0xFFFF MUL NOT AND SWAP1 DUP4 PUSH2 0xFFFF AND MUL OR SWAP1 SSTORE POP PUSH32 0xB72368E5C4F4ED385A10588B376A9C14980884BF93B05506B000A33CB5596A7E DUP4 DUP4 DUP4 PUSH1 0x40 MLOAD PUSH2 0x21FF SWAP4 SWAP3 SWAP2 SWAP1 PUSH2 0x545D JUMP JUMPDEST PUSH1 0x40 MLOAD DUP1 SWAP2 SUB SWAP1 LOG1 POP POP POP JUMP JUMPDEST PUSH1 0x0 DUP1 SLOAD SWAP1 PUSH2 0x100 EXP SWAP1 DIV PUSH20 0xFFFFFFFFFFFFFFFFFFFFFFFFFFFFFFFFFFFFFFFF AND PUSH20 0xFFFFFFFFFFFFFFFFFFFFFFFFFFFFFFFFFFFFFFFF AND CALLER PUSH20 0xFFFFFFFFFFFFFFFFFFFFFFFFFFFFFFFFFFFFFFFF AND EQ PUSH2 0x229A JUMPI PUSH1 0x40 MLOAD PUSH32 0x8C379A000000000000000000000000000000000000000000000000000000000 DUP2 MSTORE PUSH1 0x4 ADD PUSH2 0x2291 SWAP1 PUSH2 0x42E5 JUMP JUMPDEST PUSH1 0x40 MLOAD DUP1 SWAP2 SUB SWAP1 REVERT JUMPDEST DUP1 PUSH1 0x8 PUSH1 0x0 PUSH2 0x100 EXP DUP2 SLOAD DUP2 PUSH20 0xFFFFFFFFFFFFFFFFFFFFFFFFFFFFFFFFFFFFFFFF MUL NOT AND SWAP1 DUP4 PUSH20 0xFFFFFFFFFFFFFFFFFFFFFFFFFFFFFFFFFFFFFFFF AND MUL OR SWAP1 SSTORE POP POP JUMP JUMPDEST DUP3 PUSH1 0x9 PUSH1 0x0 DUP3 PUSH4 0xFFFFFFFF AND PUSH4 0xFFFFFFFF AND DUP2 MSTORE PUSH1 0x20 ADD SWAP1 DUP2 MSTORE PUSH1 0x20 ADD PUSH1 0x0 KECCAK256 PUSH1 0x0 SWAP1 SLOAD SWAP1 PUSH2 0x100 EXP SWAP1 DIV PUSH1 0xFF AND PUSH2 0x234B JUMPI PUSH1 0x40 MLOAD PUSH32 0x8C379A000000000000000000000000000000000000000000000000000000000 DUP2 MSTORE PUSH1 0x4 ADD PUSH2 0x2342 SWAP1 PUSH2 0x5514 JUMP JUMPDEST PUSH1 0x40 MLOAD DUP1 SWAP2 SUB SWAP1 REVERT JUMPDEST DUP4 PUSH4 0xFFFFFFFF AND PUSH1 0xB PUSH1 0x0 DUP7 PUSH4 0xFFFFFFFF AND DUP2 MSTORE PUSH1 0x20 ADD SWAP1 DUP2 MSTORE PUSH1 0x20 ADD PUSH1 0x0 KECCAK256 PUSH1 0x0 ADD PUSH1 0x0 SWAP1 SLOAD SWAP1 PUSH2 0x100 EXP SWAP1 DIV PUSH4 0xFFFFFFFF AND PUSH4 0xFFFFFFFF AND EQ PUSH2 0x23C5 JUMPI PUSH1 0x40 MLOAD PUSH32 0x8C379A000000000000000000000000000000000000000000000000000000000 DUP2 MSTORE PUSH1 0x4 ADD PUSH2 0x23BC SWAP1 PUSH2 0x5580 JUMP JUMPDEST PUSH1 0x40 MLOAD DUP1 SWAP2 SUB SWAP1 REVERT JUMPDEST PUSH1 0xB PUSH1 0x0 DUP6 PUSH4 0xFFFFFFFF AND DUP2 MSTORE PUSH1 0x20 ADD SWAP1 DUP2 MSTORE PUSH1 0x20 ADD PUSH1 0x0 KECCAK256 PUSH1 0x1 ADD SLOAD TIMESTAMP GT ISZERO PUSH2 0x2424 JUMPI PUSH1 0x40 MLOAD PUSH32 0x8C379A000000000000000000000000000000000000000000000000000000000 DUP2 MSTORE PUSH1 0x4 ADD PUSH2 0x241B SWAP1 PUSH2 0x5612 JUMP JUMPDEST PUSH1 0x40 MLOAD DUP1 SWAP2 SUB SWAP1 REVERT JUMPDEST PUSH1 0x0 PUSH1 0x7 PUSH1 0x4 SWAP1 SLOAD SWAP1 PUSH2 0x100 EXP SWAP1 DIV PUSH20 0xFFFFFFFFFFFFFFFFFFFFFFFFFFFFFFFFFFFFFFFF AND PUSH20 0xFFFFFFFFFFFFFFFFFFFFFFFFFFFFFFFFFFFFFFFF AND PUSH4 0xD0DEF521 PUSH1 0x0 DUP1 SLOAD SWAP1 PUSH2 0x100 EXP SWAP1 DIV PUSH20 0xFFFFFFFFFFFFFFFFFFFFFFFFFFFFFFFFFFFFFFFF AND DUP7 DUP7 PUSH1 0x40 MLOAD DUP5 PUSH4 0xFFFFFFFF AND PUSH1 0xE0 SHL DUP2 MSTORE PUSH1 0x4 ADD PUSH2 0x24A5 SWAP4 SWAP3 SWAP2 SWAP1 PUSH2 0x565F JUMP JUMPDEST PUSH1 0x20 PUSH1 0x40 MLOAD DUP1 DUP4 SUB DUP2 PUSH1 0x0 DUP8 GAS CALL ISZERO DUP1 ISZERO PUSH2 0x24C4 JUMPI RETURNDATASIZE PUSH1 0x0 DUP1 RETURNDATACOPY RETURNDATASIZE PUSH1 0x0 REVERT JUMPDEST POP POP POP POP PUSH1 0x40 MLOAD RETURNDATASIZE PUSH1 0x1F NOT PUSH1 0x1F DUP3 ADD AND DUP3 ADD DUP1 PUSH1 0x40 MSTORE POP DUP2 ADD SWAP1 PUSH2 0x24E8 SWAP2 SWAP1 PUSH2 0x5226 JUMP JUMPDEST SWAP1 POP PUSH1 0x40 MLOAD DUP1 PUSH1 0x80 ADD PUSH1 0x40 MSTORE DUP1 DUP3 DUP2 MSTORE PUSH1 0x20 ADD DUP6 DUP6 DUP1 DUP1 PUSH1 0x1F ADD PUSH1 0x20 DUP1 SWAP2 DIV MUL PUSH1 0x20 ADD PUSH1 0x40 MLOAD SWAP1 DUP2 ADD PUSH1 0x40 MSTORE DUP1 SWAP4 SWAP3 SWAP2 SWAP1 DUP2 DUP2 MSTORE PUSH1 0x20 ADD DUP4 DUP4 DUP1 DUP3 DUP5 CALLDATACOPY PUSH1 0x0 DUP2 DUP5 ADD MSTORE PUSH1 0x1F NOT PUSH1 0x1F DUP3 ADD AND SWAP1 POP DUP1 DUP4 ADD SWAP3 POP POP POP POP POP POP POP DUP2 MSTORE PUSH1 0x20 ADD PUSH1 0x0 PUSH2 0xFFFF AND DUP2 MSTORE PUSH1 0x20 ADD DUP7 PUSH4 0xFFFFFFFF AND DUP2 MSTORE POP PUSH1 0xA PUSH1 0x0 DUP4 DUP2 MSTORE PUSH1 0x20 ADD SWAP1 DUP2 MSTORE PUSH1 0x20 ADD PUSH1 0x0 KECCAK256 PUSH1 0x0 DUP3 ADD MLOAD DUP2 PUSH1 0x0 ADD SSTORE PUSH1 0x20 DUP3 ADD MLOAD DUP2 PUSH1 0x1 ADD SWAP1 DUP2 PUSH2 0x258C SWAP2 SWAP1 PUSH2 0x50D5 JUMP JUMPDEST POP PUSH1 0x40 DUP3 ADD MLOAD DUP2 PUSH1 0x2 ADD PUSH1 0x0 PUSH2 0x100 EXP DUP2 SLOAD DUP2 PUSH2 0xFFFF MUL NOT AND SWAP1 DUP4 PUSH2 0xFFFF AND MUL OR SWAP1 SSTORE POP PUSH1 0x60 DUP3 ADD MLOAD DUP2 PUSH1 0x2 ADD PUSH1 0x2 PUSH2 0x100 EXP DUP2 SLOAD DUP2 PUSH4 0xFFFFFFFF MUL NOT AND SWAP1 DUP4 PUSH4 0xFFFFFFFF AND MUL OR SWAP1 SSTORE POP SWAP1 POP POP PUSH1 0x0 PUSH2 0x25E5 DUP3 PUSH2 0x1C11 JUMP JUMPDEST SWAP1 POP DUP1 PUSH1 0xC DUP7 DUP7 PUSH1 0x40 MLOAD PUSH2 0x25FA SWAP3 SWAP2 SWAP1 PUSH2 0x51F8 JUMP JUMPDEST SWAP1 DUP2 MSTORE PUSH1 0x20 ADD PUSH1 0x40 MLOAD DUP1 SWAP2 SUB SWAP1 KECCAK256 DUP2 SWAP1 SSTORE POP PUSH1 0x0 DUP1 SLOAD SWAP1 PUSH2 0x100 EXP SWAP1 DIV PUSH20 0xFFFFFFFFFFFFFFFFFFFFFFFFFFFFFFFFFFFFFFFF AND PUSH20 0xFFFFFFFFFFFFFFFFFFFFFFFFFFFFFFFFFFFFFFFF AND DUP3 PUSH32 0x39397D2E688938ACACA7EAA3E682119DE68481651F15C791DE35581976DED52B DUP8 DUP8 PUSH1 0x40 MLOAD PUSH2 0x2675 SWAP3 SWAP2 SWAP1 PUSH2 0x5691 JUMP JUMPDEST PUSH1 0x40 MLOAD DUP1 SWAP2 SUB SWAP1 LOG3 POP POP POP POP POP POP JUMP JUMPDEST PUSH1 0xB PUSH1 0x20 MSTORE DUP1 PUSH1 0x0 MSTORE PUSH1 0x40 PUSH1 0x0 KECCAK256 PUSH1 0x0 SWAP2 POP SWAP1 POP DUP1 PUSH1 0x0 ADD PUSH1 0x0 SWAP1 SLOAD SWAP1 PUSH2 0x100 EXP SWAP1 DIV PUSH4 0xFFFFFFFF AND SWAP1 DUP1 PUSH1 0x1 ADD SLOAD SWAP1 DUP1 PUSH1 0x2 ADD DUP1 SLOAD PUSH2 0x26C4 SWAP1 PUSH2 0x43E2 JUMP JUMPDEST DUP1 PUSH1 0x1F ADD PUSH1 0x20 DUP1 SWAP2 DIV MUL PUSH1 0x20 ADD PUSH1 0x40 MLOAD SWAP1 DUP2 ADD PUSH1 0x40 MSTORE DUP1 SWAP3 SWAP2 SWAP1 DUP2 DUP2 MSTORE PUSH1 0x20 ADD DUP3 DUP1 SLOAD PUSH2 0x26F0 SWAP1 PUSH2 0x43E2 JUMP JUMPDEST DUP1 ISZERO PUSH2 0x273D JUMPI DUP1 PUSH1 0x1F LT PUSH2 0x2712 JUMPI PUSH2 0x100 DUP1 DUP4 SLOAD DIV MUL DUP4 MSTORE SWAP2 PUSH1 0x20 ADD SWAP2 PUSH2 0x273D JUMP JUMPDEST DUP3 ADD SWAP2 SWAP1 PUSH1 0x0 MSTORE PUSH1 0x20 PUSH1 0x0 KECCAK256 SWAP1 JUMPDEST DUP2 SLOAD DUP2 MSTORE SWAP1 PUSH1 0x1 ADD SWAP1 PUSH1 0x20 ADD DUP1 DUP4 GT PUSH2 0x2720 JUMPI DUP3 SWAP1 SUB PUSH1 0x1F AND DUP3 ADD SWAP2 JUMPDEST POP POP POP POP POP SWAP1 POP DUP4 JUMP JUMPDEST PUSH1 0x60 PUSH1 0x0 DUP1 SLOAD SWAP1 PUSH2 0x100 EXP SWAP1 DIV PUSH20 0xFFFFFFFFFFFFFFFFFFFFFFFFFFFFFFFFFFFFFFFF AND PUSH20 0xFFFFFFFFFFFFFFFFFFFFFFFFFFFFFFFFFFFFFFFF AND CALLER PUSH20 0xFFFFFFFFFFFFFFFFFFFFFFFFFFFFFFFFFFFFFFFF AND EQ PUSH2 0x27D7 JUMPI PUSH1 0x40 MLOAD PUSH32 0x8C379A000000000000000000000000000000000000000000000000000000000 DUP2 MSTORE PUSH1 0x4 ADD PUSH2 0x27CE SWAP1 PUSH2 0x42E5 JUMP JUMPDEST PUSH1 0x40 MLOAD DUP1 SWAP2 SUB SWAP1 REVERT JUMPDEST PUSH1 0x0 PUSH1 0x7 PUSH1 0x4 SWAP1 SLOAD SWAP1 PUSH2 0x100 EXP SWAP1 DIV PUSH20 0xFFFFFFFFFFFFFFFFFFFFFFFFFFFFFFFFFFFFFFFF AND PUSH20 0xFFFFFFFFFFFFFFFFFFFFFFFFFFFFFFFFFFFFFFFF AND PUSH4 0x18160DDD PUSH1 0x40 MLOAD DUP2 PUSH4 0xFFFFFFFF AND PUSH1 0xE0 SHL DUP2 MSTORE PUSH1 0x4 ADD PUSH1 0x20 PUSH1 0x40 MLOAD DUP1 DUP4 SUB DUP2 DUP7 GAS STATICCALL ISZERO DUP1 ISZERO PUSH2 0x2846 JUMPI RETURNDATASIZE PUSH1 0x0 DUP1 RETURNDATACOPY RETURNDATASIZE PUSH1 0x0 REVERT JUMPDEST POP POP POP POP PUSH1 0x40 MLOAD RETURNDATASIZE PUSH1 0x1F NOT PUSH1 0x1F DUP3 ADD AND DUP3 ADD DUP1 PUSH1 0x40 MSTORE POP DUP2 ADD SWAP1 PUSH2 0x286A SWAP2 SWAP1 PUSH2 0x5226 JUMP JUMPDEST SWAP1 POP PUSH1 0x0 DUP2 PUSH8 0xFFFFFFFFFFFFFFFF DUP2 GT ISZERO PUSH2 0x2888 JUMPI PUSH2 0x2887 PUSH2 0x3692 JUMP JUMPDEST JUMPDEST PUSH1 0x40 MLOAD SWAP1 DUP1 DUP3 MSTORE DUP1 PUSH1 0x20 MUL PUSH1 0x20 ADD DUP3 ADD PUSH1 0x40 MSTORE DUP1 ISZERO PUSH2 0x28B6 JUMPI DUP2 PUSH1 0x20 ADD PUSH1 0x20 DUP3 MUL DUP1 CALLDATASIZE DUP4 CALLDATACOPY DUP1 DUP3 ADD SWAP2 POP POP SWAP1 POP JUMPDEST POP SWAP1 POP PUSH1 0x0 DUP1 JUMPDEST DUP4 DUP2 LT ISZERO PUSH2 0x2AB5 JUMPI PUSH1 0x0 PUSH1 0x7 PUSH1 0x4 SWAP1 SLOAD SWAP1 PUSH2 0x100 EXP SWAP1 DIV PUSH20 0xFFFFFFFFFFFFFFFFFFFFFFFFFFFFFFFFFFFFFFFF AND PUSH20 0xFFFFFFFFFFFFFFFFFFFFFFFFFFFFFFFFFFFFFFFF AND PUSH4 0x4F6CCCE7 DUP4 PUSH1 0x40 MLOAD DUP3 PUSH4 0xFFFFFFFF AND PUSH1 0xE0 SHL DUP2 MSTORE PUSH1 0x4 ADD PUSH2 0x2922 SWAP2 SWAP1 PUSH2 0x3936 JUMP JUMPDEST PUSH1 0x20 PUSH1 0x40 MLOAD DUP1 DUP4 SUB DUP2 DUP7 GAS STATICCALL ISZERO DUP1 ISZERO PUSH2 0x293F JUMPI RETURNDATASIZE PUSH1 0x0 DUP1 RETURNDATACOPY RETURNDATASIZE PUSH1 0x0 REVERT JUMPDEST POP POP POP POP PUSH1 0x40 MLOAD RETURNDATASIZE PUSH1 0x1F NOT PUSH1 0x1F DUP3 ADD AND DUP3 ADD DUP1 PUSH1 0x40 MSTORE POP DUP2 ADD SWAP1 PUSH2 0x2963 SWAP2 SWAP1 PUSH2 0x5226 JUMP JUMPDEST SWAP1 POP PUSH1 0x7 PUSH1 0x4 SWAP1 SLOAD SWAP1 PUSH2 0x100 EXP SWAP1 DIV PUSH20 0xFFFFFFFFFFFFFFFFFFFFFFFFFFFFFFFFFFFFFFFF AND PUSH20 0xFFFFFFFFFFFFFFFFFFFFFFFFFFFFFFFFFFFFFFFF AND PUSH3 0x923F9E DUP3 PUSH1 0x40 MLOAD DUP3 PUSH4 0xFFFFFFFF AND PUSH1 0xE0 SHL DUP2 MSTORE PUSH1 0x4 ADD PUSH2 0x29BF SWAP2 SWAP1 PUSH2 0x3936 JUMP JUMPDEST PUSH1 0x20 PUSH1 0x40 MLOAD DUP1 DUP4 SUB DUP2 DUP7 GAS STATICCALL ISZERO DUP1 ISZERO PUSH2 0x29DC JUMPI RETURNDATASIZE PUSH1 0x0 DUP1 RETURNDATACOPY RETURNDATASIZE PUSH1 0x0 REVERT JUMPDEST POP POP POP POP PUSH1 0x40 MLOAD RETURNDATASIZE PUSH1 0x1F NOT PUSH1 0x1F DUP3 ADD AND DUP3 ADD DUP1 PUSH1 0x40 MSTORE POP DUP2 ADD SWAP1 PUSH2 0x2A00 SWAP2 SWAP1 PUSH2 0x431A JUMP JUMPDEST PUSH2 0x2A3F JUMPI PUSH1 0x40 MLOAD PUSH32 0x8C379A000000000000000000000000000000000000000000000000000000000 DUP2 MSTORE PUSH1 0x4 ADD PUSH2 0x2A36 SWAP1 PUSH2 0x4393 JUMP JUMPDEST PUSH1 0x40 MLOAD DUP1 SWAP2 SUB SWAP1 REVERT JUMPDEST DUP7 PUSH4 0xFFFFFFFF AND PUSH1 0xA PUSH1 0x0 DUP4 DUP2 MSTORE PUSH1 0x20 ADD SWAP1 DUP2 MSTORE PUSH1 0x20 ADD PUSH1 0x0 KECCAK256 PUSH1 0x2 ADD PUSH1 0x2 SWAP1 SLOAD SWAP1 PUSH2 0x100 EXP SWAP1 DIV PUSH4 0xFFFFFFFF AND PUSH4 0xFFFFFFFF AND SUB PUSH2 0x2AA7 JUMPI DUP1 DUP5 DUP5 DUP2 MLOAD DUP2 LT PUSH2 0x2A8C JUMPI PUSH2 0x2A8B PUSH2 0x45DE JUMP JUMPDEST JUMPDEST PUSH1 0x20 MUL PUSH1 0x20 ADD ADD DUP2 DUP2 MSTORE POP POP DUP3 DUP1 PUSH2 0x2AA3 SWAP1 PUSH2 0x463C JUMP JUMPDEST SWAP4 POP POP JUMPDEST POP DUP1 DUP1 PUSH1 0x1 ADD SWAP2 POP POP PUSH2 0x28BD JUMP JUMPDEST POP PUSH1 0x0 DUP2 PUSH8 0xFFFFFFFFFFFFFFFF DUP2 GT ISZERO PUSH2 0x2AD2 JUMPI PUSH2 0x2AD1 PUSH2 0x3692 JUMP JUMPDEST JUMPDEST PUSH1 0x40 MLOAD SWAP1 DUP1 DUP3 MSTORE DUP1 PUSH1 0x20 MUL PUSH1 0x20 ADD DUP3 ADD PUSH1 0x40 MSTORE DUP1 ISZERO PUSH2 0x2B00 JUMPI DUP2 PUSH1 0x20 ADD PUSH1 0x20 DUP3 MUL DUP1 CALLDATASIZE DUP4 CALLDATACOPY DUP1 DUP3 ADD SWAP2 POP POP SWAP1 POP JUMPDEST POP SWAP1 POP PUSH1 0x0 JUMPDEST DUP3 DUP2 LT ISZERO PUSH2 0x2B55 JUMPI DUP4 DUP2 DUP2 MLOAD DUP2 LT PUSH2 0x2B21 JUMPI PUSH2 0x2B20 PUSH2 0x45DE JUMP JUMPDEST JUMPDEST PUSH1 0x20 MUL PUSH1 0x20 ADD ADD MLOAD DUP3 DUP3 DUP2 MLOAD DUP2 LT PUSH2 0x2B3C JUMPI PUSH2 0x2B3B PUSH2 0x45DE JUMP JUMPDEST JUMPDEST PUSH1 0x20 MUL PUSH1 0x20 ADD ADD DUP2 DUP2 MSTORE POP POP DUP1 DUP1 PUSH1 0x1 ADD SWAP2 POP POP PUSH2 0x2B06 JUMP JUMPDEST POP DUP1 SWAP5 POP POP POP POP POP SWAP2 SWAP1 POP JUMP JUMPDEST PUSH1 0x0 PUSH1 0x60 DUP3 PUSH4 0xFFFFFFFF AND PUSH1 0xB PUSH1 0x0 DUP6 PUSH4 0xFFFFFFFF AND DUP2 MSTORE PUSH1 0x20 ADD SWAP1 DUP2 MSTORE PUSH1 0x20 ADD PUSH1 0x0 KECCAK256 PUSH1 0x0 ADD PUSH1 0x0 SWAP1 SLOAD SWAP1 PUSH2 0x100 EXP SWAP1 DIV PUSH4 0xFFFFFFFF AND PUSH4 0xFFFFFFFF AND EQ PUSH2 0x2BE0 JUMPI PUSH1 0x40 MLOAD PUSH32 0x8C379A000000000000000000000000000000000000000000000000000000000 DUP2 MSTORE PUSH1 0x4 ADD PUSH2 0x2BD7 SWAP1 PUSH2 0x5580 JUMP JUMPDEST PUSH1 0x40 MLOAD DUP1 SWAP2 SUB SWAP1 REVERT JUMPDEST PUSH1 0x0 PUSH1 0xB PUSH1 0x0 DUP6 PUSH4 0xFFFFFFFF AND DUP2 MSTORE PUSH1 0x20 ADD SWAP1 DUP2 MSTORE PUSH1 0x20 ADD PUSH1 0x0 KECCAK256 SWAP1 POP DUP1 PUSH1 0x1 ADD SLOAD DUP2 PUSH1 0x2 ADD DUP1 DUP1 SLOAD PUSH2 0x2C12 SWAP1 PUSH2 0x43E2 JUMP JUMPDEST DUP1 PUSH1 0x1F ADD PUSH1 0x20 DUP1 SWAP2 DIV MUL PUSH1 0x20 ADD PUSH1 0x40 MLOAD SWAP1 DUP2 ADD PUSH1 0x40 MSTORE DUP1 SWAP3 SWAP2 SWAP1 DUP2 DUP2 MSTORE PUSH1 0x20 ADD DUP3 DUP1 SLOAD PUSH2 0x2C3E SWAP1 PUSH2 0x43E2 JUMP JUMPDEST DUP1 ISZERO PUSH2 0x2C8B JUMPI DUP1 PUSH1 0x1F LT PUSH2 0x2C60 JUMPI PUSH2 0x100 DUP1 DUP4 SLOAD DIV MUL DUP4 MSTORE SWAP2 PUSH1 0x20 ADD SWAP2 PUSH2 0x2C8B JUMP JUMPDEST DUP3 ADD SWAP2 SWAP1 PUSH1 0x0 MSTORE PUSH1 0x20 PUSH1 0x0 KECCAK256 SWAP1 JUMPDEST DUP2 SLOAD DUP2 MSTORE SWAP1 PUSH1 0x1 ADD SWAP1 PUSH1 0x20 ADD DUP1 DUP4 GT PUSH2 0x2C6E JUMPI DUP3 SWAP1 SUB PUSH1 0x1F AND DUP3 ADD SWAP2 JUMPDEST POP POP POP POP POP SWAP1 POP SWAP3 POP SWAP3 POP POP SWAP2 POP SWAP2 JUMP JUMPDEST PUSH32 0x3936BE753933BA8498F7F2C358F25A3FF46983A6ABE2D32294B2F6C6AD6203E3 DUP4 DUP4 DUP4 PUSH1 0xF DUP7 PUSH1 0x40 MLOAD PUSH2 0x2CD0 SWAP2 SWAP1 PUSH2 0x45C7 JUMP JUMPDEST SWAP1 DUP2 MSTORE PUSH1 0x20 ADD PUSH1 0x40 MLOAD DUP1 SWAP2 SUB SWAP1 KECCAK256 DUP6 PUSH1 0x40 MLOAD PUSH2 0x2CEC SWAP2 SWAP1 PUSH2 0x45C7 JUMP JUMPDEST SWAP1 DUP2 MSTORE PUSH1 0x20 ADD PUSH1 0x40 MLOAD DUP1 SWAP2 SUB SWAP1 KECCAK256 PUSH1 0x0 SWAP1 SLOAD SWAP1 PUSH2 0x100 EXP SWAP1 DIV PUSH2 0xFFFF AND PUSH1 0x40 MLOAD PUSH2 0x2D19 SWAP5 SWAP4 SWAP3 SWAP2 SWAP1 PUSH2 0x5253 JUMP JUMPDEST PUSH1 0x40 MLOAD DUP1 SWAP2 SUB SWAP1 LOG1 POP POP POP JUMP JUMPDEST PUSH1 0x0 DUP1 SLOAD SWAP1 PUSH2 0x100 EXP SWAP1 DIV PUSH20 0xFFFFFFFFFFFFFFFFFFFFFFFFFFFFFFFFFFFFFFFF AND PUSH20 0xFFFFFFFFFFFFFFFFFFFFFFFFFFFFFFFFFFFFFFFF AND CALLER PUSH20 0xFFFFFFFFFFFFFFFFFFFFFFFFFFFFFFFFFFFFFFFF AND EQ PUSH2 0x2DB4 JUMPI PUSH1 0x40 MLOAD PUSH32 0x8C379A000000000000000000000000000000000000000000000000000000000 DUP2 MSTORE PUSH1 0x4 ADD PUSH2 0x2DAB SWAP1 PUSH2 0x42E5 JUMP JUMPDEST PUSH1 0x40 MLOAD DUP1 SWAP2 SUB SWAP1 REVERT JUMPDEST DUP2 PUSH4 0xFFFFFFFF AND PUSH1 0xB PUSH1 0x0 DUP5 PUSH4 0xFFFFFFFF AND DUP2 MSTORE PUSH1 0x20 ADD SWAP1 DUP2 MSTORE PUSH1 0x20 ADD PUSH1 0x0 KECCAK256 PUSH1 0x0 ADD PUSH1 0x0 SWAP1 SLOAD SWAP1 PUSH2 0x100 EXP SWAP1 DIV PUSH4 0xFFFFFFFF AND PUSH4 0xFFFFFFFF AND EQ PUSH2 0x2E2E JUMPI PUSH1 0x40 MLOAD PUSH32 0x8C379A000000000000000000000000000000000000000000000000000000000 DUP2 MSTORE PUSH1 0x4 ADD PUSH2 0x2E25 SWAP1 PUSH2 0x5580 JUMP JUMPDEST PUSH1 0x40 MLOAD DUP1 SWAP2 SUB SWAP1 REVERT JUMPDEST DUP1 PUSH1 0x9 PUSH1 0x0 DUP5 PUSH4 0xFFFFFFFF AND PUSH4 0xFFFFFFFF AND DUP2 MSTORE PUSH1 0x20 ADD SWAP1 DUP2 MSTORE PUSH1 0x20 ADD PUSH1 0x0 KECCAK256 PUSH1 0x0 PUSH2 0x100 EXP DUP2 SLOAD DUP2 PUSH1 0xFF MUL NOT AND SWAP1 DUP4 ISZERO ISZERO MUL OR SWAP1 SSTORE POP POP POP JUMP JUMPDEST PUSH1 0x0 DUP1 PUSH2 0x2710 DUP4 PUSH2 0x2E7A SWAP2 SWAP1 PUSH2 0x56E4 JUMP JUMPDEST SWAP1 POP PUSH1 0x0 PUSH1 0x64 DUP1 DUP6 PUSH2 0x2E8C SWAP2 SWAP1 PUSH2 0x56E4 JUMP JUMPDEST PUSH2 0x2E96 SWAP2 SWAP1 PUSH2 0x5715 JUMP JUMPDEST SWAP1 POP PUSH1 0x0 PUSH1 0x64 DUP6 PUSH2 0x2EA7 SWAP2 SWAP1 PUSH2 0x5715 JUMP JUMPDEST SWAP1 POP PUSH2 0x7B2 DUP4 PUSH2 0xFFFF AND LT ISZERO PUSH2 0x2EF2 JUMPI PUSH1 0x40 MLOAD PUSH32 0x8C379A000000000000000000000000000000000000000000000000000000000 DUP2 MSTORE PUSH1 0x4 ADD PUSH2 0x2EE9 SWAP1 PUSH2 0x57B8 JUMP JUMPDEST PUSH1 0x40 MLOAD DUP1 SWAP2 SUB SWAP1 REVERT JUMPDEST PUSH1 0x1 DUP3 PUSH1 0xFF AND LT ISZERO DUP1 ISZERO PUSH2 0x2F0A JUMPI POP PUSH1 0xC DUP3 PUSH1 0xFF AND GT ISZERO JUMPDEST PUSH2 0x2F49 JUMPI PUSH1 0x40 MLOAD PUSH32 0x8C379A000000000000000000000000000000000000000000000000000000000 DUP2 MSTORE PUSH1 0x4 ADD PUSH2 0x2F40 SWAP1 PUSH2 0x5824 JUMP JUMPDEST PUSH1 0x40 MLOAD DUP1 SWAP2 SUB SWAP1 REVERT JUMPDEST PUSH1 0x1 DUP2 PUSH1 0xFF AND LT ISZERO DUP1 ISZERO PUSH2 0x2F61 JUMPI POP PUSH1 0x1F DUP2 PUSH1 0xFF AND GT ISZERO JUMPDEST PUSH2 0x2FA0 JUMPI PUSH1 0x40 MLOAD PUSH32 0x8C379A000000000000000000000000000000000000000000000000000000000 DUP2 MSTORE PUSH1 0x4 ADD PUSH2 0x2F97 SWAP1 PUSH2 0x5890 JUMP JUMPDEST PUSH1 0x40 MLOAD DUP1 SWAP2 SUB SWAP1 REVERT JUMPDEST PUSH1 0x0 PUSH2 0x2FAD DUP5 DUP5 DUP5 PUSH2 0x31DF JUMP JUMPDEST SWAP1 POP DUP1 SWAP5 POP POP POP POP POP SWAP2 SWAP1 POP JUMP JUMPDEST PUSH1 0x0 DUP1 PUSH1 0x0 SWAP1 POP JUMPDEST PUSH1 0x7 PUSH1 0x0 SWAP1 SLOAD SWAP1 PUSH2 0x100 EXP SWAP1 DIV PUSH4 0xFFFFFFFF AND PUSH4 0xFFFFFFFF AND DUP2 PUSH4 0xFFFFFFFF AND LT ISZERO PUSH2 0x303E JUMPI DUP3 DUP1 MLOAD SWAP1 PUSH1 0x20 ADD KECCAK256 PUSH1 0xB PUSH1 0x0 DUP4 PUSH4 0xFFFFFFFF AND DUP2 MSTORE PUSH1 0x20 ADD SWAP1 DUP2 MSTORE PUSH1 0x20 ADD PUSH1 0x0 KECCAK256 PUSH1 0x2 ADD PUSH1 0x40 MLOAD PUSH2 0x301A SWAP2 SWAP1 PUSH2 0x5953 JUMP JUMPDEST PUSH1 0x40 MLOAD DUP1 SWAP2 SUB SWAP1 KECCAK256 SUB PUSH2 0x3031 JUMPI PUSH1 0x1 SWAP2 POP POP PUSH2 0x3044 JUMP JUMPDEST DUP1 DUP1 PUSH1 0x1 ADD SWAP2 POP POP PUSH2 0x2FC3 JUMP JUMPDEST POP PUSH1 0x0 SWAP1 POP JUMPDEST SWAP2 SWAP1 POP JUMP JUMPDEST PUSH1 0x60 PUSH1 0x0 DUP1 SLOAD SWAP1 PUSH2 0x100 EXP SWAP1 DIV PUSH20 0xFFFFFFFFFFFFFFFFFFFFFFFFFFFFFFFFFFFFFFFF AND PUSH20 0xFFFFFFFFFFFFFFFFFFFFFFFFFFFFFFFFFFFFFFFF AND CALLER PUSH20 0xFFFFFFFFFFFFFFFFFFFFFFFFFFFFFFFFFFFFFFFF AND EQ PUSH2 0x30D9 JUMPI PUSH1 0x40 MLOAD PUSH32 0x8C379A000000000000000000000000000000000000000000000000000000000 DUP2 MSTORE PUSH1 0x4 ADD PUSH2 0x30D0 SWAP1 PUSH2 0x42E5 JUMP JUMPDEST PUSH1 0x40 MLOAD DUP1 SWAP2 SUB SWAP1 REVERT JUMPDEST PUSH1 0x7 PUSH1 0x4 SWAP1 SLOAD SWAP1 PUSH2 0x100 EXP SWAP1 DIV PUSH20 0xFFFFFFFFFFFFFFFFFFFFFFFFFFFFFFFFFFFFFFFF AND PUSH20 0xFFFFFFFFFFFFFFFFFFFFFFFFFFFFFFFFFFFFFFFF AND PUSH4 0xD0DEF521 CALLER DUP6 DUP6 PUSH1 0x40 MLOAD DUP5 PUSH4 0xFFFFFFFF AND PUSH1 0xE0 SHL DUP2 MSTORE PUSH1 0x4 ADD PUSH2 0x3138 SWAP4 SWAP3 SWAP2 SWAP1 PUSH2 0x565F JUMP JUMPDEST PUSH1 0x20 PUSH1 0x40 MLOAD DUP1 DUP4 SUB DUP2 PUSH1 0x0 DUP8 GAS CALL ISZERO DUP1 ISZERO PUSH2 0x3157 JUMPI RETURNDATASIZE PUSH1 0x0 DUP1 RETURNDATACOPY RETURNDATASIZE PUSH1 0x0 REVERT JUMPDEST POP POP POP POP PUSH1 0x40 MLOAD RETURNDATASIZE PUSH1 0x1F NOT PUSH1 0x1F DUP3 ADD AND DUP3 ADD DUP1 PUSH1 0x40 MSTORE POP DUP2 ADD SWAP1 PUSH2 0x317B SWAP2 SWAP1 PUSH2 0x5226 JUMP JUMPDEST POP DUP3 DUP3 DUP1 DUP1 PUSH1 0x1F ADD PUSH1 0x20 DUP1 SWAP2 DIV MUL PUSH1 0x20 ADD PUSH1 0x40 MLOAD SWAP1 DUP2 ADD PUSH1 0x40 MSTORE DUP1 SWAP4 SWAP3 SWAP2 SWAP1 DUP2 DUP2 MSTORE PUSH1 0x20 ADD DUP4 DUP4 DUP1 DUP3 DUP5 CALLDATACOPY PUSH1 0x0 DUP2 DUP5 ADD MSTORE PUSH1 0x1F NOT PUSH1 0x1F DUP3 ADD AND SWAP1 POP DUP1 DUP4 ADD SWAP3 POP POP POP POP POP POP POP SWAP1 POP SWAP3 SWAP2 POP POP JUMP JUMPDEST PUSH1 0x0 DUP2 DUP4 PUSH2 0x31D7 SWAP2 SWAP1 PUSH2 0x596A JUMP JUMPDEST SWAP1 POP SWAP3 SWAP2 POP POP JUMP JUMPDEST PUSH1 0x0 DUP1 PUSH4 0x1E13380 PUSH2 0x7B2 DUP7 PUSH2 0xFFFF AND PUSH2 0x31F9 SWAP2 SWAP1 PUSH2 0x596A JUMP JUMPDEST PUSH2 0x3203 SWAP2 SWAP1 PUSH2 0x599E JUMP JUMPDEST SWAP1 POP PUSH1 0x0 PUSH1 0x1 SWAP1 POP JUMPDEST DUP5 PUSH1 0xFF AND DUP2 PUSH1 0xFF AND LT ISZERO PUSH2 0x3288 JUMPI PUSH1 0x2 DUP2 PUSH1 0xFF AND EQ DUP1 ISZERO PUSH2 0x3232 JUMPI POP PUSH2 0x3231 DUP7 PUSH2 0x32BF JUMP JUMPDEST JUMPDEST ISZERO PUSH2 0x324D JUMPI PUSH3 0x263B80 DUP3 PUSH2 0x3246 SWAP2 SWAP1 PUSH2 0x4E78 JUMP JUMPDEST SWAP2 POP PUSH2 0x327B JUMP JUMPDEST PUSH3 0x15180 PUSH2 0x325B DUP3 DUP9 PUSH2 0x3314 JUMP JUMPDEST PUSH1 0xFF AND PUSH2 0x3268 SWAP2 SWAP1 PUSH2 0x59EF JUMP JUMPDEST PUSH3 0xFFFFFF AND DUP3 PUSH2 0x3278 SWAP2 SWAP1 PUSH2 0x4E78 JUMP JUMPDEST SWAP2 POP JUMPDEST DUP1 DUP1 PUSH1 0x1 ADD SWAP2 POP POP PUSH2 0x320C JUMP JUMPDEST POP PUSH3 0x15180 PUSH1 0x1 DUP5 PUSH1 0xFF AND PUSH2 0x329D SWAP2 SWAP1 PUSH2 0x596A JUMP JUMPDEST PUSH2 0x32A7 SWAP2 SWAP1 PUSH2 0x599E JUMP JUMPDEST DUP2 PUSH2 0x32B2 SWAP2 SWAP1 PUSH2 0x4E78 JUMP JUMPDEST SWAP1 POP DUP1 SWAP2 POP POP SWAP4 SWAP3 POP POP POP JUMP JUMPDEST PUSH1 0x0 DUP1 PUSH1 0x4 DUP4 PUSH2 0x32CF SWAP2 SWAP1 PUSH2 0x5A2C JUMP JUMPDEST PUSH2 0xFFFF AND EQ DUP1 ISZERO PUSH2 0x330D JUMPI POP PUSH1 0x0 PUSH1 0x64 DUP4 PUSH2 0x32EA SWAP2 SWAP1 PUSH2 0x5A2C JUMP JUMPDEST PUSH2 0xFFFF AND EQ ISZERO DUP1 PUSH2 0x330C JUMPI POP PUSH1 0x0 PUSH2 0x190 DUP4 PUSH2 0x3306 SWAP2 SWAP1 PUSH2 0x5A2C JUMP JUMPDEST PUSH2 0xFFFF AND EQ JUMPDEST JUMPDEST SWAP1 POP SWAP2 SWAP1 POP JUMP JUMPDEST PUSH1 0x0 PUSH1 0x2 DUP4 PUSH1 0xFF AND EQ DUP1 ISZERO PUSH2 0x332E JUMPI POP PUSH2 0x332D DUP3 PUSH2 0x32BF JUMP JUMPDEST JUMPDEST ISZERO PUSH2 0x333C JUMPI PUSH1 0x1D SWAP1 POP PUSH2 0x33ED JUMP JUMPDEST PUSH1 0x0 PUSH1 0x40 MLOAD DUP1 PUSH2 0x180 ADD PUSH1 0x40 MSTORE DUP1 PUSH1 0x1F PUSH1 0xFF AND DUP2 MSTORE PUSH1 0x20 ADD PUSH1 0x1C PUSH1 0xFF AND DUP2 MSTORE PUSH1 0x20 ADD PUSH1 0x1F PUSH1 0xFF AND DUP2 MSTORE PUSH1 0x20 ADD PUSH1 0x1E PUSH1 0xFF AND DUP2 MSTORE PUSH1 0x20 ADD PUSH1 0x1F PUSH1 0xFF AND DUP2 MSTORE PUSH1 0x20 ADD PUSH1 0x1E PUSH1 0xFF AND DUP2 MSTORE PUSH1 0x20 ADD PUSH1 0x1F PUSH1 0xFF AND DUP2 MSTORE PUSH1 0x20 ADD PUSH1 0x1F PUSH1 0xFF AND DUP2 MSTORE PUSH1 0x20 ADD PUSH1 0x1E PUSH1 0xFF AND DUP2 MSTORE PUSH1 0x20 ADD PUSH1 0x1F PUSH1 0xFF AND DUP2 MSTORE PUSH1 0x20 ADD PUSH1 0x1E PUSH1 0xFF AND DUP2 MSTORE PUSH1 0x20 ADD PUSH1 0x1F PUSH1 0xFF AND DUP2 MSTORE POP SWAP1 POP DUP1 PUSH1 0x1 DUP6 PUSH2 0x33D0 SWAP2 SWAP1 PUSH2 0x5A6A JUMP JUMPDEST PUSH1 0xFF AND PUSH1 0xC DUP2 LT PUSH2 0x33E4 JUMPI PUSH2 0x33E3 PUSH2 0x45DE JUMP JUMPDEST JUMPDEST PUSH1 0x20 MUL ADD MLOAD SWAP2 POP POP JUMPDEST SWAP3 SWAP2 POP POP JUMP JUMPDEST DUP3 DUP1 SLOAD DUP3 DUP3 SSTORE SWAP1 PUSH1 0x0 MSTORE PUSH1 0x20 PUSH1 0x0 KECCAK256 SWAP1 DUP2 ADD SWAP3 DUP3 ISZERO PUSH2 0x342F JUMPI SWAP2 PUSH1 0x20 MUL DUP3 ADD JUMPDEST DUP3 DUP2 GT ISZERO PUSH2 0x342E JUMPI DUP3 MLOAD DUP3 SSTORE SWAP2 PUSH1 0x20 ADD SWAP2 SWAP1 PUSH1 0x1 ADD SWAP1 PUSH2 0x3413 JUMP JUMPDEST JUMPDEST POP SWAP1 POP PUSH2 0x343C SWAP2 SWAP1 PUSH2 0x355C JUMP JUMPDEST POP SWAP1 JUMP JUMPDEST DUP3 DUP1 SLOAD DUP3 DUP3 SSTORE SWAP1 PUSH1 0x0 MSTORE PUSH1 0x20 PUSH1 0x0 KECCAK256 SWAP1 PUSH1 0xF ADD PUSH1 0x10 SWAP1 DIV DUP2 ADD SWAP3 DUP3 ISZERO PUSH2 0x34D9 JUMPI SWAP2 PUSH1 0x20 MUL DUP3 ADD PUSH1 0x0 JUMPDEST DUP4 DUP3 GT ISZERO PUSH2 0x34A9 JUMPI DUP4 MLOAD DUP4 DUP3 PUSH2 0x100 EXP DUP2 SLOAD DUP2 PUSH2 0xFFFF MUL NOT AND SWAP1 DUP4 PUSH2 0xFFFF AND MUL OR SWAP1 SSTORE POP SWAP3 PUSH1 0x20 ADD SWAP3 PUSH1 0x2 ADD PUSH1 0x20 DUP2 PUSH1 0x1 ADD DIV SWAP3 DUP4 ADD SWAP3 PUSH1 0x1 SUB MUL PUSH2 0x3469 JUMP JUMPDEST DUP1 ISZERO PUSH2 0x34D7 JUMPI DUP3 DUP2 PUSH2 0x100 EXP DUP2 SLOAD SWAP1 PUSH2 0xFFFF MUL NOT AND SWAP1 SSTORE PUSH1 0x2 ADD PUSH1 0x20 DUP2 PUSH1 0x1 ADD DIV SWAP3 DUP4 ADD SWAP3 PUSH1 0x1 SUB MUL PUSH2 0x34A9 JUMP JUMPDEST POP JUMPDEST POP SWAP1 POP PUSH2 0x34E6 SWAP2 SWAP1 PUSH2 0x355C JUMP JUMPDEST POP SWAP1 JUMP JUMPDEST POP DUP1 SLOAD PUSH2 0x34F6 SWAP1 PUSH2 0x43E2 JUMP JUMPDEST PUSH1 0x0 DUP3 SSTORE DUP1 PUSH1 0x1F LT PUSH2 0x3508 JUMPI POP PUSH2 0x3527 JUMP JUMPDEST PUSH1 0x1F ADD PUSH1 0x20 SWAP1 DIV SWAP1 PUSH1 0x0 MSTORE PUSH1 0x20 PUSH1 0x0 KECCAK256 SWAP1 DUP2 ADD SWAP1 PUSH2 0x3526 SWAP2 SWAP1 PUSH2 0x355C JUMP JUMPDEST JUMPDEST POP JUMP JUMPDEST PUSH1 0x40 MLOAD DUP1 PUSH1 0x80 ADD PUSH1 0x40 MSTORE DUP1 PUSH1 0x0 DUP2 MSTORE PUSH1 0x20 ADD PUSH1 0x60 DUP2 MSTORE PUSH1 0x20 ADD PUSH1 0x0 PUSH2 0xFFFF AND DUP2 MSTORE PUSH1 0x20 ADD PUSH1 0x0 PUSH4 0xFFFFFFFF AND DUP2 MSTORE POP SWAP1 JUMP JUMPDEST JUMPDEST DUP1 DUP3 GT ISZERO PUSH2 0x3575 JUMPI PUSH1 0x0 DUP2 PUSH1 0x0 SWAP1 SSTORE POP PUSH1 0x1 ADD PUSH2 0x355D JUMP JUMPDEST POP SWAP1 JUMP JUMPDEST PUSH1 0x0 PUSH4 0xFFFFFFFF DUP3 AND SWAP1 POP SWAP2 SWAP1 POP JUMP JUMPDEST PUSH2 0x3592 DUP2 PUSH2 0x3579 JUMP JUMPDEST DUP3 MSTORE POP POP JUMP JUMPDEST PUSH1 0x0 PUSH1 0x20 DUP3 ADD SWAP1 POP PUSH2 0x35AD PUSH1 0x0 DUP4 ADD DUP5 PUSH2 0x3589 JUMP JUMPDEST SWAP3 SWAP2 POP POP JUMP JUMPDEST PUSH1 0x0 PUSH1 0x40 MLOAD SWAP1 POP SWAP1 JUMP JUMPDEST PUSH1 0x0 DUP1 REVERT JUMPDEST PUSH1 0x0 DUP1 REVERT JUMPDEST PUSH1 0x0 DUP2 SWAP1 POP SWAP2 SWAP1 POP JUMP JUMPDEST PUSH2 0x35DA DUP2 PUSH2 0x35C7 JUMP JUMPDEST DUP2 EQ PUSH2 0x35E5 JUMPI PUSH1 0x0 DUP1 REVERT JUMPDEST POP JUMP JUMPDEST PUSH1 0x0 DUP2 CALLDATALOAD SWAP1 POP PUSH2 0x35F7 DUP2 PUSH2 0x35D1 JUMP JUMPDEST SWAP3 SWAP2 POP POP JUMP JUMPDEST PUSH1 0x0 PUSH2 0xFFFF DUP3 AND SWAP1 POP SWAP2 SWAP1 POP JUMP JUMPDEST PUSH2 0x3614 DUP2 PUSH2 0x35FD JUMP JUMPDEST DUP2 EQ PUSH2 0x361F JUMPI PUSH1 0x0 DUP1 REVERT JUMPDEST POP JUMP JUMPDEST PUSH1 0x0 DUP2 CALLDATALOAD SWAP1 POP PUSH2 0x3631 DUP2 PUSH2 0x360B JUMP JUMPDEST SWAP3 SWAP2 POP POP JUMP JUMPDEST PUSH1 0x0 DUP1 PUSH1 0x40 DUP4 DUP6 SUB SLT ISZERO PUSH2 0x364E JUMPI PUSH2 0x364D PUSH2 0x35BD JUMP JUMPDEST JUMPDEST PUSH1 0x0 PUSH2 0x365C DUP6 DUP3 DUP7 ADD PUSH2 0x35E8 JUMP JUMPDEST SWAP3 POP POP PUSH1 0x20 PUSH2 0x366D DUP6 DUP3 DUP7 ADD PUSH2 0x3622 JUMP JUMPDEST SWAP2 POP POP SWAP3 POP SWAP3 SWAP1 POP JUMP JUMPDEST PUSH1 0x0 DUP1 REVERT JUMPDEST PUSH1 0x0 DUP1 REVERT JUMPDEST PUSH1 0x0 PUSH1 0x1F NOT PUSH1 0x1F DUP4 ADD AND SWAP1 POP SWAP2 SWAP1 POP JUMP JUMPDEST PUSH32 0x4E487B7100000000000000000000000000000000000000000000000000000000 PUSH1 0x0 MSTORE PUSH1 0x41 PUSH1 0x4 MSTORE PUSH1 0x24 PUSH1 0x0 REVERT JUMPDEST PUSH2 0x36CA DUP3 PUSH2 0x3681 JUMP JUMPDEST DUP2 ADD DUP2 DUP2 LT PUSH8 0xFFFFFFFFFFFFFFFF DUP3 GT OR ISZERO PUSH2 0x36E9 JUMPI PUSH2 0x36E8 PUSH2 0x3692 JUMP JUMPDEST JUMPDEST DUP1 PUSH1 0x40 MSTORE POP POP POP JUMP JUMPDEST PUSH1 0x0 PUSH2 0x36FC PUSH2 0x35B3 JUMP JUMPDEST SWAP1 POP PUSH2 0x3708 DUP3 DUP3 PUSH2 0x36C1 JUMP JUMPDEST SWAP2 SWAP1 POP JUMP JUMPDEST PUSH1 0x0 PUSH8 0xFFFFFFFFFFFFFFFF DUP3 GT ISZERO PUSH2 0x3728 JUMPI PUSH2 0x3727 PUSH2 0x3692 JUMP JUMPDEST JUMPDEST PUSH2 0x3731 DUP3 PUSH2 0x3681 JUMP JUMPDEST SWAP1 POP PUSH1 0x20 DUP2 ADD SWAP1 POP SWAP2 SWAP1 POP JUMP JUMPDEST DUP3 DUP2 DUP4 CALLDATACOPY PUSH1 0x0 DUP4 DUP4 ADD MSTORE POP POP POP JUMP JUMPDEST PUSH1 0x0 PUSH2 0x3760 PUSH2 0x375B DUP5 PUSH2 0x370D JUMP JUMPDEST PUSH2 0x36F2 JUMP JUMPDEST SWAP1 POP DUP3 DUP2 MSTORE PUSH1 0x20 DUP2 ADD DUP5 DUP5 DUP5 ADD GT ISZERO PUSH2 0x377C JUMPI PUSH2 0x377B PUSH2 0x367C JUMP JUMPDEST JUMPDEST PUSH2 0x3787 DUP5 DUP3 DUP6 PUSH2 0x373E JUMP JUMPDEST POP SWAP4 SWAP3 POP POP POP JUMP JUMPDEST PUSH1 0x0 DUP3 PUSH1 0x1F DUP4 ADD SLT PUSH2 0x37A4 JUMPI PUSH2 0x37A3 PUSH2 0x3677 JUMP JUMPDEST JUMPDEST DUP2 CALLDATALOAD PUSH2 0x37B4 DUP5 DUP3 PUSH1 0x20 DUP7 ADD PUSH2 0x374D JUMP JUMPDEST SWAP2 POP POP SWAP3 SWAP2 POP POP JUMP JUMPDEST PUSH1 0x0 DUP1 PUSH1 0x40 DUP4 DUP6 SUB SLT ISZERO PUSH2 0x37D4 JUMPI PUSH2 0x37D3 PUSH2 0x35BD JUMP JUMPDEST JUMPDEST PUSH1 0x0 DUP4 ADD CALLDATALOAD PUSH8 0xFFFFFFFFFFFFFFFF DUP2 GT ISZERO PUSH2 0x37F2 JUMPI PUSH2 0x37F1 PUSH2 0x35C2 JUMP JUMPDEST JUMPDEST PUSH2 0x37FE DUP6 DUP3 DUP7 ADD PUSH2 0x378F JUMP JUMPDEST SWAP3 POP POP PUSH1 0x20 DUP4 ADD CALLDATALOAD PUSH8 0xFFFFFFFFFFFFFFFF DUP2 GT ISZERO PUSH2 0x381F JUMPI PUSH2 0x381E PUSH2 0x35C2 JUMP JUMPDEST JUMPDEST PUSH2 0x382B DUP6 DUP3 DUP7 ADD PUSH2 0x378F JUMP JUMPDEST SWAP2 POP POP SWAP3 POP SWAP3 SWAP1 POP JUMP JUMPDEST PUSH2 0x383E DUP2 PUSH2 0x35FD JUMP JUMPDEST DUP3 MSTORE POP POP JUMP JUMPDEST PUSH1 0x0 PUSH1 0x20 DUP3 ADD SWAP1 POP PUSH2 0x3859 PUSH1 0x0 DUP4 ADD DUP5 PUSH2 0x3835 JUMP JUMPDEST SWAP3 SWAP2 POP POP JUMP JUMPDEST PUSH2 0x3868 DUP2 PUSH2 0x3579 JUMP JUMPDEST DUP2 EQ PUSH2 0x3873 JUMPI PUSH1 0x0 DUP1 REVERT JUMPDEST POP JUMP JUMPDEST PUSH1 0x0 DUP2 CALLDATALOAD SWAP1 POP PUSH2 0x3885 DUP2 PUSH2 0x385F JUMP JUMPDEST SWAP3 SWAP2 POP POP JUMP JUMPDEST PUSH1 0x0 DUP1 PUSH1 0x40 DUP4 DUP6 SUB SLT ISZERO PUSH2 0x38A2 JUMPI PUSH2 0x38A1 PUSH2 0x35BD JUMP JUMPDEST JUMPDEST PUSH1 0x0 PUSH2 0x38B0 DUP6 DUP3 DUP7 ADD PUSH2 0x3876 JUMP JUMPDEST SWAP3 POP POP PUSH1 0x20 PUSH2 0x38C1 DUP6 DUP3 DUP7 ADD PUSH2 0x3622 JUMP JUMPDEST SWAP2 POP POP SWAP3 POP SWAP3 SWAP1 POP JUMP JUMPDEST PUSH1 0x0 DUP1 PUSH1 0x40 DUP4 DUP6 SUB SLT ISZERO PUSH2 0x38E2 JUMPI PUSH2 0x38E1 PUSH2 0x35BD JUMP JUMPDEST JUMPDEST PUSH1 0x0 PUSH2 0x38F0 DUP6 DUP3 DUP7 ADD PUSH2 0x35E8 JUMP JUMPDEST SWAP3 POP POP PUSH1 0x20 DUP4 ADD CALLDATALOAD PUSH8 0xFFFFFFFFFFFFFFFF DUP2 GT ISZERO PUSH2 0x3911 JUMPI PUSH2 0x3910 PUSH2 0x35C2 JUMP JUMPDEST JUMPDEST PUSH2 0x391D DUP6 DUP3 DUP7 ADD PUSH2 0x378F JUMP JUMPDEST SWAP2 POP POP SWAP3 POP SWAP3 SWAP1 POP JUMP JUMPDEST PUSH2 0x3930 DUP2 PUSH2 0x35C7 JUMP JUMPDEST DUP3 MSTORE POP POP JUMP JUMPDEST PUSH1 0x0 PUSH1 0x20 DUP3 ADD SWAP1 POP PUSH2 0x394B PUSH1 0x0 DUP4 ADD DUP5 PUSH2 0x3927 JUMP JUMPDEST SWAP3 SWAP2 POP POP JUMP JUMPDEST PUSH1 0x0 DUP1 REVERT JUMPDEST PUSH1 0x0 DUP1 REVERT JUMPDEST PUSH1 0x0 DUP1 DUP4 PUSH1 0x1F DUP5 ADD SLT PUSH2 0x3971 JUMPI PUSH2 0x3970 PUSH2 0x3677 JUMP JUMPDEST JUMPDEST DUP3 CALLDATALOAD SWAP1 POP PUSH8 0xFFFFFFFFFFFFFFFF DUP2 GT ISZERO PUSH2 0x398E JUMPI PUSH2 0x398D PUSH2 0x3951 JUMP JUMPDEST JUMPDEST PUSH1 0x20 DUP4 ADD SWAP2 POP DUP4 PUSH1 0x1 DUP3 MUL DUP4 ADD GT ISZERO PUSH2 0x39AA JUMPI PUSH2 0x39A9 PUSH2 0x3956 JUMP JUMPDEST JUMPDEST SWAP3 POP SWAP3 SWAP1 POP JUMP JUMPDEST PUSH1 0x0 DUP1 PUSH1 0x0 DUP1 PUSH1 0x60 DUP6 DUP8 SUB SLT ISZERO PUSH2 0x39CB JUMPI PUSH2 0x39CA PUSH2 0x35BD JUMP JUMPDEST JUMPDEST PUSH1 0x0 PUSH2 0x39D9 DUP8 DUP3 DUP9 ADD PUSH2 0x3876 JUMP JUMPDEST SWAP5 POP POP PUSH1 0x20 PUSH2 0x39EA DUP8 DUP3 DUP9 ADD PUSH2 0x3876 JUMP JUMPDEST SWAP4 POP POP PUSH1 0x40 DUP6 ADD CALLDATALOAD PUSH8 0xFFFFFFFFFFFFFFFF DUP2 GT ISZERO PUSH2 0x3A0B JUMPI PUSH2 0x3A0A PUSH2 0x35C2 JUMP JUMPDEST JUMPDEST PUSH2 0x3A17 DUP8 DUP3 DUP9 ADD PUSH2 0x395B JUMP JUMPDEST SWAP3 POP SWAP3 POP POP SWAP3 SWAP6 SWAP2 SWAP5 POP SWAP3 POP JUMP JUMPDEST PUSH1 0x0 PUSH1 0x20 DUP3 DUP5 SUB SLT ISZERO PUSH2 0x3A3B JUMPI PUSH2 0x3A3A PUSH2 0x35BD JUMP JUMPDEST JUMPDEST PUSH1 0x0 PUSH2 0x3A49 DUP5 DUP3 DUP6 ADD PUSH2 0x3876 JUMP JUMPDEST SWAP2 POP POP SWAP3 SWAP2 POP POP JUMP JUMPDEST PUSH1 0x0 DUP2 ISZERO ISZERO SWAP1 POP SWAP2 SWAP1 POP JUMP JUMPDEST PUSH2 0x3A67 DUP2 PUSH2 0x3A52 JUMP JUMPDEST DUP3 MSTORE POP POP JUMP JUMPDEST PUSH1 0x0 PUSH1 0x20 DUP3 ADD SWAP1 POP PUSH2 0x3A82 PUSH1 0x0 DUP4 ADD DUP5 PUSH2 0x3A5E JUMP JUMPDEST SWAP3 SWAP2 POP POP JUMP JUMPDEST PUSH1 0x0 PUSH1 0x20 DUP3 DUP5 SUB SLT ISZERO PUSH2 0x3A9E JUMPI PUSH2 0x3A9D PUSH2 0x35BD JUMP JUMPDEST JUMPDEST PUSH1 0x0 DUP3 ADD CALLDATALOAD PUSH8 0xFFFFFFFFFFFFFFFF DUP2 GT ISZERO PUSH2 0x3ABC JUMPI PUSH2 0x3ABB PUSH2 0x35C2 JUMP JUMPDEST JUMPDEST PUSH2 0x3AC8 DUP5 DUP3 DUP6 ADD PUSH2 0x378F JUMP JUMPDEST SWAP2 POP POP SWAP3 SWAP2 POP POP JUMP JUMPDEST PUSH1 0x0 DUP2 SWAP1 POP SWAP2 SWAP1 POP JUMP JUMPDEST PUSH2 0x3AE4 DUP2 PUSH2 0x3AD1 JUMP JUMPDEST DUP3 MSTORE POP POP JUMP JUMPDEST PUSH1 0x0 PUSH1 0x20 DUP3 ADD SWAP1 POP PUSH2 0x3AFF PUSH1 0x0 DUP4 ADD DUP5 PUSH2 0x3ADB JUMP JUMPDEST SWAP3 SWAP2 POP POP JUMP JUMPDEST PUSH1 0x0 DUP2 MLOAD SWAP1 POP SWAP2 SWAP1 POP JUMP JUMPDEST PUSH1 0x0 DUP3 DUP3 MSTORE PUSH1 0x20 DUP3 ADD SWAP1 POP SWAP3 SWAP2 POP POP JUMP JUMPDEST PUSH1 0x0 DUP2 SWAP1 POP PUSH1 0x20 DUP3 ADD SWAP1 POP SWAP2 SWAP1 POP JUMP JUMPDEST PUSH2 0x3B3A DUP2 PUSH2 0x35C7 JUMP JUMPDEST DUP3 MSTORE POP POP JUMP JUMPDEST PUSH1 0x0 PUSH2 0x3B4C DUP4 DUP4 PUSH2 0x3B31 JUMP JUMPDEST PUSH1 0x20 DUP4 ADD SWAP1 POP SWAP3 SWAP2 POP POP JUMP JUMPDEST PUSH1 0x0 PUSH1 0x20 DUP3 ADD SWAP1 POP SWAP2 SWAP1 POP JUMP JUMPDEST PUSH1 0x0 PUSH2 0x3B70 DUP3 PUSH2 0x3B05 JUMP JUMPDEST PUSH2 0x3B7A DUP2 DUP6 PUSH2 0x3B10 JUMP JUMPDEST SWAP4 POP PUSH2 0x3B85 DUP4 PUSH2 0x3B21 JUMP JUMPDEST DUP1 PUSH1 0x0 JUMPDEST DUP4 DUP2 LT ISZERO PUSH2 0x3BB6 JUMPI DUP2 MLOAD PUSH2 0x3B9D DUP9 DUP3 PUSH2 0x3B40 JUMP JUMPDEST SWAP8 POP PUSH2 0x3BA8 DUP4 PUSH2 0x3B58 JUMP JUMPDEST SWAP3 POP POP PUSH1 0x1 DUP2 ADD SWAP1 POP PUSH2 0x3B89 JUMP JUMPDEST POP DUP6 SWAP4 POP POP POP POP SWAP3 SWAP2 POP POP JUMP JUMPDEST PUSH1 0x0 DUP2 MLOAD SWAP1 POP SWAP2 SWAP1 POP JUMP JUMPDEST PUSH1 0x0 DUP3 DUP3 MSTORE PUSH1 0x20 DUP3 ADD SWAP1 POP SWAP3 SWAP2 POP POP JUMP JUMPDEST PUSH1 0x0 DUP2 SWAP1 POP PUSH1 0x20 DUP3 ADD SWAP1 POP SWAP2 SWAP1 POP JUMP JUMPDEST PUSH2 0x3BF8 DUP2 PUSH2 0x35FD JUMP JUMPDEST DUP3 MSTORE POP POP JUMP JUMPDEST PUSH1 0x0 PUSH2 0x3C0A DUP4 DUP4 PUSH2 0x3BEF JUMP JUMPDEST PUSH1 0x20 DUP4 ADD SWAP1 POP SWAP3 SWAP2 POP POP JUMP JUMPDEST PUSH1 0x0 PUSH1 0x20 DUP3 ADD SWAP1 POP SWAP2 SWAP1 POP JUMP JUMPDEST PUSH1 0x0 PUSH2 0x3C2E DUP3 PUSH2 0x3BC3 JUMP JUMPDEST PUSH2 0x3C38 DUP2 DUP6 PUSH2 0x3BCE JUMP JUMPDEST SWAP4 POP PUSH2 0x3C43 DUP4 PUSH2 0x3BDF JUMP JUMPDEST DUP1 PUSH1 0x0 JUMPDEST DUP4 DUP2 LT ISZERO PUSH2 0x3C74 JUMPI DUP2 MLOAD PUSH2 0x3C5B DUP9 DUP3 PUSH2 0x3BFE JUMP JUMPDEST SWAP8 POP PUSH2 0x3C66 DUP4 PUSH2 0x3C16 JUMP JUMPDEST SWAP3 POP POP PUSH1 0x1 DUP2 ADD SWAP1 POP PUSH2 0x3C47 JUMP JUMPDEST POP DUP6 SWAP4 POP POP POP POP SWAP3 SWAP2 POP POP JUMP JUMPDEST PUSH1 0x0 PUSH1 0x40 DUP3 ADD SWAP1 POP DUP2 DUP2 SUB PUSH1 0x0 DUP4 ADD MSTORE PUSH2 0x3C9B DUP2 DUP6 PUSH2 0x3B65 JUMP JUMPDEST SWAP1 POP DUP2 DUP2 SUB PUSH1 0x20 DUP4 ADD MSTORE PUSH2 0x3CAF DUP2 DUP5 PUSH2 0x3C23 JUMP JUMPDEST SWAP1 POP SWAP4 SWAP3 POP POP POP JUMP JUMPDEST PUSH1 0x0 DUP2 MLOAD SWAP1 POP SWAP2 SWAP1 POP JUMP JUMPDEST PUSH1 0x0 DUP3 DUP3 MSTORE PUSH1 0x20 DUP3 ADD SWAP1 POP SWAP3 SWAP2 POP POP JUMP JUMPDEST PUSH1 0x0 JUMPDEST DUP4 DUP2 LT ISZERO PUSH2 0x3CF2 JUMPI DUP1 DUP3 ADD MLOAD DUP2 DUP5 ADD MSTORE PUSH1 0x20 DUP2 ADD SWAP1 POP PUSH2 0x3CD7 JUMP JUMPDEST PUSH1 0x0 DUP5 DUP5 ADD MSTORE POP POP POP POP JUMP JUMPDEST PUSH1 0x0 PUSH2 0x3D09 DUP3 PUSH2 0x3CB8 JUMP JUMPDEST PUSH2 0x3D13 DUP2 DUP6 PUSH2 0x3CC3 JUMP JUMPDEST SWAP4 POP PUSH2 0x3D23 DUP2 DUP6 PUSH1 0x20 DUP7 ADD PUSH2 0x3CD4 JUMP JUMPDEST PUSH2 0x3D2C DUP2 PUSH2 0x3681 JUMP JUMPDEST DUP5 ADD SWAP2 POP POP SWAP3 SWAP2 POP POP JUMP JUMPDEST PUSH1 0x0 PUSH1 0x20 DUP3 ADD SWAP1 POP DUP2 DUP2 SUB PUSH1 0x0 DUP4 ADD MSTORE PUSH2 0x3D51 DUP2 DUP5 PUSH2 0x3CFE JUMP JUMPDEST SWAP1 POP SWAP3 SWAP2 POP POP JUMP JUMPDEST PUSH1 0x0 DUP2 MLOAD SWAP1 POP SWAP2 SWAP1 POP JUMP JUMPDEST PUSH1 0x0 DUP3 DUP3 MSTORE PUSH1 0x20 DUP3 ADD SWAP1 POP SWAP3 SWAP2 POP POP JUMP JUMPDEST PUSH1 0x0 DUP2 SWAP1 POP PUSH1 0x20 DUP3 ADD SWAP1 POP SWAP2 SWAP1 POP JUMP JUMPDEST PUSH1 0x0 DUP3 DUP3 MSTORE PUSH1 0x20 DUP3 ADD SWAP1 POP SWAP3 SWAP2 POP POP JUMP JUMPDEST PUSH1 0x0 PUSH2 0x3DA1 DUP3 PUSH2 0x3CB8 JUMP JUMPDEST PUSH2 0x3DAB DUP2 DUP6 PUSH2 0x3D85 JUMP JUMPDEST SWAP4 POP PUSH2 0x3DBB DUP2 DUP6 PUSH1 0x20 DUP7 ADD PUSH2 0x3CD4 JUMP JUMPDEST PUSH2 0x3DC4 DUP2 PUSH2 0x3681 JUMP JUMPDEST DUP5 ADD SWAP2 POP POP SWAP3 SWAP2 POP POP JUMP JUMPDEST PUSH1 0x0 PUSH2 0x3DDB DUP4 DUP4 PUSH2 0x3D96 JUMP JUMPDEST SWAP1 POP SWAP3 SWAP2 POP POP JUMP JUMPDEST PUSH1 0x0 PUSH1 0x20 DUP3 ADD SWAP1 POP SWAP2 SWAP1 POP JUMP JUMPDEST PUSH1 0x0 PUSH2 0x3DFB DUP3 PUSH2 0x3D59 JUMP JUMPDEST PUSH2 0x3E05 DUP2 DUP6 PUSH2 0x3D64 JUMP JUMPDEST SWAP4 POP DUP4 PUSH1 0x20 DUP3 MUL DUP6 ADD PUSH2 0x3E17 DUP6 PUSH2 0x3D75 JUMP JUMPDEST DUP1 PUSH1 0x0 JUMPDEST DUP6 DUP2 LT ISZERO PUSH2 0x3E53 JUMPI DUP5 DUP5 SUB DUP10 MSTORE DUP2 MLOAD PUSH2 0x3E34 DUP6 DUP3 PUSH2 0x3DCF JUMP JUMPDEST SWAP5 POP PUSH2 0x3E3F DUP4 PUSH2 0x3DE3 JUMP JUMPDEST SWAP3 POP PUSH1 0x20 DUP11 ADD SWAP10 POP POP PUSH1 0x1 DUP2 ADD SWAP1 POP PUSH2 0x3E1B JUMP JUMPDEST POP DUP3 SWAP8 POP DUP8 SWAP6 POP POP POP POP POP POP SWAP3 SWAP2 POP POP JUMP JUMPDEST PUSH1 0x0 PUSH1 0x60 DUP3 ADD SWAP1 POP DUP2 DUP2 SUB PUSH1 0x0 DUP4 ADD MSTORE PUSH2 0x3E7F DUP2 DUP7 PUSH2 0x3B65 JUMP JUMPDEST SWAP1 POP DUP2 DUP2 SUB PUSH1 0x20 DUP4 ADD MSTORE PUSH2 0x3E93 DUP2 DUP6 PUSH2 0x3DF0 JUMP JUMPDEST SWAP1 POP DUP2 DUP2 SUB PUSH1 0x40 DUP4 ADD MSTORE PUSH2 0x3EA7 DUP2 DUP5 PUSH2 0x3DF0 JUMP JUMPDEST SWAP1 POP SWAP5 SWAP4 POP POP POP POP JUMP JUMPDEST PUSH1 0x0 PUSH1 0x20 DUP3 DUP5 SUB SLT ISZERO PUSH2 0x3EC7 JUMPI PUSH2 0x3EC6 PUSH2 0x35BD JUMP JUMPDEST JUMPDEST PUSH1 0x0 PUSH2 0x3ED5 DUP5 DUP3 DUP6 ADD PUSH2 0x35E8 JUMP JUMPDEST SWAP2 POP POP SWAP3 SWAP2 POP POP JUMP JUMPDEST PUSH2 0x3EE7 DUP2 PUSH2 0x3579 JUMP JUMPDEST DUP3 MSTORE POP POP JUMP JUMPDEST PUSH1 0x0 PUSH1 0x80 DUP4 ADD PUSH1 0x0 DUP4 ADD MLOAD PUSH2 0x3F05 PUSH1 0x0 DUP7 ADD DUP3 PUSH2 0x3B31 JUMP JUMPDEST POP PUSH1 0x20 DUP4 ADD MLOAD DUP5 DUP3 SUB PUSH1 0x20 DUP7 ADD MSTORE PUSH2 0x3F1D DUP3 DUP3 PUSH2 0x3D96 JUMP JUMPDEST SWAP2 POP POP PUSH1 0x40 DUP4 ADD MLOAD PUSH2 0x3F32 PUSH1 0x40 DUP7 ADD DUP3 PUSH2 0x3BEF JUMP JUMPDEST POP PUSH1 0x60 DUP4 ADD MLOAD PUSH2 0x3F45 PUSH1 0x60 DUP7 ADD DUP3 PUSH2 0x3EDE JUMP JUMPDEST POP DUP1 SWAP2 POP POP SWAP3 SWAP2 POP POP JUMP JUMPDEST PUSH1 0x0 PUSH1 0x20 DUP3 ADD SWAP1 POP DUP2 DUP2 SUB PUSH1 0x0 DUP4 ADD MSTORE PUSH2 0x3F6A DUP2 DUP5 PUSH2 0x3EED JUMP JUMPDEST SWAP1 POP SWAP3 SWAP2 POP POP JUMP JUMPDEST PUSH1 0x0 PUSH20 0xFFFFFFFFFFFFFFFFFFFFFFFFFFFFFFFFFFFFFFFF DUP3 AND SWAP1 POP SWAP2 SWAP1 POP JUMP JUMPDEST PUSH1 0x0 PUSH2 0x3F9D DUP3 PUSH2 0x3F72 JUMP JUMPDEST SWAP1 POP SWAP2 SWAP1 POP JUMP JUMPDEST PUSH2 0x3FAD DUP2 PUSH2 0x3F92 JUMP JUMPDEST DUP3 MSTORE POP POP JUMP JUMPDEST PUSH1 0x0 PUSH1 0x20 DUP3 ADD SWAP1 POP PUSH2 0x3FC8 PUSH1 0x0 DUP4 ADD DUP5 PUSH2 0x3FA4 JUMP JUMPDEST SWAP3 SWAP2 POP POP JUMP JUMPDEST PUSH2 0x3FD7 DUP2 PUSH2 0x3F92 JUMP JUMPDEST DUP2 EQ PUSH2 0x3FE2 JUMPI PUSH1 0x0 DUP1 REVERT JUMPDEST POP JUMP JUMPDEST PUSH1 0x0 DUP2 CALLDATALOAD SWAP1 POP PUSH2 0x3FF4 DUP2 PUSH2 0x3FCE JUMP JUMPDEST SWAP3 SWAP2 POP POP JUMP JUMPDEST PUSH1 0x0 PUSH1 0x20 DUP3 DUP5 SUB SLT ISZERO PUSH2 0x4010 JUMPI PUSH2 0x400F PUSH2 0x35BD JUMP JUMPDEST JUMPDEST PUSH1 0x0 PUSH2 0x401E DUP5 DUP3 DUP6 ADD PUSH2 0x3FE5 JUMP JUMPDEST SWAP2 POP POP SWAP3 SWAP2 POP POP JUMP JUMPDEST PUSH1 0x0 DUP1 PUSH1 0x0 PUSH1 0x60 DUP5 DUP7 SUB SLT ISZERO PUSH2 0x4040 JUMPI PUSH2 0x403F PUSH2 0x35BD JUMP JUMPDEST JUMPDEST PUSH1 0x0 DUP5 ADD CALLDATALOAD PUSH8 0xFFFFFFFFFFFFFFFF DUP2 GT ISZERO PUSH2 0x405E JUMPI PUSH2 0x405D PUSH2 0x35C2 JUMP JUMPDEST JUMPDEST PUSH2 0x406A DUP7 DUP3 DUP8 ADD PUSH2 0x378F JUMP JUMPDEST SWAP4 POP POP PUSH1 0x20 DUP5 ADD CALLDATALOAD PUSH8 0xFFFFFFFFFFFFFFFF DUP2 GT ISZERO PUSH2 0x408B JUMPI PUSH2 0x408A PUSH2 0x35C2 JUMP JUMPDEST JUMPDEST PUSH2 0x4097 DUP7 DUP3 DUP8 ADD PUSH2 0x378F JUMP JUMPDEST SWAP3 POP POP PUSH1 0x40 PUSH2 0x40A8 DUP7 DUP3 DUP8 ADD PUSH2 0x3622 JUMP JUMPDEST SWAP2 POP POP SWAP3 POP SWAP3 POP SWAP3 JUMP JUMPDEST PUSH1 0x0 DUP1 PUSH1 0x0 PUSH1 0x40 DUP5 DUP7 SUB SLT ISZERO PUSH2 0x40CB JUMPI PUSH2 0x40CA PUSH2 0x35BD JUMP JUMPDEST JUMPDEST PUSH1 0x0 PUSH2 0x40D9 DUP7 DUP3 DUP8 ADD PUSH2 0x3876 JUMP JUMPDEST SWAP4 POP POP PUSH1 0x20 DUP5 ADD CALLDATALOAD PUSH8 0xFFFFFFFFFFFFFFFF DUP2 GT ISZERO PUSH2 0x40FA JUMPI PUSH2 0x40F9 PUSH2 0x35C2 JUMP JUMPDEST JUMPDEST PUSH2 0x4106 DUP7 DUP3 DUP8 ADD PUSH2 0x395B JUMP JUMPDEST SWAP3 POP SWAP3 POP POP SWAP3 POP SWAP3 POP SWAP3 JUMP JUMPDEST PUSH1 0x0 PUSH1 0x60 DUP3 ADD SWAP1 POP PUSH2 0x4127 PUSH1 0x0 DUP4 ADD DUP7 PUSH2 0x3589 JUMP JUMPDEST PUSH2 0x4134 PUSH1 0x20 DUP4 ADD DUP6 PUSH2 0x3927 JUMP JUMPDEST DUP2 DUP2 SUB PUSH1 0x40 DUP4 ADD MSTORE PUSH2 0x4146 DUP2 DUP5 PUSH2 0x3CFE JUMP JUMPDEST SWAP1 POP SWAP5 SWAP4 POP POP POP POP JUMP JUMPDEST PUSH1 0x0 PUSH1 0x20 DUP3 ADD SWAP1 POP DUP2 DUP2 SUB PUSH1 0x0 DUP4 ADD MSTORE PUSH2 0x416A DUP2 DUP5 PUSH2 0x3B65 JUMP JUMPDEST SWAP1 POP SWAP3 SWAP2 POP POP JUMP JUMPDEST PUSH1 0x0 PUSH1 0x40 DUP3 ADD SWAP1 POP PUSH2 0x4187 PUSH1 0x0 DUP4 ADD DUP6 PUSH2 0x3927 JUMP JUMPDEST DUP2 DUP2 SUB PUSH1 0x20 DUP4 ADD MSTORE PUSH2 0x4199 DUP2 DUP5 PUSH2 0x3CFE JUMP JUMPDEST SWAP1 POP SWAP4 SWAP3 POP POP POP JUMP JUMPDEST PUSH1 0x0 DUP1 PUSH1 0x0 PUSH1 0x60 DUP5 DUP7 SUB SLT ISZERO PUSH2 0x41BB JUMPI PUSH2 0x41BA PUSH2 0x35BD JUMP JUMPDEST JUMPDEST PUSH1 0x0 PUSH2 0x41C9 DUP7 DUP3 DUP8 ADD PUSH2 0x35E8 JUMP JUMPDEST SWAP4 POP POP PUSH1 0x20 DUP5 ADD CALLDATALOAD PUSH8 0xFFFFFFFFFFFFFFFF DUP2 GT ISZERO PUSH2 0x41EA JUMPI PUSH2 0x41E9 PUSH2 0x35C2 JUMP JUMPDEST JUMPDEST PUSH2 0x41F6 DUP7 DUP3 DUP8 ADD PUSH2 0x378F JUMP JUMPDEST SWAP3 POP POP PUSH1 0x40 DUP5 ADD CALLDATALOAD PUSH8 0xFFFFFFFFFFFFFFFF DUP2 GT ISZERO PUSH2 0x4217 JUMPI PUSH2 0x4216 PUSH2 0x35C2 JUMP JUMPDEST JUMPDEST PUSH2 0x4223 DUP7 DUP3 DUP8 ADD PUSH2 0x378F JUMP JUMPDEST SWAP2 POP POP SWAP3 POP SWAP3 POP SWAP3 JUMP JUMPDEST PUSH2 0x4236 DUP2 PUSH2 0x3A52 JUMP JUMPDEST DUP2 EQ PUSH2 0x4241 JUMPI PUSH1 0x0 DUP1 REVERT JUMPDEST POP JUMP JUMPDEST PUSH1 0x0 DUP2 CALLDATALOAD SWAP1 POP PUSH2 0x4253 DUP2 PUSH2 0x422D JUMP JUMPDEST SWAP3 SWAP2 POP POP JUMP JUMPDEST PUSH1 0x0 DUP1 PUSH1 0x40 DUP4 DUP6 SUB SLT ISZERO PUSH2 0x4270 JUMPI PUSH2 0x426F PUSH2 0x35BD JUMP JUMPDEST JUMPDEST PUSH1 0x0 PUSH2 0x427E DUP6 DUP3 DUP7 ADD PUSH2 0x3876 JUMP JUMPDEST SWAP3 POP POP PUSH1 0x20 PUSH2 0x428F DUP6 DUP3 DUP7 ADD PUSH2 0x4244 JUMP JUMPDEST SWAP2 POP POP SWAP3 POP SWAP3 SWAP1 POP JUMP JUMPDEST PUSH32 0x43616C6C6572206973206E6F7420746865206F776E6572000000000000000000 PUSH1 0x0 DUP3 ADD MSTORE POP JUMP JUMPDEST PUSH1 0x0 PUSH2 0x42CF PUSH1 0x17 DUP4 PUSH2 0x3CC3 JUMP JUMPDEST SWAP2 POP PUSH2 0x42DA DUP3 PUSH2 0x4299 JUMP JUMPDEST PUSH1 0x20 DUP3 ADD SWAP1 POP SWAP2 SWAP1 POP JUMP JUMPDEST PUSH1 0x0 PUSH1 0x20 DUP3 ADD SWAP1 POP DUP2 DUP2 SUB PUSH1 0x0 DUP4 ADD MSTORE PUSH2 0x42FE DUP2 PUSH2 0x42C2 JUMP JUMPDEST SWAP1 POP SWAP2 SWAP1 POP JUMP JUMPDEST PUSH1 0x0 DUP2 MLOAD SWAP1 POP PUSH2 0x4314 DUP2 PUSH2 0x422D JUMP JUMPDEST SWAP3 SWAP2 POP POP JUMP JUMPDEST PUSH1 0x0 PUSH1 0x20 DUP3 DUP5 SUB SLT ISZERO PUSH2 0x4330 JUMPI PUSH2 0x432F PUSH2 0x35BD JUMP JUMPDEST JUMPDEST PUSH1 0x0 PUSH2 0x433E DUP5 DUP3 DUP6 ADD PUSH2 0x4305 JUMP JUMPDEST SWAP2 POP POP SWAP3 SWAP2 POP POP JUMP JUMPDEST PUSH32 0x546F6B656E20646F6573206E6F74206578697374000000000000000000000000 PUSH1 0x0 DUP3 ADD MSTORE POP JUMP JUMPDEST PUSH1 0x0 PUSH2 0x437D PUSH1 0x14 DUP4 PUSH2 0x3CC3 JUMP JUMPDEST SWAP2 POP PUSH2 0x4388 DUP3 PUSH2 0x4347 JUMP JUMPDEST PUSH1 0x20 DUP3 ADD SWAP1 POP SWAP2 SWAP1 POP JUMP JUMPDEST PUSH1 0x0 PUSH1 0x20 DUP3 ADD SWAP1 POP DUP2 DUP2 SUB PUSH1 0x0 DUP4 ADD MSTORE PUSH2 0x43AC DUP2 PUSH2 0x4370 JUMP JUMPDEST SWAP1 POP SWAP2 SWAP1 POP JUMP JUMPDEST PUSH32 0x4E487B7100000000000000000000000000000000000000000000000000000000 PUSH1 0x0 MSTORE PUSH1 0x22 PUSH1 0x4 MSTORE PUSH1 0x24 PUSH1 0x0 REVERT JUMPDEST PUSH1 0x0 PUSH1 0x2 DUP3 DIV SWAP1 POP PUSH1 0x1 DUP3 AND DUP1 PUSH2 0x43FA JUMPI PUSH1 0x7F DUP3 AND SWAP2 POP JUMPDEST PUSH1 0x20 DUP3 LT DUP2 SUB PUSH2 0x440D JUMPI PUSH2 0x440C PUSH2 0x43B3 JUMP JUMPDEST JUMPDEST POP SWAP2 SWAP1 POP JUMP JUMPDEST PUSH1 0x0 DUP2 SWAP1 POP SWAP3 SWAP2 POP POP JUMP JUMPDEST PUSH1 0x0 DUP2 SWAP1 POP DUP2 PUSH1 0x0 MSTORE PUSH1 0x20 PUSH1 0x0 KECCAK256 SWAP1 POP SWAP2 SWAP1 POP JUMP JUMPDEST PUSH1 0x0 DUP2 SLOAD PUSH2 0x4440 DUP2 PUSH2 0x43E2 JUMP JUMPDEST PUSH2 0x444A DUP2 DUP7 PUSH2 0x4413 JUMP JUMPDEST SWAP5 POP PUSH1 0x1 DUP3 AND PUSH1 0x0 DUP2 EQ PUSH2 0x4465 JUMPI PUSH1 0x1 DUP2 EQ PUSH2 0x447A JUMPI PUSH2 0x44AD JUMP JUMPDEST PUSH1 0xFF NOT DUP4 AND DUP7 MSTORE DUP2 ISZERO ISZERO DUP3 MUL DUP7 ADD SWAP4 POP PUSH2 0x44AD JUMP JUMPDEST PUSH2 0x4483 DUP6 PUSH2 0x441E JUMP JUMPDEST PUSH1 0x0 JUMPDEST DUP4 DUP2 LT ISZERO PUSH2 0x44A5 JUMPI DUP2 SLOAD DUP2 DUP10 ADD MSTORE PUSH1 0x1 DUP3 ADD SWAP2 POP PUSH1 0x20 DUP2 ADD SWAP1 POP PUSH2 0x4486 JUMP JUMPDEST DUP4 DUP9 ADD SWAP6 POP POP POP JUMPDEST POP POP POP SWAP3 SWAP2 POP POP JUMP JUMPDEST PUSH1 0x0 PUSH2 0x44C2 DUP3 DUP5 PUSH2 0x4433 JUMP JUMPDEST SWAP2 POP DUP2 SWAP1 POP SWAP3 SWAP2 POP POP JUMP JUMPDEST PUSH1 0x0 DUP2 SLOAD PUSH2 0x44DA DUP2 PUSH2 0x43E2 JUMP JUMPDEST PUSH2 0x44E4 DUP2 DUP7 PUSH2 0x3CC3 JUMP JUMPDEST SWAP5 POP PUSH1 0x1 DUP3 AND PUSH1 0x0 DUP2 EQ PUSH2 0x44FF JUMPI PUSH1 0x1 DUP2 EQ PUSH2 0x4515 JUMPI PUSH2 0x4548 JUMP JUMPDEST PUSH1 0xFF NOT DUP4 AND DUP7 MSTORE DUP2 ISZERO ISZERO PUSH1 0x20 MUL DUP7 ADD SWAP4 POP PUSH2 0x4548 JUMP JUMPDEST PUSH2 0x451E DUP6 PUSH2 0x441E JUMP JUMPDEST PUSH1 0x0 JUMPDEST DUP4 DUP2 LT ISZERO PUSH2 0x4540 JUMPI DUP2 SLOAD DUP2 DUP10 ADD MSTORE PUSH1 0x1 DUP3 ADD SWAP2 POP PUSH1 0x20 DUP2 ADD SWAP1 POP PUSH2 0x4521 JUMP JUMPDEST DUP1 DUP9 ADD SWAP6 POP POP POP JUMPDEST POP POP POP SWAP3 SWAP2 POP POP JUMP JUMPDEST PUSH1 0x0 PUSH1 0x60 DUP3 ADD SWAP1 POP DUP2 DUP2 SUB PUSH1 0x0 DUP4 ADD MSTORE PUSH2 0x456B DUP2 DUP7 PUSH2 0x44CD JUMP JUMPDEST SWAP1 POP DUP2 DUP2 SUB PUSH1 0x20 DUP4 ADD MSTORE PUSH2 0x457F DUP2 DUP6 PUSH2 0x44CD JUMP JUMPDEST SWAP1 POP PUSH2 0x458E PUSH1 0x40 DUP4 ADD DUP5 PUSH2 0x3835 JUMP JUMPDEST SWAP5 SWAP4 POP POP POP POP JUMP JUMPDEST PUSH1 0x0 PUSH2 0x45A1 DUP3 PUSH2 0x3CB8 JUMP JUMPDEST PUSH2 0x45AB DUP2 DUP6 PUSH2 0x4413 JUMP JUMPDEST SWAP4 POP PUSH2 0x45BB DUP2 DUP6 PUSH1 0x20 DUP7 ADD PUSH2 0x3CD4 JUMP JUMPDEST DUP1 DUP5 ADD SWAP2 POP POP SWAP3 SWAP2 POP POP JUMP JUMPDEST PUSH1 0x0 PUSH2 0x45D3 DUP3 DUP5 PUSH2 0x4596 JUMP JUMPDEST SWAP2 POP DUP2 SWAP1 POP SWAP3 SWAP2 POP POP JUMP JUMPDEST PUSH32 0x4E487B7100000000000000000000000000000000000000000000000000000000 PUSH1 0x0 MSTORE PUSH1 0x32 PUSH1 0x4 MSTORE PUSH1 0x24 PUSH1 0x0 REVERT JUMPDEST PUSH32 0x4E487B7100000000000000000000000000000000000000000000000000000000 PUSH1 0x0 MSTORE PUSH1 0x11 PUSH1 0x4 MSTORE PUSH1 0x24 PUSH1 0x0 REVERT JUMPDEST PUSH1 0x0 PUSH2 0x4647 DUP3 PUSH2 0x35C7 JUMP JUMPDEST SWAP2 POP PUSH32 0xFFFFFFFFFFFFFFFFFFFFFFFFFFFFFFFFFFFFFFFFFFFFFFFFFFFFFFFFFFFFFFFF DUP3 SUB PUSH2 0x4679 JUMPI PUSH2 0x4678 PUSH2 0x460D JUMP JUMPDEST JUMPDEST PUSH1 0x1 DUP3 ADD SWAP1 POP SWAP2 SWAP1 POP JUMP JUMPDEST PUSH1 0x0 DUP2 SLOAD SWAP1 POP SWAP2 SWAP1 POP JUMP JUMPDEST PUSH1 0x0 DUP2 SWAP1 POP DUP2 PUSH1 0x0 MSTORE PUSH1 0x20 PUSH1 0x0 KECCAK256 SWAP1 POP SWAP2 SWAP1 POP JUMP JUMPDEST PUSH1 0x0 DUP2 PUSH1 0x0 SHR SWAP1 POP SWAP2 SWAP1 POP JUMP JUMPDEST PUSH1 0x0 DUP2 SWAP1 POP SWAP2 SWAP1 POP JUMP JUMPDEST PUSH1 0x0 PUSH2 0x46CE PUSH2 0x46C9 DUP4 PUSH2 0x46A4 JUMP JUMPDEST PUSH2 0x46B1 JUMP JUMPDEST SWAP1 POP SWAP2 SWAP1 POP JUMP JUMPDEST PUSH1 0x0 PUSH2 0x46E1 DUP3 SLOAD PUSH2 0x46BB JUMP JUMPDEST SWAP1 POP SWAP2 SWAP1 POP JUMP JUMPDEST PUSH1 0x0 PUSH1 0x1 DUP3 ADD SWAP1 POP SWAP2 SWAP1 POP JUMP JUMPDEST PUSH1 0x0 PUSH2 0x4700 DUP3 PUSH2 0x4684 JUMP JUMPDEST PUSH2 0x470A DUP2 DUP6 PUSH2 0x3B10 JUMP JUMPDEST SWAP4 POP PUSH2 0x4715 DUP4 PUSH2 0x468F JUMP JUMPDEST DUP1 PUSH1 0x0 JUMPDEST DUP4 DUP2 LT ISZERO PUSH2 0x474D JUMPI PUSH2 0x472A DUP3 PUSH2 0x46D5 JUMP JUMPDEST PUSH2 0x4734 DUP9 DUP3 PUSH2 0x3B40 JUMP JUMPDEST SWAP8 POP PUSH2 0x473F DUP4 PUSH2 0x46E8 JUMP JUMPDEST SWAP3 POP POP PUSH1 0x1 DUP2 ADD SWAP1 POP PUSH2 0x4719 JUMP JUMPDEST POP DUP6 SWAP4 POP POP POP POP SWAP3 SWAP2 POP POP JUMP JUMPDEST PUSH1 0x0 DUP2 SLOAD SWAP1 POP SWAP2 SWAP1 POP JUMP JUMPDEST PUSH1 0x0 DUP2 SWAP1 POP DUP2 PUSH1 0x0 MSTORE PUSH1 0x20 PUSH1 0x0 KECCAK256 SWAP1 POP SWAP2 SWAP1 POP JUMP JUMPDEST PUSH1 0x0 PUSH2 0xFFFF DUP3 AND SWAP1 POP SWAP2 SWAP1 POP JUMP JUMPDEST PUSH1 0x0 PUSH2 0x479B PUSH2 0x4796 DUP4 PUSH2 0x46A4 JUMP JUMPDEST PUSH2 0x477A JUMP JUMPDEST SWAP1 POP SWAP2 SWAP1 POP JUMP JUMPDEST PUSH1 0x0 DUP2 PUSH1 0x10 SHR SWAP1 POP SWAP2 SWAP1 POP JUMP JUMPDEST PUSH1 0x0 PUSH2 0x47C2 PUSH2 0x47BD DUP4 PUSH2 0x47A2 JUMP JUMPDEST PUSH2 0x477A JUMP JUMPDEST SWAP1 POP SWAP2 SWAP1 POP JUMP JUMPDEST PUSH1 0x0 DUP2 PUSH1 0x20 SHR SWAP1 POP SWAP2 SWAP1 POP JUMP JUMPDEST PUSH1 0x0 PUSH2 0x47E9 PUSH2 0x47E4 DUP4 PUSH2 0x47C9 JUMP JUMPDEST PUSH2 0x477A JUMP JUMPDEST SWAP1 POP SWAP2 SWAP1 POP JUMP JUMPDEST PUSH1 0x0 DUP2 PUSH1 0x30 SHR SWAP1 POP SWAP2 SWAP1 POP JUMP JUMPDEST PUSH1 0x0 PUSH2 0x4810 PUSH2 0x480B DUP4 PUSH2 0x47F0 JUMP JUMPDEST PUSH2 0x477A JUMP JUMPDEST SWAP1 POP SWAP2 SWAP1 POP JUMP JUMPDEST PUSH1 0x0 DUP2 PUSH1 0x40 SHR SWAP1 POP SWAP2 SWAP1 POP JUMP JUMPDEST PUSH1 0x0 PUSH2 0x4837 PUSH2 0x4832 DUP4 PUSH2 0x4817 JUMP JUMPDEST PUSH2 0x477A JUMP JUMPDEST SWAP1 POP SWAP2 SWAP1 POP JUMP JUMPDEST PUSH1 0x0 DUP2 PUSH1 0x50 SHR SWAP1 POP SWAP2 SWAP1 POP JUMP JUMPDEST PUSH1 0x0 PUSH2 0x485E PUSH2 0x4859 DUP4 PUSH2 0x483E JUMP JUMPDEST PUSH2 0x477A JUMP JUMPDEST SWAP1 POP SWAP2 SWAP1 POP JUMP JUMPDEST PUSH1 0x0 DUP2 PUSH1 0x60 SHR SWAP1 POP SWAP2 SWAP1 POP JUMP JUMPDEST PUSH1 0x0 PUSH2 0x4885 PUSH2 0x4880 DUP4 PUSH2 0x4865 JUMP JUMPDEST PUSH2 0x477A JUMP JUMPDEST SWAP1 POP SWAP2 SWAP1 POP JUMP JUMPDEST PUSH1 0x0 DUP2 PUSH1 0x70 SHR SWAP1 POP SWAP2 SWAP1 POP JUMP JUMPDEST PUSH1 0x0 PUSH2 0x48AC PUSH2 0x48A7 DUP4 PUSH2 0x488C JUMP JUMPDEST PUSH2 0x477A JUMP JUMPDEST SWAP1 POP SWAP2 SWAP1 POP JUMP JUMPDEST PUSH1 0x0 DUP2 PUSH1 0x80 SHR SWAP1 POP SWAP2 SWAP1 POP JUMP JUMPDEST PUSH1 0x0 PUSH2 0x48D3 PUSH2 0x48CE DUP4 PUSH2 0x48B3 JUMP JUMPDEST PUSH2 0x477A JUMP JUMPDEST SWAP1 POP SWAP2 SWAP1 POP JUMP JUMPDEST PUSH1 0x0 DUP2 PUSH1 0x90 SHR SWAP1 POP SWAP2 SWAP1 POP JUMP JUMPDEST PUSH1 0x0 PUSH2 0x48FA PUSH2 0x48F5 DUP4 PUSH2 0x48DA JUMP JUMPDEST PUSH2 0x477A JUMP JUMPDEST SWAP1 POP SWAP2 SWAP1 POP JUMP JUMPDEST PUSH1 0x0 DUP2 PUSH1 0xA0 SHR SWAP1 POP SWAP2 SWAP1 POP JUMP JUMPDEST PUSH1 0x0 PUSH2 0x4921 PUSH2 0x491C DUP4 PUSH2 0x4901 JUMP JUMPDEST PUSH2 0x477A JUMP JUMPDEST SWAP1 POP SWAP2 SWAP1 POP JUMP JUMPDEST PUSH1 0x0 DUP2 PUSH1 0xB0 SHR SWAP1 POP SWAP2 SWAP1 POP JUMP JUMPDEST PUSH1 0x0 PUSH2 0x4948 PUSH2 0x4943 DUP4 PUSH2 0x4928 JUMP JUMPDEST PUSH2 0x477A JUMP JUMPDEST SWAP1 POP SWAP2 SWAP1 POP JUMP JUMPDEST PUSH1 0x0 DUP2 PUSH1 0xC0 SHR SWAP1 POP SWAP2 SWAP1 POP JUMP JUMPDEST PUSH1 0x0 PUSH2 0x496F PUSH2 0x496A DUP4 PUSH2 0x494F JUMP JUMPDEST PUSH2 0x477A JUMP JUMPDEST SWAP1 POP SWAP2 SWAP1 POP JUMP JUMPDEST PUSH1 0x0 DUP2 PUSH1 0xD0 SHR SWAP1 POP SWAP2 SWAP1 POP JUMP JUMPDEST PUSH1 0x0 PUSH2 0x4996 PUSH2 0x4991 DUP4 PUSH2 0x4976 JUMP JUMPDEST PUSH2 0x477A JUMP JUMPDEST SWAP1 POP SWAP2 SWAP1 POP JUMP JUMPDEST PUSH1 0x0 DUP2 PUSH1 0xE0 SHR SWAP1 POP SWAP2 SWAP1 POP JUMP JUMPDEST PUSH1 0x0 PUSH2 0x49BD PUSH2 0x49B8 DUP4 PUSH2 0x499D JUMP JUMPDEST PUSH2 0x477A JUMP JUMPDEST SWAP1 POP SWAP2 SWAP1 POP JUMP JUMPDEST PUSH1 0x0 DUP2 PUSH1 0xF0 SHR SWAP1 POP SWAP2 SWAP1 POP JUMP JUMPDEST PUSH1 0x0 PUSH2 0x49E4 PUSH2 0x49DF DUP4 PUSH2 0x49C4 JUMP JUMPDEST PUSH2 0x477A JUMP JUMPDEST SWAP1 POP SWAP2 SWAP1 POP JUMP JUMPDEST PUSH1 0x0 PUSH2 0x49F6 DUP3 PUSH2 0x475A JUMP JUMPDEST PUSH2 0x4A00 DUP2 DUP6 PUSH2 0x3BCE JUMP JUMPDEST SWAP4 POP DUP4 PUSH2 0x4A0C DUP5 PUSH2 0x4765 JUMP JUMPDEST PUSH1 0x0 PUSH1 0x1 ISZERO PUSH2 0x4BB9 JUMPI JUMPDEST DUP4 PUSH1 0x1 PUSH1 0x10 SUB DUP3 ADD LT ISZERO PUSH2 0x4BB8 JUMPI DUP2 SLOAD PUSH2 0x4A38 DUP9 PUSH2 0x4A33 DUP4 PUSH2 0x4788 JUMP JUMPDEST PUSH2 0x3BEF JUMP JUMPDEST PUSH1 0x20 DUP9 ADD SWAP8 POP PUSH2 0x4A50 DUP9 PUSH2 0x4A4B DUP4 PUSH2 0x47AF JUMP JUMPDEST PUSH2 0x3BEF JUMP JUMPDEST PUSH1 0x20 DUP9 ADD SWAP8 POP PUSH2 0x4A68 DUP9 PUSH2 0x4A63 DUP4 PUSH2 0x47D6 JUMP JUMPDEST PUSH2 0x3BEF JUMP JUMPDEST PUSH1 0x20 DUP9 ADD SWAP8 POP PUSH2 0x4A80 DUP9 PUSH2 0x4A7B DUP4 PUSH2 0x47FD JUMP JUMPDEST PUSH2 0x3BEF JUMP JUMPDEST PUSH1 0x20 DUP9 ADD SWAP8 POP PUSH2 0x4A98 DUP9 PUSH2 0x4A93 DUP4 PUSH2 0x4824 JUMP JUMPDEST PUSH2 0x3BEF JUMP JUMPDEST PUSH1 0x20 DUP9 ADD SWAP8 POP PUSH2 0x4AB0 DUP9 PUSH2 0x4AAB DUP4 PUSH2 0x484B JUMP JUMPDEST PUSH2 0x3BEF JUMP JUMPDEST PUSH1 0x20 DUP9 ADD SWAP8 POP PUSH2 0x4AC8 DUP9 PUSH2 0x4AC3 DUP4 PUSH2 0x4872 JUMP JUMPDEST PUSH2 0x3BEF JUMP JUMPDEST PUSH1 0x20 DUP9 ADD SWAP8 POP PUSH2 0x4AE0 DUP9 PUSH2 0x4ADB DUP4 PUSH2 0x4899 JUMP JUMPDEST PUSH2 0x3BEF JUMP JUMPDEST PUSH1 0x20 DUP9 ADD SWAP8 POP PUSH2 0x4AF8 DUP9 PUSH2 0x4AF3 DUP4 PUSH2 0x48C0 JUMP JUMPDEST PUSH2 0x3BEF JUMP JUMPDEST PUSH1 0x20 DUP9 ADD SWAP8 POP PUSH2 0x4B10 DUP9 PUSH2 0x4B0B DUP4 PUSH2 0x48E7 JUMP JUMPDEST PUSH2 0x3BEF JUMP JUMPDEST PUSH1 0x20 DUP9 ADD SWAP8 POP PUSH2 0x4B28 DUP9 PUSH2 0x4B23 DUP4 PUSH2 0x490E JUMP JUMPDEST PUSH2 0x3BEF JUMP JUMPDEST PUSH1 0x20 DUP9 ADD SWAP8 POP PUSH2 0x4B40 DUP9 PUSH2 0x4B3B DUP4 PUSH2 0x4935 JUMP JUMPDEST PUSH2 0x3BEF JUMP JUMPDEST PUSH1 0x20 DUP9 ADD SWAP8 POP PUSH2 0x4B58 DUP9 PUSH2 0x4B53 DUP4 PUSH2 0x495C JUMP JUMPDEST PUSH2 0x3BEF JUMP JUMPDEST PUSH1 0x20 DUP9 ADD SWAP8 POP PUSH2 0x4B70 DUP9 PUSH2 0x4B6B DUP4 PUSH2 0x4983 JUMP JUMPDEST PUSH2 0x3BEF JUMP JUMPDEST PUSH1 0x20 DUP9 ADD SWAP8 POP PUSH2 0x4B88 DUP9 PUSH2 0x4B83 DUP4 PUSH2 0x49AA JUMP JUMPDEST PUSH2 0x3BEF JUMP JUMPDEST PUSH1 0x20 DUP9 ADD SWAP8 POP PUSH2 0x4BA0 DUP9 PUSH2 0x4B9B DUP4 PUSH2 0x49D1 JUMP JUMPDEST PUSH2 0x3BEF JUMP JUMPDEST PUSH1 0x20 DUP9 ADD SWAP8 POP PUSH1 0x1 DUP4 ADD SWAP3 POP POP PUSH1 0x10 DUP2 ADD SWAP1 POP PUSH2 0x4A16 JUMP JUMPDEST JUMPDEST PUSH1 0x1 ISZERO PUSH2 0x4E34 JUMPI DUP2 SLOAD DUP5 DUP3 LT ISZERO PUSH2 0x4BE9 JUMPI PUSH2 0x4BDC DUP9 PUSH2 0x4BD7 DUP4 PUSH2 0x4788 JUMP JUMPDEST PUSH2 0x3BEF JUMP JUMPDEST PUSH1 0x20 DUP9 ADD SWAP8 POP PUSH1 0x1 DUP3 ADD SWAP2 POP JUMPDEST DUP5 DUP3 LT ISZERO PUSH2 0x4C10 JUMPI PUSH2 0x4C03 DUP9 PUSH2 0x4BFE DUP4 PUSH2 0x47AF JUMP JUMPDEST PUSH2 0x3BEF JUMP JUMPDEST PUSH1 0x20 DUP9 ADD SWAP8 POP PUSH1 0x1 DUP3 ADD SWAP2 POP JUMPDEST DUP5 DUP3 LT ISZERO PUSH2 0x4C37 JUMPI PUSH2 0x4C2A DUP9 PUSH2 0x4C25 DUP4 PUSH2 0x47D6 JUMP JUMPDEST PUSH2 0x3BEF JUMP JUMPDEST PUSH1 0x20 DUP9 ADD SWAP8 POP PUSH1 0x1 DUP3 ADD SWAP2 POP JUMPDEST DUP5 DUP3 LT ISZERO PUSH2 0x4C5E JUMPI PUSH2 0x4C51 DUP9 PUSH2 0x4C4C DUP4 PUSH2 0x47FD JUMP JUMPDEST PUSH2 0x3BEF JUMP JUMPDEST PUSH1 0x20 DUP9 ADD SWAP8 POP PUSH1 0x1 DUP3 ADD SWAP2 POP JUMPDEST DUP5 DUP3 LT ISZERO PUSH2 0x4C85 JUMPI PUSH2 0x4C78 DUP9 PUSH2 0x4C73 DUP4 PUSH2 0x4824 JUMP JUMPDEST PUSH2 0x3BEF JUMP JUMPDEST PUSH1 0x20 DUP9 ADD SWAP8 POP PUSH1 0x1 DUP3 ADD SWAP2 POP JUMPDEST DUP5 DUP3 LT ISZERO PUSH2 0x4CAC JUMPI PUSH2 0x4C9F DUP9 PUSH2 0x4C9A DUP4 PUSH2 0x484B JUMP JUMPDEST PUSH2 0x3BEF JUMP JUMPDEST PUSH1 0x20 DUP9 ADD SWAP8 POP PUSH1 0x1 DUP3 ADD SWAP2 POP JUMPDEST DUP5 DUP3 LT ISZERO PUSH2 0x4CD3 JUMPI PUSH2 0x4CC6 DUP9 PUSH2 0x4CC1 DUP4 PUSH2 0x4872 JUMP JUMPDEST PUSH2 0x3BEF JUMP JUMPDEST PUSH1 0x20 DUP9 ADD SWAP8 POP PUSH1 0x1 DUP3 ADD SWAP2 POP JUMPDEST DUP5 DUP3 LT ISZERO PUSH2 0x4CFA JUMPI PUSH2 0x4CED DUP9 PUSH2 0x4CE8 DUP4 PUSH2 0x4899 JUMP JUMPDEST PUSH2 0x3BEF JUMP JUMPDEST PUSH1 0x20 DUP9 ADD SWAP8 POP PUSH1 0x1 DUP3 ADD SWAP2 POP JUMPDEST DUP5 DUP3 LT ISZERO PUSH2 0x4D21 JUMPI PUSH2 0x4D14 DUP9 PUSH2 0x4D0F DUP4 PUSH2 0x48C0 JUMP JUMPDEST PUSH2 0x3BEF JUMP JUMPDEST PUSH1 0x20 DUP9 ADD SWAP8 POP PUSH1 0x1 DUP3 ADD SWAP2 POP JUMPDEST DUP5 DUP3 LT ISZERO PUSH2 0x4D48 JUMPI PUSH2 0x4D3B DUP9 PUSH2 0x4D36 DUP4 PUSH2 0x48E7 JUMP JUMPDEST PUSH2 0x3BEF JUMP JUMPDEST PUSH1 0x20 DUP9 ADD SWAP8 POP PUSH1 0x1 DUP3 ADD SWAP2 POP JUMPDEST DUP5 DUP3 LT ISZERO PUSH2 0x4D6F JUMPI PUSH2 0x4D62 DUP9 PUSH2 0x4D5D DUP4 PUSH2 0x490E JUMP JUMPDEST PUSH2 0x3BEF JUMP JUMPDEST PUSH1 0x20 DUP9 ADD SWAP8 POP PUSH1 0x1 DUP3 ADD SWAP2 POP JUMPDEST DUP5 DUP3 LT ISZERO PUSH2 0x4D96 JUMPI PUSH2 0x4D89 DUP9 PUSH2 0x4D84 DUP4 PUSH2 0x4935 JUMP JUMPDEST PUSH2 0x3BEF JUMP JUMPDEST PUSH1 0x20 DUP9 ADD SWAP8 POP PUSH1 0x1 DUP3 ADD SWAP2 POP JUMPDEST DUP5 DUP3 LT ISZERO PUSH2 0x4DBD JUMPI PUSH2 0x4DB0 DUP9 PUSH2 0x4DAB DUP4 PUSH2 0x495C JUMP JUMPDEST PUSH2 0x3BEF JUMP JUMPDEST PUSH1 0x20 DUP9 ADD SWAP8 POP PUSH1 0x1 DUP3 ADD SWAP2 POP JUMPDEST DUP5 DUP3 LT ISZERO PUSH2 0x4DE4 JUMPI PUSH2 0x4DD7 DUP9 PUSH2 0x4DD2 DUP4 PUSH2 0x4983 JUMP JUMPDEST PUSH2 0x3BEF JUMP JUMPDEST PUSH1 0x20 DUP9 ADD SWAP8 POP PUSH1 0x1 DUP3 ADD SWAP2 POP JUMPDEST DUP5 DUP3 LT ISZERO PUSH2 0x4E0B JUMPI PUSH2 0x4DFE DUP9 PUSH2 0x4DF9 DUP4 PUSH2 0x49AA JUMP JUMPDEST PUSH2 0x3BEF JUMP JUMPDEST PUSH1 0x20 DUP9 ADD SWAP8 POP PUSH1 0x1 DUP3 ADD SWAP2 POP JUMPDEST DUP5 DUP3 LT ISZERO PUSH2 0x4E32 JUMPI PUSH2 0x4E25 DUP9 PUSH2 0x4E20 DUP4 PUSH2 0x49D1 JUMP JUMPDEST PUSH2 0x3BEF JUMP JUMPDEST PUSH1 0x20 DUP9 ADD SWAP8 POP PUSH1 0x1 DUP3 ADD SWAP2 POP JUMPDEST POP JUMPDEST DUP7 SWAP5 POP POP POP POP POP SWAP3 SWAP2 POP POP JUMP JUMPDEST PUSH1 0x0 PUSH1 0x40 DUP3 ADD SWAP1 POP DUP2 DUP2 SUB PUSH1 0x0 DUP4 ADD MSTORE PUSH2 0x4E5B DUP2 DUP6 PUSH2 0x46F5 JUMP JUMPDEST SWAP1 POP DUP2 DUP2 SUB PUSH1 0x20 DUP4 ADD MSTORE PUSH2 0x4E6F DUP2 DUP5 PUSH2 0x49EB JUMP JUMPDEST SWAP1 POP SWAP4 SWAP3 POP POP POP JUMP JUMPDEST PUSH1 0x0 PUSH2 0x4E83 DUP3 PUSH2 0x35C7 JUMP JUMPDEST SWAP2 POP PUSH2 0x4E8E DUP4 PUSH2 0x35C7 JUMP JUMPDEST SWAP3 POP DUP3 DUP3 ADD SWAP1 POP DUP1 DUP3 GT ISZERO PUSH2 0x4EA6 JUMPI PUSH2 0x4EA5 PUSH2 0x460D JUMP JUMPDEST JUMPDEST SWAP3 SWAP2 POP POP JUMP JUMPDEST PUSH32 0x49504653206C696E6B20616C72656164792065786973747320666F7220616E6F PUSH1 0x0 DUP3 ADD MSTORE PUSH32 0x7468657220616476657274000000000000000000000000000000000000000000 PUSH1 0x20 DUP3 ADD MSTORE POP JUMP JUMPDEST PUSH1 0x0 PUSH2 0x4F08 PUSH1 0x2B DUP4 PUSH2 0x3CC3 JUMP JUMPDEST SWAP2 POP PUSH2 0x4F13 DUP3 PUSH2 0x4EAC JUMP JUMPDEST PUSH1 0x40 DUP3 ADD SWAP1 POP SWAP2 SWAP1 POP JUMP JUMPDEST PUSH1 0x0 PUSH1 0x20 DUP3 ADD SWAP1 POP DUP2 DUP2 SUB PUSH1 0x0 DUP4 ADD MSTORE PUSH2 0x4F37 DUP2 PUSH2 0x4EFB JUMP JUMPDEST SWAP1 POP SWAP2 SWAP1 POP JUMP JUMPDEST PUSH1 0x0 PUSH1 0x20 PUSH1 0x1F DUP4 ADD DIV SWAP1 POP SWAP2 SWAP1 POP JUMP JUMPDEST PUSH1 0x0 DUP3 DUP3 SHL SWAP1 POP SWAP3 SWAP2 POP POP JUMP JUMPDEST PUSH1 0x0 PUSH1 0x8 DUP4 MUL PUSH2 0x4F8B PUSH32 0xFFFFFFFFFFFFFFFFFFFFFFFFFFFFFFFFFFFFFFFFFFFFFFFFFFFFFFFFFFFFFFFF DUP3 PUSH2 0x4F4E JUMP JUMPDEST PUSH2 0x4F95 DUP7 DUP4 PUSH2 0x4F4E JUMP JUMPDEST SWAP6 POP DUP1 NOT DUP5 AND SWAP4 POP DUP1 DUP7 AND DUP5 OR SWAP3 POP POP POP SWAP4 SWAP3 POP POP POP JUMP JUMPDEST PUSH1 0x0 DUP2 SWAP1 POP SWAP2 SWAP1 POP JUMP JUMPDEST PUSH1 0x0 PUSH2 0x4FD2 PUSH2 0x4FCD PUSH2 0x4FC8 DUP5 PUSH2 0x35C7 JUMP JUMPDEST PUSH2 0x4FAD JUMP JUMPDEST PUSH2 0x35C7 JUMP JUMPDEST SWAP1 POP SWAP2 SWAP1 POP JUMP JUMPDEST PUSH1 0x0 DUP2 SWAP1 POP SWAP2 SWAP1 POP JUMP JUMPDEST PUSH2 0x4FEC DUP4 PUSH2 0x4FB7 JUMP JUMPDEST PUSH2 0x5000 PUSH2 0x4FF8 DUP3 PUSH2 0x4FD9 JUMP JUMPDEST DUP5 DUP5 SLOAD PUSH2 0x4F5B JUMP JUMPDEST DUP3 SSTORE POP POP POP POP JUMP JUMPDEST PUSH1 0x0 SWAP1 JUMP JUMPDEST PUSH2 0x5015 PUSH2 0x5008 JUMP JUMPDEST PUSH2 0x5020 DUP2 DUP5 DUP5 PUSH2 0x4FE3 JUMP JUMPDEST POP POP POP JUMP JUMPDEST JUMPDEST DUP2 DUP2 LT ISZERO PUSH2 0x5044 JUMPI PUSH2 0x5039 PUSH1 0x0 DUP3 PUSH2 0x500D JUMP JUMPDEST PUSH1 0x1 DUP2 ADD SWAP1 POP PUSH2 0x5026 JUMP JUMPDEST POP POP JUMP JUMPDEST PUSH1 0x1F DUP3 GT ISZERO PUSH2 0x5089 JUMPI PUSH2 0x505A DUP2 PUSH2 0x441E JUMP JUMPDEST PUSH2 0x5063 DUP5 PUSH2 0x4F3E JUMP JUMPDEST DUP2 ADD PUSH1 0x20 DUP6 LT ISZERO PUSH2 0x5072 JUMPI DUP2 SWAP1 POP JUMPDEST PUSH2 0x5086 PUSH2 0x507E DUP6 PUSH2 0x4F3E JUMP JUMPDEST DUP4 ADD DUP3 PUSH2 0x5025 JUMP JUMPDEST POP POP JUMPDEST POP POP POP JUMP JUMPDEST PUSH1 0x0 DUP3 DUP3 SHR SWAP1 POP SWAP3 SWAP2 POP POP JUMP JUMPDEST PUSH1 0x0 PUSH2 0x50AC PUSH1 0x0 NOT DUP5 PUSH1 0x8 MUL PUSH2 0x508E JUMP JUMPDEST NOT DUP1 DUP4 AND SWAP2 POP POP SWAP3 SWAP2 POP POP JUMP JUMPDEST PUSH1 0x0 PUSH2 0x50C5 DUP4 DUP4 PUSH2 0x509B JUMP JUMPDEST SWAP2 POP DUP3 PUSH1 0x2 MUL DUP3 OR SWAP1 POP SWAP3 SWAP2 POP POP JUMP JUMPDEST PUSH2 0x50DE DUP3 PUSH2 0x3CB8 JUMP JUMPDEST PUSH8 0xFFFFFFFFFFFFFFFF DUP2 GT ISZERO PUSH2 0x50F7 JUMPI PUSH2 0x50F6 PUSH2 0x3692 JUMP JUMPDEST JUMPDEST PUSH2 0x5101 DUP3 SLOAD PUSH2 0x43E2 JUMP JUMPDEST PUSH2 0x510C DUP3 DUP3 DUP6 PUSH2 0x5048 JUMP JUMPDEST PUSH1 0x0 PUSH1 0x20 SWAP1 POP PUSH1 0x1F DUP4 GT PUSH1 0x1 DUP2 EQ PUSH2 0x513F JUMPI PUSH1 0x0 DUP5 ISZERO PUSH2 0x512D JUMPI DUP3 DUP8 ADD MLOAD SWAP1 POP JUMPDEST PUSH2 0x5137 DUP6 DUP3 PUSH2 0x50B9 JUMP JUMPDEST DUP7 SSTORE POP PUSH2 0x519F JUMP JUMPDEST PUSH1 0x1F NOT DUP5 AND PUSH2 0x514D DUP7 PUSH2 0x441E JUMP JUMPDEST PUSH1 0x0 JUMPDEST DUP3 DUP2 LT ISZERO PUSH2 0x5175 JUMPI DUP5 DUP10 ADD MLOAD DUP3 SSTORE PUSH1 0x1 DUP3 ADD SWAP2 POP PUSH1 0x20 DUP6 ADD SWAP5 POP PUSH1 0x20 DUP2 ADD SWAP1 POP PUSH2 0x5150 JUMP JUMPDEST DUP7 DUP4 LT ISZERO PUSH2 0x5192 JUMPI DUP5 DUP10 ADD MLOAD PUSH2 0x518E PUSH1 0x1F DUP10 AND DUP3 PUSH2 0x509B JUMP JUMPDEST DUP4 SSTORE POP JUMPDEST PUSH1 0x1 PUSH1 0x2 DUP9 MUL ADD DUP9 SSTORE POP POP POP JUMPDEST POP POP POP POP POP POP JUMP JUMPDEST PUSH1 0x0 PUSH2 0x51B2 DUP3 PUSH2 0x3579 JUMP JUMPDEST SWAP2 POP PUSH4 0xFFFFFFFF DUP3 SUB PUSH2 0x51C8 JUMPI PUSH2 0x51C7 PUSH2 0x460D JUMP JUMPDEST JUMPDEST PUSH1 0x1 DUP3 ADD SWAP1 POP SWAP2 SWAP1 POP JUMP JUMPDEST PUSH1 0x0 PUSH2 0x51DF DUP4 DUP6 PUSH2 0x4413 JUMP JUMPDEST SWAP4 POP PUSH2 0x51EC DUP4 DUP6 DUP5 PUSH2 0x373E JUMP JUMPDEST DUP3 DUP5 ADD SWAP1 POP SWAP4 SWAP3 POP POP POP JUMP JUMPDEST PUSH1 0x0 PUSH2 0x5205 DUP3 DUP5 DUP7 PUSH2 0x51D3 JUMP JUMPDEST SWAP2 POP DUP2 SWAP1 POP SWAP4 SWAP3 POP POP POP JUMP JUMPDEST PUSH1 0x0 DUP2 MLOAD SWAP1 POP PUSH2 0x5220 DUP2 PUSH2 0x35D1 JUMP JUMPDEST SWAP3 SWAP2 POP POP JUMP JUMPDEST PUSH1 0x0 PUSH1 0x20 DUP3 DUP5 SUB SLT ISZERO PUSH2 0x523C JUMPI PUSH2 0x523B PUSH2 0x35BD JUMP JUMPDEST JUMPDEST PUSH1 0x0 PUSH2 0x524A DUP5 DUP3 DUP6 ADD PUSH2 0x5211 JUMP JUMPDEST SWAP2 POP POP SWAP3 SWAP2 POP POP JUMP JUMPDEST PUSH1 0x0 PUSH1 0x80 DUP3 ADD SWAP1 POP PUSH2 0x5268 PUSH1 0x0 DUP4 ADD DUP8 PUSH2 0x3927 JUMP JUMPDEST DUP2 DUP2 SUB PUSH1 0x20 DUP4 ADD MSTORE PUSH2 0x527A DUP2 DUP7 PUSH2 0x3CFE JUMP JUMPDEST SWAP1 POP DUP2 DUP2 SUB PUSH1 0x40 DUP4 ADD MSTORE PUSH2 0x528E DUP2 DUP6 PUSH2 0x3CFE JUMP JUMPDEST SWAP1 POP PUSH2 0x529D PUSH1 0x60 DUP4 ADD DUP5 PUSH2 0x3835 JUMP JUMPDEST SWAP6 SWAP5 POP POP POP POP POP JUMP JUMPDEST PUSH32 0x457363726F772061646472657373206E6F742073657400000000000000000000 PUSH1 0x0 DUP3 ADD MSTORE POP JUMP JUMPDEST PUSH1 0x0 PUSH2 0x52DC PUSH1 0x16 DUP4 PUSH2 0x3CC3 JUMP JUMPDEST SWAP2 POP PUSH2 0x52E7 DUP3 PUSH2 0x52A6 JUMP JUMPDEST PUSH1 0x20 DUP3 ADD SWAP1 POP SWAP2 SWAP1 POP JUMP JUMPDEST PUSH1 0x0 PUSH1 0x20 DUP3 ADD SWAP1 POP DUP2 DUP2 SUB PUSH1 0x0 DUP4 ADD MSTORE PUSH2 0x530B DUP2 PUSH2 0x52CF JUMP JUMPDEST SWAP1 POP SWAP2 SWAP1 POP JUMP JUMPDEST PUSH32 0x4E4654207375626D697373696F6E20646561646C696E6520686173206E6F7420 PUSH1 0x0 DUP3 ADD MSTORE PUSH32 0x7061737365642079657400000000000000000000000000000000000000000000 PUSH1 0x20 DUP3 ADD MSTORE POP JUMP JUMPDEST PUSH1 0x0 PUSH2 0x536E PUSH1 0x2A DUP4 PUSH2 0x3CC3 JUMP JUMPDEST SWAP2 POP PUSH2 0x5379 DUP3 PUSH2 0x5312 JUMP JUMPDEST PUSH1 0x40 DUP3 ADD SWAP1 POP SWAP2 SWAP1 POP JUMP JUMPDEST PUSH1 0x0 PUSH1 0x20 DUP3 ADD SWAP1 POP DUP2 DUP2 SUB PUSH1 0x0 DUP4 ADD MSTORE PUSH2 0x539D DUP2 PUSH2 0x5361 JUMP JUMPDEST SWAP1 POP SWAP2 SWAP1 POP JUMP JUMPDEST PUSH1 0x0 PUSH2 0x53B7 PUSH2 0x53B2 DUP5 PUSH2 0x370D JUMP JUMPDEST PUSH2 0x36F2 JUMP JUMPDEST SWAP1 POP DUP3 DUP2 MSTORE PUSH1 0x20 DUP2 ADD DUP5 DUP5 DUP5 ADD GT ISZERO PUSH2 0x53D3 JUMPI PUSH2 0x53D2 PUSH2 0x367C JUMP JUMPDEST JUMPDEST PUSH2 0x53DE DUP5 DUP3 DUP6 PUSH2 0x3CD4 JUMP JUMPDEST POP SWAP4 SWAP3 POP POP POP JUMP JUMPDEST PUSH1 0x0 DUP3 PUSH1 0x1F DUP4 ADD SLT PUSH2 0x53FB JUMPI PUSH2 0x53FA PUSH2 0x3677 JUMP JUMPDEST JUMPDEST DUP2 MLOAD PUSH2 0x540B DUP5 DUP3 PUSH1 0x20 DUP7 ADD PUSH2 0x53A4 JUMP JUMPDEST SWAP2 POP POP SWAP3 SWAP2 POP POP JUMP JUMPDEST PUSH1 0x0 PUSH1 0x20 DUP3 DUP5 SUB SLT ISZERO PUSH2 0x542A JUMPI PUSH2 0x5429 PUSH2 0x35BD JUMP JUMPDEST JUMPDEST PUSH1 0x0 DUP3 ADD MLOAD PUSH8 0xFFFFFFFFFFFFFFFF DUP2 GT ISZERO PUSH2 0x5448 JUMPI PUSH2 0x5447 PUSH2 0x35C2 JUMP JUMPDEST JUMPDEST PUSH2 0x5454 DUP5 DUP3 DUP6 ADD PUSH2 0x53E6 JUMP JUMPDEST SWAP2 POP POP SWAP3 SWAP2 POP POP JUMP JUMPDEST PUSH1 0x0 PUSH1 0x60 DUP3 ADD SWAP1 POP DUP2 DUP2 SUB PUSH1 0x0 DUP4 ADD MSTORE PUSH2 0x5477 DUP2 DUP7 PUSH2 0x3CFE JUMP JUMPDEST SWAP1 POP DUP2 DUP2 SUB PUSH1 0x20 DUP4 ADD MSTORE PUSH2 0x548B DUP2 DUP6 PUSH2 0x3CFE JUMP JUMPDEST SWAP1 POP PUSH2 0x549A PUSH1 0x40 DUP4 ADD DUP5 PUSH2 0x3835 JUMP JUMPDEST SWAP5 SWAP4 POP POP POP POP JUMP JUMPDEST PUSH32 0x4E4654207375626D697373696F6E206973206E6F7420616C6C6F77656420666F PUSH1 0x0 DUP3 ADD MSTORE PUSH32 0x7220746869732061647665727400000000000000000000000000000000000000 PUSH1 0x20 DUP3 ADD MSTORE POP JUMP JUMPDEST PUSH1 0x0 PUSH2 0x54FE PUSH1 0x2D DUP4 PUSH2 0x3CC3 JUMP JUMPDEST SWAP2 POP PUSH2 0x5509 DUP3 PUSH2 0x54A2 JUMP JUMPDEST PUSH1 0x40 DUP3 ADD SWAP1 POP SWAP2 SWAP1 POP JUMP JUMPDEST PUSH1 0x0 PUSH1 0x20 DUP3 ADD SWAP1 POP DUP2 DUP2 SUB PUSH1 0x0 DUP4 ADD MSTORE PUSH2 0x552D DUP2 PUSH2 0x54F1 JUMP JUMPDEST SWAP1 POP SWAP2 SWAP1 POP JUMP JUMPDEST PUSH32 0x41647665727420646F6573206E6F742065786973740000000000000000000000 PUSH1 0x0 DUP3 ADD MSTORE POP JUMP JUMPDEST PUSH1 0x0 PUSH2 0x556A PUSH1 0x15 DUP4 PUSH2 0x3CC3 JUMP JUMPDEST SWAP2 POP PUSH2 0x5575 DUP3 PUSH2 0x5534 JUMP JUMPDEST PUSH1 0x20 DUP3 ADD SWAP1 POP SWAP2 SWAP1 POP JUMP JUMPDEST PUSH1 0x0 PUSH1 0x20 DUP3 ADD SWAP1 POP DUP2 DUP2 SUB PUSH1 0x0 DUP4 ADD MSTORE PUSH2 0x5599 DUP2 PUSH2 0x555D JUMP JUMPDEST SWAP1 POP SWAP2 SWAP1 POP JUMP JUMPDEST PUSH32 0x5375626D697373696F6E732061726520636C6F73656420666F72207468697320 PUSH1 0x0 DUP3 ADD MSTORE PUSH32 0x6164766572740000000000000000000000000000000000000000000000000000 PUSH1 0x20 DUP3 ADD MSTORE POP JUMP JUMPDEST PUSH1 0x0 PUSH2 0x55FC PUSH1 0x26 DUP4 PUSH2 0x3CC3 JUMP JUMPDEST SWAP2 POP PUSH2 0x5607 DUP3 PUSH2 0x55A0 JUMP JUMPDEST PUSH1 0x40 DUP3 ADD SWAP1 POP SWAP2 SWAP1 POP JUMP JUMPDEST PUSH1 0x0 PUSH1 0x20 DUP3 ADD SWAP1 POP DUP2 DUP2 SUB PUSH1 0x0 DUP4 ADD MSTORE PUSH2 0x562B DUP2 PUSH2 0x55EF JUMP JUMPDEST SWAP1 POP SWAP2 SWAP1 POP JUMP JUMPDEST PUSH1 0x0 PUSH2 0x563E DUP4 DUP6 PUSH2 0x3CC3 JUMP JUMPDEST SWAP4 POP PUSH2 0x564B DUP4 DUP6 DUP5 PUSH2 0x373E JUMP JUMPDEST PUSH2 0x5654 DUP4 PUSH2 0x3681 JUMP JUMPDEST DUP5 ADD SWAP1 POP SWAP4 SWAP3 POP POP POP JUMP JUMPDEST PUSH1 0x0 PUSH1 0x40 DUP3 ADD SWAP1 POP PUSH2 0x5674 PUSH1 0x0 DUP4 ADD DUP7 PUSH2 0x3FA4 JUMP JUMPDEST DUP2 DUP2 SUB PUSH1 0x20 DUP4 ADD MSTORE PUSH2 0x5687 DUP2 DUP5 DUP7 PUSH2 0x5632 JUMP JUMPDEST SWAP1 POP SWAP5 SWAP4 POP POP POP POP JUMP JUMPDEST PUSH1 0x0 PUSH1 0x20 DUP3 ADD SWAP1 POP DUP2 DUP2 SUB PUSH1 0x0 DUP4 ADD MSTORE PUSH2 0x56AC DUP2 DUP5 DUP7 PUSH2 0x5632 JUMP JUMPDEST SWAP1 POP SWAP4 SWAP3 POP POP POP JUMP JUMPDEST PUSH32 0x4E487B7100000000000000000000000000000000000000000000000000000000 PUSH1 0x0 MSTORE PUSH1 0x12 PUSH1 0x4 MSTORE PUSH1 0x24 PUSH1 0x0 REVERT JUMPDEST PUSH1 0x0 PUSH2 0x56EF DUP3 PUSH2 0x3579 JUMP JUMPDEST SWAP2 POP PUSH2 0x56FA DUP4 PUSH2 0x3579 JUMP JUMPDEST SWAP3 POP DUP3 PUSH2 0x570A JUMPI PUSH2 0x5709 PUSH2 0x56B5 JUMP JUMPDEST JUMPDEST DUP3 DUP3 DIV SWAP1 POP SWAP3 SWAP2 POP POP JUMP JUMPDEST PUSH1 0x0 PUSH2 0x5720 DUP3 PUSH2 0x3579 JUMP JUMPDEST SWAP2 POP PUSH2 0x572B DUP4 PUSH2 0x3579 JUMP JUMPDEST SWAP3 POP DUP3 PUSH2 0x573B JUMPI PUSH2 0x573A PUSH2 0x56B5 JUMP JUMPDEST JUMPDEST DUP3 DUP3 MOD SWAP1 POP SWAP3 SWAP2 POP POP JUMP JUMPDEST PUSH32 0x59656172206D7573742062652067726561746572207468616E206F7220657175 PUSH1 0x0 DUP3 ADD MSTORE PUSH32 0x616C20746F203139373000000000000000000000000000000000000000000000 PUSH1 0x20 DUP3 ADD MSTORE POP JUMP JUMPDEST PUSH1 0x0 PUSH2 0x57A2 PUSH1 0x2A DUP4 PUSH2 0x3CC3 JUMP JUMPDEST SWAP2 POP PUSH2 0x57AD DUP3 PUSH2 0x5746 JUMP JUMPDEST PUSH1 0x40 DUP3 ADD SWAP1 POP SWAP2 SWAP1 POP JUMP JUMPDEST PUSH1 0x0 PUSH1 0x20 DUP3 ADD SWAP1 POP DUP2 DUP2 SUB PUSH1 0x0 DUP4 ADD MSTORE PUSH2 0x57D1 DUP2 PUSH2 0x5795 JUMP JUMPDEST SWAP1 POP SWAP2 SWAP1 POP JUMP JUMPDEST PUSH32 0x4D6F6E7468206D757374206265206265747765656E203120616E642031320000 PUSH1 0x0 DUP3 ADD MSTORE POP JUMP JUMPDEST PUSH1 0x0 PUSH2 0x580E PUSH1 0x1E DUP4 PUSH2 0x3CC3 JUMP JUMPDEST SWAP2 POP PUSH2 0x5819 DUP3 PUSH2 0x57D8 JUMP JUMPDEST PUSH1 0x20 DUP3 ADD SWAP1 POP SWAP2 SWAP1 POP JUMP JUMPDEST PUSH1 0x0 PUSH1 0x20 DUP3 ADD SWAP1 POP DUP2 DUP2 SUB PUSH1 0x0 DUP4 ADD MSTORE PUSH2 0x583D DUP2 PUSH2 0x5801 JUMP JUMPDEST SWAP1 POP SWAP2 SWAP1 POP JUMP JUMPDEST PUSH32 0x446179206D757374206265206265747765656E203120616E6420333100000000 PUSH1 0x0 DUP3 ADD MSTORE POP JUMP JUMPDEST PUSH1 0x0 PUSH2 0x587A PUSH1 0x1C DUP4 PUSH2 0x3CC3 JUMP JUMPDEST SWAP2 POP PUSH2 0x5885 DUP3 PUSH2 0x5844 JUMP JUMPDEST PUSH1 0x20 DUP3 ADD SWAP1 POP SWAP2 SWAP1 POP JUMP JUMPDEST PUSH1 0x0 PUSH1 0x20 DUP3 ADD SWAP1 POP DUP2 DUP2 SUB PUSH1 0x0 DUP4 ADD MSTORE PUSH2 0x58A9 DUP2 PUSH2 0x586D JUMP JUMPDEST SWAP1 POP SWAP2 SWAP1 POP JUMP JUMPDEST PUSH1 0x0 DUP2 SWAP1 POP SWAP3 SWAP2 POP POP JUMP JUMPDEST PUSH1 0x0 DUP2 SWAP1 POP DUP2 PUSH1 0x0 MSTORE PUSH1 0x20 PUSH1 0x0 KECCAK256 SWAP1 POP SWAP2 SWAP1 POP JUMP JUMPDEST PUSH1 0x0 DUP2 SLOAD PUSH2 0x58DD DUP2 PUSH2 0x43E2 JUMP JUMPDEST PUSH2 0x58E7 DUP2 DUP7 PUSH2 0x58B0 JUMP JUMPDEST SWAP5 POP PUSH1 0x1 DUP3 AND PUSH1 0x0 DUP2 EQ PUSH2 0x5902 JUMPI PUSH1 0x1 DUP2 EQ PUSH2 0x5917 JUMPI PUSH2 0x594A JUMP JUMPDEST PUSH1 0xFF NOT DUP4 AND DUP7 MSTORE DUP2 ISZERO ISZERO DUP3 MUL DUP7 ADD SWAP4 POP PUSH2 0x594A JUMP JUMPDEST PUSH2 0x5920 DUP6 PUSH2 0x58BB JUMP JUMPDEST PUSH1 0x0 JUMPDEST DUP4 DUP2 LT ISZERO PUSH2 0x5942 JUMPI DUP2 SLOAD DUP2 DUP10 ADD MSTORE PUSH1 0x1 DUP3 ADD SWAP2 POP PUSH1 0x20 DUP2 ADD SWAP1 POP PUSH2 0x5923 JUMP JUMPDEST DUP4 DUP9 ADD SWAP6 POP POP POP JUMPDEST POP POP POP SWAP3 SWAP2 POP POP JUMP JUMPDEST PUSH1 0x0 PUSH2 0x595F DUP3 DUP5 PUSH2 0x58D0 JUMP JUMPDEST SWAP2 POP DUP2 SWAP1 POP SWAP3 SWAP2 POP POP JUMP JUMPDEST PUSH1 0x0 PUSH2 0x5975 DUP3 PUSH2 0x35C7 JUMP JUMPDEST SWAP2 POP PUSH2 0x5980 DUP4 PUSH2 0x35C7 JUMP JUMPDEST SWAP3 POP DUP3 DUP3 SUB SWAP1 POP DUP2 DUP2 GT ISZERO PUSH2 0x5998 JUMPI PUSH2 0x5997 PUSH2 0x460D JUMP JUMPDEST JUMPDEST SWAP3 SWAP2 POP POP JUMP JUMPDEST PUSH1 0x0 PUSH2 0x59A9 DUP3 PUSH2 0x35C7 JUMP JUMPDEST SWAP2 POP PUSH2 0x59B4 DUP4 PUSH2 0x35C7 JUMP JUMPDEST SWAP3 POP DUP3 DUP3 MUL PUSH2 0x59C2 DUP2 PUSH2 0x35C7 JUMP JUMPDEST SWAP2 POP DUP3 DUP3 DIV DUP5 EQ DUP4 ISZERO OR PUSH2 0x59D9 JUMPI PUSH2 0x59D8 PUSH2 0x460D JUMP JUMPDEST JUMPDEST POP SWAP3 SWAP2 POP POP JUMP JUMPDEST PUSH1 0x0 PUSH3 0xFFFFFF DUP3 AND SWAP1 POP SWAP2 SWAP1 POP JUMP JUMPDEST PUSH1 0x0 PUSH2 0x59FA DUP3 PUSH2 0x59E0 JUMP JUMPDEST SWAP2 POP PUSH2 0x5A05 DUP4 PUSH2 0x59E0 JUMP JUMPDEST SWAP3 POP DUP3 DUP3 MUL PUSH2 0x5A13 DUP2 PUSH2 0x59E0 JUMP JUMPDEST SWAP2 POP DUP1 DUP3 EQ PUSH2 0x5A25 JUMPI PUSH2 0x5A24 PUSH2 0x460D JUMP JUMPDEST JUMPDEST POP SWAP3 SWAP2 POP POP JUMP JUMPDEST PUSH1 0x0 PUSH2 0x5A37 DUP3 PUSH2 0x35FD JUMP JUMPDEST SWAP2 POP PUSH2 0x5A42 DUP4 PUSH2 0x35FD JUMP JUMPDEST SWAP3 POP DUP3 PUSH2 0x5A52 JUMPI PUSH2 0x5A51 PUSH2 0x56B5 JUMP JUMPDEST JUMPDEST DUP3 DUP3 MOD SWAP1 POP SWAP3 SWAP2 POP POP JUMP JUMPDEST PUSH1 0x0 PUSH1 0xFF DUP3 AND SWAP1 POP SWAP2 SWAP1 POP JUMP JUMPDEST PUSH1 0x0 PUSH2 0x5A75 DUP3 PUSH2 0x5A5D JUMP JUMPDEST SWAP2 POP PUSH2 0x5A80 DUP4 PUSH2 0x5A5D JUMP JUMPDEST SWAP3 POP DUP3 DUP3 SUB SWAP1 POP PUSH1 0xFF DUP2 GT ISZERO PUSH2 0x5A99 JUMPI PUSH2 0x5A98 PUSH2 0x460D JUMP JUMPDEST JUMPDEST SWAP3 SWAP2 POP POP JUMP INVALID LOG2 PUSH5 0x6970667358 0x22 SLT KECCAK256 0xE7 DUP6 PUSH6 0x4D5BEB079FC9 0xE CREATE DIFFICULTY DUP3 0x2D CREATE2 SHL 0x21 BLOBBASEFEE RETURNDATACOPY 0xBA 0xE1 PUSH19 0xF61FCE8DCCDC86F6EED264736F6C6343000818 STOP CALLER "
		},
		"gasEstimates": {
			"creation": {
				"codeDepositCost": "4650600",
				"executionCost": "29711",
				"totalCost": "4680311"
			},
			"external": {
				"checkTotalScore(uint256,string,string)": "infinite",
				"cvHash(string)": "infinite",
				"cvPartOneToPartTwo(string)": "infinite",
				"displayQualifiedApplications()": "infinite",
				"getAdvert(uint32)": "infinite",
				"getAllIPFSLinks(uint32)": "infinite",
				"getAllSecondParts(uint32)": "infinite",
				"getApplicationData(uint256)": "infinite",
				"getBlockHashForToken(uint256)": "infinite",
				"getScoreForLinkPair(string,string)": "infinite",
				"getTime()": "426",
				"getTokenIdsForAdvert(uint32)": "infinite",
				"getTopApplications(uint32,uint16)": "infinite",
				"idToAdvert(uint256)": "infinite",
				"linkToScore(string)": "infinite",
				"nftSubmissionEnabled(uint32)": "2848",
				"numAdverts()": "2518",
				"owner()": "2622",
				"qualifiedScores(uint256)": "6617",
				"qualifiedTokenIds(uint256)": "infinite",
				"receiveTotalScoreForPair(uint256,uint16)": "infinite",
				"removeCvApplication(uint256,string)": "infinite",
				"setAdvert(uint32,uint32,string)": "infinite",
				"setEscrow(address)": "26934",
				"setNFTContract(address)": "27006",
				"setNFTSubmission(uint32,bool)": "29486",
				"submitCvNFT(uint32,string)": "infinite",
				"updateTotalScore(string,string,uint16)": "infinite"
			},
			"internal": {
				"advertExists(string memory)": "infinite",
				"setAdvertNFT(string calldata)": "infinite"
			}
		},
		"methodIdentifiers": {
			"checkTotalScore(uint256,string,string)": "ee20f961",
			"cvHash(string)": "5b09c868",
			"cvPartOneToPartTwo(string)": "733fdcec",
			"displayQualifiedApplications()": "6d2c885e",
			"getAdvert(uint32)": "d9eaf1d6",
			"getAllIPFSLinks(uint32)": "743f462f",
			"getAllSecondParts(uint32)": "a97c7ca9",
			"getApplicationData(uint256)": "820b606d",
			"getBlockHashForToken(uint256)": "9e28f69e",
			"getScoreForLinkPair(string,string)": "3b078a73",
			"getTime()": "557ed1ba",
			"getTokenIdsForAdvert(uint32)": "cda2df8f",
			"getTopApplications(uint32,uint16)": "3e812fd0",
			"idToAdvert(uint256)": "c384837c",
			"linkToScore(string)": "a5fc8394",
			"nftSubmissionEnabled(uint32)": "597677a4",
			"numAdverts()": "08f78b0f",
			"owner()": "8da5cb5b",
			"qualifiedScores(uint256)": "91b0193c",
			"qualifiedTokenIds(uint256)": "8da9ba84",
			"receiveTotalScoreForPair(uint256,uint16)": "18b4bb38",
			"removeCvApplication(uint256,string)": "4d5b0f77",
			"setAdvert(uint32,uint32,string)": "58b279ca",
			"setEscrow(address)": "c10c3546",
			"setNFTContract(address)": "a7ccabdf",
			"setNFTSubmission(uint32,bool)": "f6a2271a",
			"submitCvNFT(uint32,string)": "c1e57ad3",
			"updateTotalScore(string,string,uint16)": "b77fa8e5"
		}
	},
	"abi": [
		{
			"inputs": [],
			"stateMutability": "nonpayable",
			"type": "constructor"
		},
		{
			"anonymous": false,
			"inputs": [
				{
					"indexed": true,
					"internalType": "string",
					"name": "_nftLink",
					"type": "string"
				}
			],
			"name": "AdvertSet",
			"type": "event"
		},
		{
			"anonymous": false,
			"inputs": [
				{
					"indexed": false,
					"internalType": "uint256",
					"name": "tokenId",
					"type": "uint256"
				},
				{
					"indexed": false,
					"internalType": "string",
					"name": "ipfsLink",
					"type": "string"
				},
				{
					"indexed": false,
					"internalType": "string",
					"name": "secondPart",
					"type": "string"
				},
				{
					"indexed": false,
					"internalType": "uint16",
					"name": "totalScore",
					"type": "uint16"
				}
			],
			"name": "DebugTokenInfo",
			"type": "event"
		},
		{
			"anonymous": false,
			"inputs": [
				{
					"indexed": false,
					"internalType": "uint256",
					"name": "time",
					"type": "uint256"
				}
			],
			"name": "ExecutionTime",
			"type": "event"
		},
		{
			"anonymous": false,
			"inputs": [
				{
					"indexed": true,
					"internalType": "uint256",
					"name": "tokenId",
					"type": "uint256"
				},
				{
					"indexed": true,
					"internalType": "address",
					"name": "owner",
					"type": "address"
				},
				{
					"indexed": false,
					"internalType": "string",
					"name": "tokenURI",
					"type": "string"
				}
			],
			"name": "NFTSubmitted",
			"type": "event"
		},
		{
			"anonymous": false,
			"inputs": [
				{
					"indexed": true,
					"internalType": "uint32",
					"name": "advertId",
					"type": "uint32"
				},
				{
					"indexed": false,
					"internalType": "uint256[]",
					"name": "tokenIds",
					"type": "uint256[]"
				},
				{
					"indexed": false,
					"internalType": "uint16[]",
					"name": "scores",
					"type": "uint16[]"
				}
			],
			"name": "TopApplications",
			"type": "event"
		},
		{
			"anonymous": false,
			"inputs": [
				{
					"indexed": false,
					"internalType": "uint256",
					"name": "_tokenId",
					"type": "uint256"
				},
				{
					"indexed": false,
					"internalType": "string",
					"name": "ipfsLink1",
					"type": "string"
				},
				{
					"indexed": false,
					"internalType": "string",
					"name": "ipfsLink2",
					"type": "string"
				},
				{
					"indexed": false,
					"internalType": "uint16",
					"name": "totalScore",
					"type": "uint16"
				}
			],
			"name": "TotalScoreCheck",
			"type": "event"
		},
		{
			"anonymous": false,
			"inputs": [
				{
					"indexed": false,
					"internalType": "string",
					"name": "ipfsLink1",
					"type": "string"
				},
				{
					"indexed": false,
					"internalType": "string",
					"name": "ipfsLink2",
					"type": "string"
				},
				{
					"indexed": false,
					"internalType": "uint16",
					"name": "totalScore",
					"type": "uint16"
				}
			],
			"name": "TotalScoreReceived",
			"type": "event"
		},
		{
			"anonymous": false,
			"inputs": [
				{
					"indexed": false,
					"internalType": "string",
					"name": "ipfsLink1",
					"type": "string"
				},
				{
					"indexed": false,
					"internalType": "string",
					"name": "ipfsLink2",
					"type": "string"
				},
				{
					"indexed": false,
					"internalType": "uint16",
					"name": "newScore",
					"type": "uint16"
				}
			],
			"name": "TotalScoreUpdated",
			"type": "event"
		},
		{
			"inputs": [
				{
					"internalType": "uint256",
					"name": "_tokenId",
					"type": "uint256"
				},
				{
					"internalType": "string",
					"name": "ipfsLink1",
					"type": "string"
				},
				{
					"internalType": "string",
					"name": "ipfsLink2",
					"type": "string"
				}
			],
			"name": "checkTotalScore",
			"outputs": [],
			"stateMutability": "nonpayable",
			"type": "function"
		},
		{
			"inputs": [
				{
					"internalType": "string",
					"name": "",
					"type": "string"
				}
			],
			"name": "cvHash",
			"outputs": [
				{
					"internalType": "bytes32",
					"name": "",
					"type": "bytes32"
				}
			],
			"stateMutability": "view",
			"type": "function"
		},
		{
			"inputs": [
				{
					"internalType": "string",
					"name": "",
					"type": "string"
				}
			],
			"name": "cvPartOneToPartTwo",
			"outputs": [
				{
					"internalType": "string",
					"name": "",
					"type": "string"
				}
			],
			"stateMutability": "view",
			"type": "function"
		},
		{
			"inputs": [],
			"name": "displayQualifiedApplications",
			"outputs": [
				{
					"internalType": "uint256[]",
					"name": "",
					"type": "uint256[]"
				},
				{
					"internalType": "uint16[]",
					"name": "",
					"type": "uint16[]"
				}
			],
			"stateMutability": "view",
			"type": "function"
		},
		{
			"inputs": [
				{
					"internalType": "uint32",
					"name": "_advertId",
					"type": "uint32"
				}
			],
			"name": "getAdvert",
			"outputs": [
				{
					"internalType": "uint256",
					"name": "",
					"type": "uint256"
				},
				{
					"internalType": "string",
					"name": "",
					"type": "string"
				}
			],
			"stateMutability": "view",
			"type": "function"
		},
		{
			"inputs": [
				{
					"internalType": "uint32",
					"name": "_advertId",
					"type": "uint32"
				}
			],
			"name": "getAllIPFSLinks",
			"outputs": [
				{
					"internalType": "uint256[]",
					"name": "",
					"type": "uint256[]"
				},
				{
					"internalType": "string[]",
					"name": "",
					"type": "string[]"
				},
				{
					"internalType": "string[]",
					"name": "",
					"type": "string[]"
				}
			],
			"stateMutability": "nonpayable",
			"type": "function"
		},
		{
			"inputs": [
				{
					"internalType": "uint32",
					"name": "_advertId",
					"type": "uint32"
				}
			],
			"name": "getAllSecondParts",
			"outputs": [],
			"stateMutability": "nonpayable",
			"type": "function"
		},
		{
			"inputs": [
				{
					"internalType": "uint256",
					"name": "tokenId",
					"type": "uint256"
				}
			],
			"name": "getApplicationData",
			"outputs": [
				{
					"components": [
						{
							"internalType": "uint256",
							"name": "nftTokenId",
							"type": "uint256"
						},
						{
							"internalType": "string",
							"name": "ipfsLink",
							"type": "string"
						},
						{
							"internalType": "uint16",
							"name": "totalScore",
							"type": "uint16"
						},
						{
							"internalType": "uint32",
							"name": "advertId",
							"type": "uint32"
						}
					],
					"internalType": "struct Advert.Application",
					"name": "",
					"type": "tuple"
				}
			],
			"stateMutability": "view",
			"type": "function"
		},
		{
			"inputs": [
				{
					"internalType": "uint256",
					"name": "tokenId",
					"type": "uint256"
				}
			],
			"name": "getBlockHashForToken",
			"outputs": [
				{
					"internalType": "bytes32",
					"name": "",
					"type": "bytes32"
				}
			],
			"stateMutability": "view",
			"type": "function"
		},
		{
			"inputs": [
				{
					"internalType": "string",
					"name": "ipfsLink1",
					"type": "string"
				},
				{
					"internalType": "string",
					"name": "ipfsLink2",
					"type": "string"
				}
			],
			"name": "getScoreForLinkPair",
			"outputs": [
				{
					"internalType": "uint16",
					"name": "",
					"type": "uint16"
				}
			],
			"stateMutability": "view",
			"type": "function"
		},
		{
			"inputs": [],
			"name": "getTime",
			"outputs": [
				{
					"internalType": "uint256",
					"name": "",
					"type": "uint256"
				}
			],
			"stateMutability": "view",
			"type": "function"
		},
		{
			"inputs": [
				{
					"internalType": "uint32",
					"name": "_advertId",
					"type": "uint32"
				}
			],
			"name": "getTokenIdsForAdvert",
			"outputs": [
				{
					"internalType": "uint256[]",
					"name": "",
					"type": "uint256[]"
				}
			],
			"stateMutability": "view",
			"type": "function"
		},
		{
			"inputs": [
				{
					"internalType": "uint32",
					"name": "_advertId",
					"type": "uint32"
				},
				{
					"internalType": "uint16",
					"name": "_threshold",
					"type": "uint16"
				}
			],
			"name": "getTopApplications",
			"outputs": [],
			"stateMutability": "nonpayable",
			"type": "function"
		},
		{
			"inputs": [
				{
					"internalType": "uint256",
					"name": "",
					"type": "uint256"
				}
			],
			"name": "idToAdvert",
			"outputs": [
				{
					"internalType": "uint32",
					"name": "advertId",
					"type": "uint32"
				},
				{
					"internalType": "uint256",
					"name": "deadline",
					"type": "uint256"
				},
				{
					"internalType": "string",
					"name": "nftLink",
					"type": "string"
				}
			],
			"stateMutability": "view",
			"type": "function"
		},
		{
			"inputs": [
				{
					"internalType": "string",
					"name": "",
					"type": "string"
				}
			],
			"name": "linkToScore",
			"outputs": [
				{
					"internalType": "uint16",
					"name": "",
					"type": "uint16"
				}
			],
			"stateMutability": "view",
			"type": "function"
		},
		{
			"inputs": [
				{
					"internalType": "uint32",
					"name": "",
					"type": "uint32"
				}
			],
			"name": "nftSubmissionEnabled",
			"outputs": [
				{
					"internalType": "bool",
					"name": "",
					"type": "bool"
				}
			],
			"stateMutability": "view",
			"type": "function"
		},
		{
			"inputs": [],
			"name": "numAdverts",
			"outputs": [
				{
					"internalType": "uint32",
					"name": "",
					"type": "uint32"
				}
			],
			"stateMutability": "view",
			"type": "function"
		},
		{
			"inputs": [],
			"name": "owner",
			"outputs": [
				{
					"internalType": "address",
					"name": "",
					"type": "address"
				}
			],
			"stateMutability": "view",
			"type": "function"
		},
		{
			"inputs": [
				{
					"internalType": "uint256",
					"name": "",
					"type": "uint256"
				}
			],
			"name": "qualifiedScores",
			"outputs": [
				{
					"internalType": "uint16",
					"name": "",
					"type": "uint16"
				}
			],
			"stateMutability": "view",
			"type": "function"
		},
		{
			"inputs": [
				{
					"internalType": "uint256",
					"name": "",
					"type": "uint256"
				}
			],
			"name": "qualifiedTokenIds",
			"outputs": [
				{
					"internalType": "uint256",
					"name": "",
					"type": "uint256"
				}
			],
			"stateMutability": "view",
			"type": "function"
		},
		{
			"inputs": [
				{
					"internalType": "uint256",
					"name": "tokenId",
					"type": "uint256"
				},
				{
					"internalType": "uint16",
					"name": "totalScore",
					"type": "uint16"
				}
			],
			"name": "receiveTotalScoreForPair",
			"outputs": [],
			"stateMutability": "nonpayable",
			"type": "function"
		},
		{
			"inputs": [
				{
					"internalType": "uint256",
					"name": "tokenId",
					"type": "uint256"
				},
				{
					"internalType": "string",
					"name": "ipfsLink1",
					"type": "string"
				}
			],
			"name": "removeCvApplication",
			"outputs": [],
			"stateMutability": "nonpayable",
			"type": "function"
		},
		{
			"inputs": [
				{
					"internalType": "uint32",
					"name": "_advertId",
					"type": "uint32"
				},
				{
					"internalType": "uint32",
					"name": "_period",
					"type": "uint32"
				},
				{
					"internalType": "string",
					"name": "_nftLink",
					"type": "string"
				}
			],
			"name": "setAdvert",
			"outputs": [],
			"stateMutability": "payable",
			"type": "function"
		},
		{
			"inputs": [
				{
					"internalType": "address",
					"name": "_escrowAddress",
					"type": "address"
				}
			],
			"name": "setEscrow",
			"outputs": [],
			"stateMutability": "nonpayable",
			"type": "function"
		},
		{
			"inputs": [
				{
					"internalType": "address",
					"name": "_nftContractAddress",
					"type": "address"
				}
			],
			"name": "setNFTContract",
			"outputs": [],
			"stateMutability": "nonpayable",
			"type": "function"
		},
		{
			"inputs": [
				{
					"internalType": "uint32",
					"name": "_advertId",
					"type": "uint32"
				},
				{
					"internalType": "bool",
					"name": "_enabled",
					"type": "bool"
				}
			],
			"name": "setNFTSubmission",
			"outputs": [],
			"stateMutability": "nonpayable",
			"type": "function"
		},
		{
			"inputs": [
				{
					"internalType": "uint32",
					"name": "_advertId",
					"type": "uint32"
				},
				{
					"internalType": "string",
					"name": "_nft",
					"type": "string"
				}
			],
			"name": "submitCvNFT",
			"outputs": [],
			"stateMutability": "payable",
			"type": "function"
		},
		{
			"inputs": [
				{
					"internalType": "string",
					"name": "ipfsLink1",
					"type": "string"
				},
				{
					"internalType": "string",
					"name": "ipfsLink2",
					"type": "string"
				},
				{
					"internalType": "uint16",
					"name": "newScore",
					"type": "uint16"
				}
			],
			"name": "updateTotalScore",
			"outputs": [],
			"stateMutability": "nonpayable",
			"type": "function"
		}
	]
}